:020000040800F2
:10000000E8F201207102000849520008814100080D
:10001000CD510008C50C0008297A00080000000036
:10002000000000000000000000000000B101000816
:100030008D0F0008000000000D020008755A00082E
:100040008B0200088B0200088B0200088B0200085C
:100050008B0200088B0200088B0200088B0200084C
:100060008B0200088B0200088B0200088B0200083C
:100070008B0200088B0200088B0200086D0D00083F
:100080008B0200088B0200088B02000800000000B1
:100090000000000000000000000000008B020008CB
:1000A0008B0200088B020008B55B00088B02000879
:1000B0008B0200088B0200088B0200088B020008EC
:1000C0008B0200088B0200088B0200088B020008DC
:1000D0008B0200088B0200088B0200080000000061
:1000E0008B0200088B0200088B0200080000000051
:1000F0000000000000000000000000008B0200086B
:10010000000000008B0200088B0200088B02000830
:1001100000000000000000000000000000000000DF
:10012000790D00088B0200088B0200088B02000882
:100130008B0200080000000000000000000000002A
:100140000000000000000000000000004D52000808
:100150008B0200088B0200088B0200088B0200084B
:100160008B0200088B020008000000000000000065
:10017000000000000000000000000000000000007F
:10018000000000008B0200080000000000000000DA
:100190008B0200088B020008DFF810D000F05EFC34
:1001A0000048004785580208AFF30080E8F20120BC
:1001B0002C4B19680868B0E8F04F80F30988BFF34A
:1001C0006F8F4FF0000080F311887047000000002F
:1001D00008480068006880F308884FF0000080F34A
:1001E000148862B661B6BFF34F8FBFF36F8F00DF25
:1001F00000BF00BF08ED00E0DFF80C00016841F42B
:1002000070010160704700BF88ED00E0EFF30980E6
:10021000BFF36F8F134B1A681EF0100F08BF20ED4D
:10022000108A20E9F04F106009B44FF0500080F3BD
:100230001188BFF34F8FBFF36F8F2EF0CFFF4FF0BA
:10024000000080F3118809BC19680868B0E8F04F15
:100250001EF0100F08BFB0EC108A80F30988BFF3BE
:100260006F8F70473C030020EFF30580704700005C
:100270000648804706480047FEE7FEE7FEE7FEE740
:10028000FEE7FEE7FEE7FEE7FEE7FEE7A55B000808
:10029000990100082DE9F05F0546002092469B4633
:1002A00088460646814640241BE02846414647468C
:1002B000224600F0E6FA53465A46C01A914110D33E
:1002C00011461846224600F0CDFA2D1A67EB0108B8
:1002D0004F4622460120002100F0C4FA17EB000926
:1002E0004E41201EA4F10104DFDC484631462A4677
:1002F0004346BDE8F09F2DE9F0410024061B25464A
:1003000071F1000605DA01240027D0EB070067EB46
:100310000101161E73F1000605DA0027D2EB070271
:10032000012567EB0303FFF7B5FF86460E46174628
:100330009C46AC4204D00025D0EB050E65EB0106CF
:1003400024B10020D2EB000760EB030C704631466D
:100350003A466346BDE8F08140EA01039B0703D0BB
:1003600009E008C9121F08C0042AFAD203E011F8F4
:10037000013B00F8013B521EF9D27047D2B201E0B6
:1003800000F8012B491EFBD270470022F6E710B59A
:1003900013460A4604461946FFF7F0FF204610BDF3
:1003A00030B505462A460B4612F8010B13F8014BEF
:1003B00008B1A042F8D01CB1002802D06D1CF1E7B2
:1003C000284630BD421C10F8011B0029FBD1801AC1
:1003D000704710B5002200E0521C835C8C5CA34285
:1003E00001D1002BF8D1D8B2E1B2401A10BD2DE9ED
:1003F000FE4F804681EA0300C00F0C46009021F0BA
:10040000004123F00045B8EB0200A94105D2404667
:10041000214690461C460B46024623F000401043FE
:1004200047D0270DC7F30A00C3F30A510290401AC0
:10043000019040286BDAC3F3130040F4801B00984E
:10044000924620B10023D2EB030A63EB0B0B019819
:100450005946C0F14002504600F004FA06460D46E7
:1004600050465946019A00F01CFA10EB0800614111
:10047000002487EA115284EAE7731A4340D0009AB5
:1004800062B3019A012A4FEA075215DC001B61EBA7
:1004900002014FF0004202EA0752CDE90042001C7F
:1004A00041F5801132462B4600F071FA03B0BDE8E9
:1004B000F08F40462146F9E7001B61EB0201001C6A
:1004C00041F5801300185B412018A2F5001747EB97
:1004D000030140EAD570B6196D4111E06D084FEA8D
:1004E000360645EAC0754FEA0752001B61EB020170
:1004F000001C41F5801149084FEA300000195141B4
:1005000032462B4603B0BDE8F04F00F031BA0098F8
:10051000012240000023D0EB020263EBE07300985D
:1005200021464FEAE074B8EB000061EB0401E9E713
:1005300083F000435BE781F0004158E72DE9FE4F6F
:1005400081EA030404F0004421F0004100944FF0DC
:10055000000B23F0004350EA01045ED052EA03048A
:100560005BD0C3F30A54C1F30A552C44A4F2F3340C
:100570000194A0FB0254C1F3130141F48011C3F3B1
:10058000130343F4801301FB024400FB034E840A6F
:10059000970A44EA815447EA8357A4FB0768029507
:1005A0008D0A05FB07854FEA932C04FB0C542705A5
:1005B000029D4FEA065847EA1637B5EB08056EEB81
:1005C000070C870E920E47EA811742EA8312A7FBB7
:1005D0000201B6EB0B0164EB00042B0D43EA0C3374
:1005E0005E1844EB1C50DA465146E7FB0201C5F3A6
:1005F00013044FEA0B3343EA14534FEA0432019CCD
:1006000043EA0603A4F10C040294009CCDE900B473
:1006100000F0BDF903B0BDE8F08F00200146F9E716
:100620002DE9F04D81EA030404F0004B21F0004570
:1006300014464FF0000A23F0004150EA050220D092
:1006400054EA01021DD0C5F30A570246C5F313034D
:10065000C1F31300C1F30A5640F4801543F480132C
:10066000A7EB0608101BD64608F2FD3873EB050011
:1006700002D308F1010801E092185B41B8F1000FC4
:1006800003DA00200146BDE8F08D00204FF4801110
:10069000064684460EE0171B73EB050705D3121BB5
:1006A00063EB050306434CEA010C49084FEA3000AE
:1006B00092185B4150EA0107EDD152EA030012D0D3
:1006C00082EA040083EA0501084305D0101BAB4110
:1006D00006D20122002306E000224FF0004302E090
:1006E0006FF0010253101AEB06004CEB085110EBAF
:1006F0000A0041EB0B01BDE8F04D00F039B9F0B450
:10070000CA17CB0F50405140C61841F100054FEABF
:10071000C372314628004FF0960303D0B623F0BCD5
:1007200000F0DAB830460021F9E70EB5C10F80EAD3
:10073000E0700844CA07002140F233438DE80E0000
:100740000A460B4600F023F903B000BD20F000403C
:10075000C20DC0F3160040F400007F2A02DA002028
:10076000014670470021962A03DCC2F19602D04070
:100770007047963A00F076B8C1F30A5210B5C1F34B
:10078000130140F2FF3341F480119A4201DA002054
:1007900010BD40F233439A42A2F2334203DC52428C
:1007A00000F06FF810BD904010BDC1F30A52C1F3C4
:1007B000130140F2FF3341F480119A4202DA002023
:1007C0000146704740F233439A42A2F2334202DCC0
:1007D000524200F056B800F045B800F0004230F048
:1007E00000400AD0C10D01F56071C0F3160042EA65
:1007F0000151C2084007114370470020014670476D
:1008000001F0004330B421F0004150EA010206D06B
:100810000A0DA2F56072C1F31301002A02DC30BC9C
:1008200000207047440F44EAC104C100E01830BC06
:1008300000EBC25000F047B830B50B46014600202F
:100840002022012409E021FA02F59D4205D303FA92
:1008500002F5491B04FA02F52844151EA2F1010213
:10086000F1DC30BD202A04DB203A00FA02F100203E
:1008700070479140C2F1200320FA03F319439040DE
:100880007047202A04DB203A21FA02F00021704749
:1008900021FA02F3D040C2F12002914008431946E8
:1008A0007047202A06DBCB17203A41FA02F043EAD0
:1008B000E07306E041FA02F3D040C2F12002914019
:1008C0000843194670470029A8BF7047401C4900DB
:1008D00008BF20F00100704710B4B0FA80FC00FAA5
:1008E0000CF050EA010404BF10BC704749B1CCF1D0
:1008F000200421FA04F411FA0CF118BF012121435C
:100900000843A3EB0C01CB1D4FEA00614FEA102016
:1009100042BF002010BC704700EBC35010440029B8
:10092000A4BF10BC7047401C490008BF20F0010064
:1009300010BC704710B541000CD0C0F3C7519629C8
:1009400008DC7E2909DC06DB410204D000F000400F
:1009500040F07E5010BD002010BDC1F19604C4F1DE
:10096000200100FA01F1E040FFF7ADFFA04010BD0B
:1009700010B5141E73F1000408DA401C41F10001A7
:1009800092185B411A4301D120F0010010BD2DE9FE
:10099000F04D92469B4611B1B1FA81F202E0B0FAF5
:1009A00080F220329046FFF75DFF04460F4640EA92
:1009B0000A0041EA0B0153465A46084313D0114638
:1009C00053EA010019D0C8F140025046FFF759FF21
:1009D00005460E46504659464246FFF743FF084338
:1009E00005D0012004E020463946BDE8F08D002006
:1009F000054346EAE0762C4337430A986305E40A48
:100A0000A0EB08000022FD0A44EA47540A3002D550
:100A100000200146E9E7010510196941DDE90845B3
:100A200000196941BDE8F04DA2E7000030B5041E91
:100A300071F1000404DB4FF00044404264EB01011B
:100A4000141E73F1000405DB1C464FF000435242B4
:100A500063EB0403994208BF904230BD064C074D3A
:100A600006E0E06840F0010394E80700984710347E
:100A7000AC42F6D3FFF794FB88670608A867060820
:100A800070B58C1810F8015B15F0070301D110F850
:100A9000013B2A1106D110F8012B03E010F8016B7D
:100AA00001F8016B5B1EF9D12B0705D40023521E00
:100AB0000DD401F8013BFAE710F8013BCB1A921C68
:100AC00003E013F8015B01F8015B521EF9D5A14266
:100AD000D8D3002070BD10B50146806B026C12F0B7
:100AE000500F05D0026CD20626D500F0FBFE10BDDB
:100AF000016C41F40071016401688A6812F0405F82
:100B000017D1027EAAB9CA6A12F4700F02D08A689D
:100B100052050ED44A6822F020024A60016C21F48A
:100B200080710164016CC90403D4016C41F00101BE
:100B3000016400F0CBFE10BD806BC26CBDE81040BC
:100B40000846104710B5806B40210164416C41F0AC
:100B50000401416400F0C6FE10BD10B5806B00F0CA
:100B6000BBFE10BD464910B54A6822F440324A60C7
:100B70004A6843681A434A6001684A6822F48072EE
:100B80004A6001684A68036942EA03224A600168D0
:100B90004A6822F040724A6001684A6883681A43D2
:100BA0004A6001688A6822F400628A6001688A6883
:100BB000C3681A438A60816A6FF07062D14201682B
:100BC0008A6822F070628A6001688A680CD0836A41
:100BD0001A438A6001688A6822F040528A6001687C
:100BE0008A68C36A1A4301E022F040528A600168B1
:100BF0008A6822F002028A6001688A68037E42EAFB
:100C000043028A6090F82010002901684A680FD0DA
:100C100042F400624A6001684A6822F460424A6015
:100C200001684A68174C436A04EB43331A4301E0F6
:100C300022F400624A600168CA6A22F47002CA6241
:100C40000168CA6A838B104C04EB03531A43CA62CF
:100C500001688A6822F400728A6001688A6890F8E4
:100C6000303042EA43228A6001688A6822F4806256
:100C70008A6001688A68406942EA8020886010BD05
:100C80000023014000E0FFFF0000F0FF0EB50A2343
:100C90000092CDE9011302460123A021014801F091
:100CA0008BFA0EBD901300200EB50A230092CDE9F9
:100CB000011302460123A021014801F07FFB0EBD74
:100CC00090130020FEE700207047002070470000CE
:100CD00010B500220449054805F0DEFA044903482E
:100CE00005F0CDFA002010BDE4DF012008D301207B
:100CF000E4D7012070B5044608680D4606280CD3D9
:100D0000265C0021215409A12046FFF749FB10B1C0
:100D1000084901200870286826542146064805F035
:100D2000AEFA054805F084FA002070BD7570646164
:100D300074650000BA04002008D301200020704729
:100D4000094A10B5D2F8BC22D2F814220AB1012007
:100D500010BD0A460146044805F09EFABDE8104061
:100D6000014805F013BB000008D30120014800F042
:100D7000D3BE00003C140020014800F0CDBE0000AE
:100D80003013002001681823CAB2103AB2FBF3F204
:100D9000054B6FF30901032A9B5CC36500D9091D4C
:100DA0008165084670470000DC49060810B5014619
:100DB00000208B698A6A4FF0C07453B1B3F5005FAD
:100DC00015D072B1012A0CD0022A0AD0032A09D107
:100DD00004E01AB1012A06D0022A03D1C96AC90166
:100DE00000D5012010BDC96AA142FAD010BD002A69
:100DF000F7D0012AF2D0022AF3D0032AF3D010BD93
:100E000030B50468256825F4802525600468636092
:100E10008368402B036803D099600068C26030BDCE
:100E20009A600068C16030BD10B572B61B4C206975
:100E300030B3A068E168FFF762FC00EE100A206999
:100E400000EE900AB8EE601AC0EE010A9FED140A97
:100E500080EE801A84ED051A20686168FFF74FFC68
:100E600000EE100A206900EE900AB8EE601AC0EE9B
:100E7000010A9FED0C0A80EE801A84ED061A05E047
:100E80009FED090A84ED050A84ED060A0021A160A0
:100E9000E16021606160216162B610BD68050020DB
:100EA00000007A440000C84200000000044A92EDAD
:100EB000050A80ED000A92ED060A81ED000A7047EE
:100EC0006805002070B500EE100ADFED260A002448
:100ED000B8EE400A2DED048B881A254620EE208AB4
:100EE0009FED219B012B04D0022B09D0032B1BD19A
:100EF00031E0FFF71AFC41EC100B9FED1D1B05E0E4
:100F0000FFF713FC41EC100B9FED1B1B51EC100B7A
:100F100053EC112BFFF712FB53EC192BFFF70EFBD1
:100F2000FFF743FC04460D4618EE100AFFF70EFCCF
:100F3000134A9668D368801959419060D16011684E
:100F4000506809196841116050601069401C1061B7
:100F5000BDEC048B70BDFFF7E8FB41EC100B9FED7F
:100F6000091BD3E70FF000410000000000005940CA
:100F700000806CF0FFBFD23F008003F5FF4B3D4087
:100F8000680500200000000060E3A640704708B537
:100F90000A2000F033FF6A4602210020FFF776FEA8
:100FA0009DF80000552803D19DF80100AA2821D002
:100FB00055208DF80000AA208DF801000A2000F0CD
:100FC0001DFF6A4602210020FFF76EFE0020009000
:100FD0000A2000F013FF6A4602210020FFF756FEA8
:100FE0009DF80000552803D19DF80100AA2801D0E2
:100FF000012008BD002008BD1CB56A46052110204F
:10100000FFF744FE9DF800100E48642900D93C21EA
:1010100001709DF80110012900D9012141709DF84E
:101020000210012900D900218170BDF8031039B1E7
:101030005A2905D0B42903D0B1F5877F00D0B42157
:1010400081801CBD320300201CB50B486A46017824
:101050008DF8001041788DF8011081788DF802101C
:1010600080888DF80300000A8DF804000521102007
:10107000FFF71AFE1CBD0000320300200EB510B1B0
:1010800007A007C801E009A207CA8DE80700684663
:10109000FFF798F981B26A462020FFF705FE0EBDE2
:1010A0007570646174650D0A000000002D6E6F702C
:1010B000652D0D0A0000000072B6FEE71CB5094B55
:1010C000D3E90023CDE9002390F85020022A03D26F
:1010D0005DF8222090471CBD002180F85010084682
:1010E0001CBD0000E449060810B578B190F8363010
:1010F0001C060BD511B1C3F302130B7022B190F88B
:10110000360000F00F001070002010BD022010BD4E
:1011100011B190F84E300B7012B190F84F00107072
:101120000020704710B5134609B1828A0A8043B186
:10113000818AC1F302318A0000F116011846FFF7D7
:101140000BF9002010BD000070B50446007878B19E
:10115000606878B1A06878B1012304F137021646BF
:101160001946204626F0DAFB50B14AA020612CE057
:101170004DA002E051A000E057A02061022070BD08
:1011800094F83700000603D45AA02061042070BDF3
:10119000002084F85000A082202104F11600FFF7FF
:1011A000F4F8012584F841502B4604F141020C214A
:1011B000204626F0C9FB002863D10F2304F1360234
:1011C0000121204626F0AAFB08B1082070BD0320AB
:1011D00084F83700202084F83800312084F8390062
:1011E000032332460221204626F0AEFBF0BB94F8E2
:1011F0003E00012340F0070084F83E0004F13E0267
:101200000921204626F0A0FB80BB252084F83F0062
:10121000012304F13F020A21204626F095FB28BB5A
:10122000E22084F84300012304F143020E2120460A
:1012300026F08AFBD0B9FE2084F84400012304F193
:1012400044020F21204626F07FFB78B994F83B003A
:10125000012320F0200084F83B0004F13B0206212A
:10126000204626F071FB08B9072000E009E084F869
:101270004000012304F140020B21204626F064FBCC
:1012800008B1102070BD84F8515006A020610020E4
:1012900070BD0000446576696365206E6F742066DA
:1012A0006F756E6400000000496E76616C696420A1
:1012B000693263206164647265737300496E76619C
:1012C0006C6964206932635F726561642066756E63
:1012D0006374696F6E000000496E76616C6964200A
:1012E0006932635F77726974652066756E637469CD
:1012F0006F6E0000496E76616C6964206465766982
:1013000063652076657273696F6E00002DE9F041A8
:101310000F4600F14902044601239046402126F081
:10132000FDFA58B994F84900002500F0030601239E
:1013300042464021204626F0F1FA10B10820BDE8CF
:10134000F08194F8490000F00300864201D00120AA
:10135000F5E76D1CEDB2052DE9D33E700020EEE7F8
:1013600070B5044690F851000D46A84215D094F887
:101370003F0015B120F0800001E040F0800084F8CB
:101380003F00012304F13F020A21204626F0DCFA47
:1013900008B1102070BD84F85150002070BDF8B520
:1013A0000D460446072300F145023C2126F0B6FA1B
:1013B00008B10820F8BD94F84C0094F84710084391
:1013C00084F84C0094F84D0094F84810084384F8D1
:1013D0004D0094F85110002631B394F849100906D5
:1013E00022D4032084F83700202084F838003120EC
:1013F00084F83900032304F137020221204626F045
:10140000A3FA00BB072084F84000012304F1400246
:101410000B21204626F098FAA8B984F85060F5B35D
:10142000287840F002004AE094F84510C9070CD033
:1014300002208DF8000001236A460C21204626F088
:1014400083FA0028B6D01020F8BDC10708D020F0DC
:10145000010084F84D001DB1287840F00800287084
:1014600094F84A00800623D403236A464321204689
:1014700026F054FA70B9BDF80100A082C0F3023022
:10148000042101EB800304F116024321204626F0DB
:1014900045FA78B194F83C0040F0040000E007E021
:1014A0008DF8000001236A460721204626F04CFAF9
:1014B0000020F8BD002DFBD0287840F004002870F3
:1014C000F6E72DE9F0470D460446012300F14902F5
:1014D000402126F023FA002855D194F8490000064F
:1014E00078D50F2084F84000012304F140020B213D
:1014F000204626F029FA00286AD1E16802208847B0
:10150000072684F837604FF0200884F838803120AF
:1015100084F8390004F13702032392460221204661
:1015200026F012FA90BBE1680220884704F14E07CA
:1015300002E0E1680220884739462046FFF7E6FED0
:101540000028F6D10B2784F8377001235246022178
:10155000204626F0F9F9C8B9E1680220884704F16D
:101560004F0902E0E1680220884749462046FFF71C
:10157000CDFE0028F6D1022304F147023E21204689
:1015800026F0CCF918B10820BDE8F08720E0002053
:1015900084F84C0084F84D0094F84E0018B184F89B
:1015A0003760252005E094F84F0028B184F83770A3
:1015B000262084F8380004E0032084F8370084F8FB
:1015C0003880022352461946204626F0BDF910B154
:1015D0001020D9E707E0012084F850001DB12878D9
:1015E00040F0010028700020CEE738B5044690F89E
:1015F0003E00012340F040008DF800006A460921BA
:10160000204626F0A1F968B9E16806208847022043
:101610008DF8000001236A460C21204626F094F93B
:10162000002800D0102038BD30B58BB012258DF8C1
:1016300000508DF801508DF80250132504468DF8A6
:101640000350C1F30230022505EB800545F080050B
:101650008DF804508DF80510090A8DF80610002148
:101660000DF107030DE020CA03F8015B2D0A03F812
:10167000015B2D0A03F8025B2D0A491C03F8015C8B
:10168000C9B28142EFD3FF2003F8010B142003F805
:10169000010BFE2003F8020BA12003F8010C6846A1
:1016A000181AC3B26A464321204626F04DF910B1FC
:1016B00010200BB030BDE168022088470020F8E719
:1016C0002DE9F04186B014216846FEF75EFE1B4806
:1016D0000024016841F001010160016801F001018D
:1016E0000591016841F0020101600068144F00F0AB
:1016F0000200059001220821384600F08EFCDFF838
:1017000044804FF4004600223146404600F085FCFC
:10171000082000900125CDE901546946384603941C
:1017200000F07EFB0096CDE90154694640460394E3
:1017300000F076FB06B0BDE8F081000030380240D2
:101740000004024000000240014800787047000099
:101750003003002000B506F04BF902498868C968DB
:1017600000BD00001000002078B50024009490F81F
:101770003C20012A19D0012280F83C200A68072366
:101780000568092A13D9EE680A3A02EB420293402F
:101790009E43EE600B788A680A3B03EB43039A4052
:1017A0000368DD682A43DA6010E0022078BD2E6904
:1017B00002EB420293409E432E610B788A6803EB52
:1017C00043039A4003681D692A431A614A681F232C
:1017D000072A13D205686E6B521E02EB82029340F9
:1017E0009E436E630A8893B20A79521E02EB82020C
:1017F00093400268556B2B43536327E005680D2A1D
:1018000012D22E6BD21F02EB820293409E432E63B4
:101810000B790A88DB1F92B203EB83039A400368BB
:101820001D6B2A431A6311E0EE6A0D3A02EB820245
:1018300093409E43EE620B790A880D3B92B203EB14
:1018400083039A400368DD6A2A43DA621B4B05680A
:10185000194A9D420AD10D68122D07D1556825F409
:1018600000055560556845F48005556005689D4242
:101870001DD1134D0B68AB4201D0112B17D153680A
:1018800023F480035360536843F4000353600968F2
:10189000A9420CD10B490C4A0968B1FBF2F101EBEA
:1018A0008101490000E0491E00910029FBD180F828
:1018B0003C40002078BD0000002301400020014092
:1018C000120000103803002040420F00012101489F
:1018D00003F010BF700900200021014803F00ABF87
:1018E00088050020704770B504004FF0000503D054
:1018F000206C002610B107E0012070BD204600F0EA
:101900001DF8666484F83C60206CC00610D4206C1E
:1019100020F4885040F0020020642046FFF722F9AE
:101920006664206C20F0020040F00100206400E0BA
:10193000012584F83C60284670BD000070B586B073
:10194000064614216846FEF720FD24493068884287
:1019500042D123480025016841F48071016000688C
:101960001F4900F4807014390590086840F00100A8
:101970000860086800F001000590086840F0020067
:1019800008600868032400F002000590E0208DE85C
:1019900031006946134800F043FA00946946124842
:1019A000CDE9014500F03CFA114C1048C4E90005AE
:1019B0000015A560C4E90350400060618000A0618B
:1019C0004011C4E907052046656200F075F908B1C9
:1019D000FFF772FBB463A66306B070BD0020014040
:1019E00044380240000002400004024010640240FB
:1019F00030130020F8B5044600200E46009094F8FD
:101A00003C10012907D0012184F83C1021688B6823
:101A1000DB0702D011E00220F8BD8B6843F0010320
:101A20008B603649364B0968B1FBF3F101EB41019C
:101A300000E0491E00910029FBD121688B68DB057D
:101A400003D58B6823F480738B6021688B68DB0778
:101A500049D0236C40F20165AB4343F480732364A7
:101A60004968490505D5216C21F4005141F48051A4
:101A70002164216CC90404D5616C21F00601616404
:101A800000E0606484F83C00A16B1F481D4DC863F2
:101A9000A16B1E480864A16B1D48C86421686FF0E3
:101AA000220008602068416841F080614160206840
:101AB000816841F4807181602168134632464C315F
:101AC000A06B00F063F96868C006206802D0114975
:101AD000884210D1816811F0405F0CD1816841F0DB
:101AE0008041816007E0206C40F010002064606C51
:101AF00040F0010060640020F8BD000038030020C1
:101B000040420F0000230140D70A00085B0B000889
:101B1000450B0008002001402DE9F84304464FF032
:101B20000009CDF8009063484FF41651A56D006888
:101B3000B0FBF1F72E6894F85C10082000FA01F170
:101B400031420FD021680A6852070BD50A6822F08B
:101B500004020A6094F85C108840A860606D40F050
:101B60000100606594F85C104FF0010808FA01F07C
:101B7000304208D021684969090604D5A860606D23
:101B800040F00200606594F85C1004208840304208
:101B900008D021680968890704D5A860606D40F005
:101BA0000400606594F85C1010208840304218D022
:101BB00021680968090714D5A860206801684903ED
:101BC00004D50068000308D5A16C07E00168C905C9
:101BD00003D4016821F008010160216C09B120469D
:101BE000884794F85C1020208840304231D021682A
:101BF0000968C9062DD5A86094F835000528206825
:101C0000016806D0490347D5006800031DD4616C04
:101C10001CE021F0160101602068416921F080017B
:101C20004161206C08B9A06C20B12068016821F0E6
:101C30000801016094F85C103F208840A86084F897
:101C4000358084F83490216D1FE0E16B09B12046A6
:101C50008847606D00282BD0606DC00714D0052028
:101C600084F835002068016821F0010101600098C6
:101C7000401C0090B84203D820680068C007F6D125
:101C800084F8358084F83490E16C002910D001B0DC
:101C90002046BDE8F04308470168C905D5D401686E
:101CA00021F01001016084F8358084F83490CCE78D
:101CB000BDE8F883380300202DE9F041044600F028
:101CC000B1F906465CB1022084F83500002584F89D
:101CD00034502068016821F0010101600DE001200D
:101CE000BDE8F08100F09EF9801B052805D9202071
:101CF0006065032084F83500F2E720680068C007BB
:101D0000F0D12268116820480140D4E9010318434A
:101D1000D4E903363343184363691843A36918436E
:101D2000E3691843236A18430843616A042903D10D
:101D3000D4E90B1319430843106020684069666AB0
:101D400020F0070130460E43012704280CD1A06A79
:101D50000643E06A40B12046FFF728F820B1402052
:101D6000606584F83570BAE7206846612046FFF761
:101D700009F894F85C203F2191408160656584F802
:101D800035700020ACE700003F8010F02DE9F041F5
:101D90000446866D90F83400002501280DD00120FE
:101DA00084F8340094F835700020012F07D084F8AF
:101DB000340002252846BDE8F0810220FBE7022717
:101DC00084F8357060652046FFF71AF894F85C10C7
:101DD0003F208840B0602068016841F01601016032
:101DE000206C20B12068016841F008010160206882
:101DF000016841F001010160DCE7000070B50446B4
:101E000000F010F90546601C02D004480078044434
:101E100000F008F9401BA042FAD370BD7C020020FC
:101E20002DE9F84FDFF8B8A10022012403254FF077
:101E30000F090AF1040BAAF1040E00BF0B6804FAA3
:101E400002F63340B34273D10F7907F00307012F35
:101E500001D0022F16D187684FEA420805FA08FC24
:101E600027EA0C07D1F80CC00CFA08FC4CEA070C66
:101E7000C0F808C04768B7430E79C6F3001696400D
:101E80003E4346600E79F643B6070DD0C76856004C
:101E900005FA06FC27EA0C07D1F808C00CFA06FC84
:101EA0004CEA070CC0F80CC00E7906F00306022EAF
:101EB00010D1D60800EB8608D8F8206057074FEA03
:101EC000D76C09FA0CF7BE430F6907FA0CF73743D2
:101ED000C8F8207006684FEA420C05FA0CF7BE43BA
:101EE0000F7907F0030707FA0CF7374307604E68CE
:101EF00016F4403F6DD03B4E376847F4804737605B
:101F0000366822F0030706F480460096364E07EB4B
:101F1000060CDCF8086897073F0F09FA07F826EA6D
:101F20000806DFF8C880404503D14FF000081EE0E6
:101F30004FE0DFF8BC80404502D14FF0010816E0C9
:101F4000DFF8B080404502D14FF002080FE0DFF823
:101F5000A880404502D14FF0030808E0DFF89C80DC
:101F6000404502D14FF0040801E04FF0070808FA9D
:101F700007F848EA0608CCF80888DAF800605746FF
:101F8000D1F804C09E435FEACC2C00D51E433E60CE
:101F9000DBF800605F46D1F804C09E435FEA8C2CFA
:101FA00000D51E433E60DEF800607746D1F804C0DD
:101FB0009E435FEA8C3C00D51E433E60084F083FBD
:101FC0003E68D1F804C09E435FEACC3C00D51E4376
:101FD0003E60521C102AFFF431AFBDE8F88F0000BC
:101FE000083C0140443802400030014000000240FB
:101FF0000004024000080240000C024000100240B1
:102000000069084000D001207047426921EA0203BC
:102010000A4043EA0241816170470AB18161704719
:102020000904FBE701488068704700007C0200203B
:1020300070B5040025D094F83D00002520B984F83F
:102040003C50204600F052FA242084F83D002068DD
:10205000016821F0010101602068016841F400413C
:1020600001602068016821F40041016001F00EF96F
:102070004D4A6168914201D84C4900E04C49884280
:1020800001D2012070BD4B492368B0FBF1F15E68BD
:1020900026F03F060E435E606368934206D94FF414
:1020A000967359434FF47A73B1FBF3F12368491CDB
:1020B0001E6A26F03F06314319626168914210D8CA
:1020C0004900401EB0FBF1F2521CC2F30B02042A7D
:1020D00001D2042022E0B0FBF1F0401CC0F30B0061
:1020E0001CE0A268F2B301EBC10303EB0116431E2F
:1020F000B3FBF6F35B1C43F480431B0549D092B35A
:1021000001EBC10202EB0111401EB0FBF1F0401CDB
:10211000C0F30B0040F4804040F400402168CA69DD
:102120004CF6FF739A431043C861D4E9071001438A
:102130002068026822F0C00211430160D4E9030163
:1021400001432068826848F2FF339A43114381605B
:10215000D4E9050108432168CA6822F0FF02104350
:10216000C86001E00EE016E02068016841F001015E
:1021700001602564202084F83D00256384F83E50EA
:10218000002070BD01EB4106431EB3FBF6F35B1C60
:10219000B3E70120C2E701EB4101401EB0FBF1F0C3
:1021A000401CC0F30B00B7E7A086010080841E002E
:1021B00000093D0040420F002DE9FF4F83B09A46D1
:1021C000DDE9118793460446DDF84090FFF72AFFCA
:1021D000054694F83D00202870D119230122744946
:1021E0002046009502F026F90028F5D194F83C002D
:1021F000012863D0012084F83C0020680168C907E9
:1022000003D1016841F0010101602068016821F4F7
:1022100000610160222084F83D00402084F83E00E7
:1022200000262664C4F82490A4F82A80608D2085B6
:102230006048E062CDE9007553465A46204604994D
:1022400001F0FAFF002879D1208DD0B1012821D0EA
:102250000228206824D0416980690090208D0328DD
:1022600066D801282BD0544902283B464FF0000283
:10227000009557D08846204602F0DCF800285DD152
:102280003AE02068416981690091016841F4007178
:1022900001607DE02068016821F480610160F0E761
:1022A000016821F4806101602068016841F40061E7
:1022B0000160206841698069009069E075E02A4604
:1022C0003946204602F05CF988BB54E0206801687A
:1022D00041F40071016020680069616A0870606AF9
:1022E000401C6062218D491E2185618D491E6185DA
:1022F00021680969017042E02068016821F4806169
:10230000016020680069616A0870606A401C606250
:10231000208D401E2085608D401E60853B4600223A
:1023200041460095204602F085F800B9CEE705E069
:102330002A463946204602F023F918B1012007B099
:10234000BDE8F08F20680069616A0870606A401C0F
:102350006062208D401E81B22185608D401E6085A7
:1023600020684269D243520712D4032903D101687D
:1023700021F48061016020680069616A0870606A08
:10238000401C6062208D401E2085608D401E60854F
:10239000208D00287FF462AF202084F83D0084F86F
:1023A0003E6084F83C600020C9E70220C7E70000D7
:1023B000020010000000FFFF040001002DE9FF4FA4
:1023C00083B09A46DDE9119793460446DDF84080D4
:1023D000FFF728FE054694F83D0020287FD11923F9
:1023E000012240492046009502F024F8002876D1C9
:1023F00094F83C00012872D0012084F83C00206849
:102400000168C90703D1016841F00101016020683A
:10241000016821F400610160212084F83D00402022
:1024200084F83E0000262664C4F82480A4F82A908C
:10243000608D20852C48E062CDE9007553465A46F0
:102440002046049901F076FF70B930E02A463946FB
:10245000204602F0CDF858B1206C042804D1206841
:10246000016841F400710160012007B0BDE8F08F00
:10247000606A216800780861606A401C6062218D92
:10248000491E89B22185628D521E62852268536978
:10249000DB435B070BD469B100781061606A401CB4
:1024A0006062208D401E2085608D401E6085208DDD
:1024B0000028CBD12A463946204601F08FFF00285C
:1024C000CAD154F83D0B016841F40071016020202D
:1024D00004F81E09E67766770020C6E7FFE70220CA
:1024E000C3E70000020010000000FFFF10B586B037
:1024F000044614216846FDF748FF134920688842C6
:1025000020D112480021026842F0020202600068F5
:1025100000F002000590C02000901220CDE90101DA
:10252000032003900420049069460948FFF778FCD3
:1025300006481030016841F400110160006800F4A1
:102540000010059006B010BD005400403038024025
:10255000000402400248816802781144816070479B
:102560007C0200200B4810B5016841F40071016045
:10257000016841F480610160016841F4807101608B
:10258000032000F099F80F2000F006F800F04AF858
:10259000002010BD003C024030B505461C4887B005
:1025A0000024016841F480210160006806A900F45C
:1025B0008020009001A800F043FE00F077FE15494E
:1025C000154AB0FBF1F11548491E026040F2E732AE
:1025D000C0E90324C0E90114846101F0B7FA0400E2
:1025E00012D10E4801F024FB04000DD11A2000F096
:1025F00035F8102D07D2002229461A2000F03CF8A9
:102600000748056000E0012407B0204630BD000007
:102610004438024040420F0000480140BC150020F1
:10262000800200200C4882B0016841F480410160C2
:10263000006800F4804000900748001F016841F0E6
:10264000805101600068002200F0805000900F214E
:10265000901E02B000F010B844380240002809DB98
:1026600000F01F02012191404009800000F1E020AC
:10267000C0F8001170470000F0B40E4B1B680C4608
:10268000C3F30223C3F10705042D00D90425191D46
:10269000072901D2002300E0DB1E012606FA05F11E
:1026A000491E214099409E40761E16403143F0BCA1
:1026B00005F030BA0CED00E0064900F007020868AA
:1026C0004FF6FF03184040EA0220034A1043086017
:1026D000704700000CED00E00000FA05704700684C
:1026E000416200207047F0B50368586A39B19C6AAE
:1026F0004FF4827600EB144400204D1E0AE040EABD
:10270000024098620FE006EB8007DF59401C04EBA3
:102710001744C0B2A842F6D344EA02404FF4807294
:1027200002EB810158500020F0BDD0F8E00404F025
:10273000C0B801EBC10200EB8202D0F8E004126ADB
:1027400004F015B801EBC10200EB8202D0F8E004FE
:10275000D2F8602204F066B8D0F8E00404F0ABB818
:102760000A0601F00F0101EBC10100EB810101D567
:10277000143101E001F51571006804F087BF70B5F0
:1027800004460B0601F00F0000EBC00104EB8101D1
:102790004FF001024FF0000502D54A75143103E0F5
:1027A00081F8555201F51571087094F894040128C8
:1027B00008D084F89424206804F082FC84F89454AF
:1027C000002070BD022070BD70B5044601F00F00FE
:1027D0002279904201D9012070BD0B0601F00F0152
:1027E00001EBC10104EB81014FF001024FF0000544
:1027F00002D54A75143103E081F8555201F515717F
:102800008D70087094F89404012808D084F89424FA
:10281000206804F0C7FD84F89454002070BD0220A5
:1028200070BD01F00F0101EBC10100EB8100D0F898
:10283000680270472DE9F04104460F0601F00F00D1
:1028400000EBC00104EB81014FF001064FF00005E1
:1028500002D54E75143103E081F8555201F515711A
:10286000C2F30A0208708A600B714A7802B1488389
:10287000022B00D14D7194F89404012809D084F8FA
:102880009464206804F06EFB284684F89454BDE8F4
:10289000F0810220FBE710B501F00F0404EBC40146
:1028A00000EB8101C1E998230023C1F8683281F867
:1028B000553281F85442837901F51571012B00D10D
:1028C000CA618279006804F0C5FD002010BD70B5B2
:1028D00004460D4601F00F002179884201D90120FC
:1028E00070BD29064FF000064FF0010206D500EB3F
:1028F000C00104EB81014A75143107E005EBC50105
:1029000004EB810181F8556201F515718A70087038
:1029100094F89404012807D084F89424206804F0E3
:102920006DFD280702D007E0022070BDA17904F2F6
:102930009C42206804F00AFD84F89464002070BD75
:1029400010B501F00F0404EBC40100EB8101C1E9F3
:10295000082300238B6201234B7501F8144F837900
:10296000012B00D1CA618279006804F073FD002058
:1029700010BD00002DE9FC5F05680446284604F000
:1029800021FF00287DD1206804F048FF002878D07E
:10299000D5F80808C0F30D20C4F8D404206804F06A
:1029A0003DFF800704D52068416901F002014161C3
:1029B000206804F033FFC10604F29C40009034D537
:1029C0002068816921F0100181612F6A07F00F00F2
:1029D00000EBC00004EB8006C7F3434006F5157614
:1029E000022802D0062811D01AE047F6F0700742FC
:1029F00016D0C7F30A1217462846F16804F012FFF2
:102A0000F0683844F0607069384408E008222846CD
:102A1000009904F007FF7069C7F30A110844706158
:102A20002068816941F010018161206804F0F6FEA0
:102A300000034FF0080B4FF0000A4FF001097CD55E
:102A40000026206804F0C9FE074674E0F80770D03D
:102A5000F1B2206804F0DAFE8046C00707D005EB2B
:102A60004611C1F8089B3146204602F0F5FB5FEAAB
:102A7000087024D505EB4611C1F808BB2068016C2D
:102A800000E023E200EB46100191D0F8082BFB4B4D
:102A9000994205D9110403D54FF40041C0F8081B31
:102AA000204600F0F3FAF5490198884207D9A07949
:102AB000012804D120680121009A04F047FC5FEA54
:102AC000C86004D505EB46111020C1F8080B5FEA79
:102AD00088701DD56869000605D5D5F8040840F44E
:102AE0008061C5F8041806EBC60004EB800090F87E
:102AF000571200F51570012905D180F803A0F1B235
:102B0000204600F0E9F905EB46110220C1F8080B58
:102B10005FEA886004D505EB46102021C0F8081B49
:102B20005FEA884005D505EB46104FF40051C0F828
:102B3000081B7F08761C002F88D1206804F06EFEE9
:102B400040036ED5206804F041FE0746002666E08B
:102B5000F80762D0F1B2206804F046FE8046C00754
:102B600023D006F00F01D5F8342809FA01F18A4381
:102B7000C5F8342805EB4611C1F80899A079012859
:102B80000FD106EBC60004EB8000D0E90721114409
:102B9000016236B9606A20B920680121009A04F008
:102BA000D5FBF1B22046FFF7C4FD5FEA087003D5FC
:102BB00005EB4611C1F808B95FEAC86004D505EB1A
:102BC00046111020C1F808095FEA486004D505EBFA
:102BD00046104021C0F808195FEA887016D53146C2
:102BE000284604F0C4FD06EBC60004EB8000C17D5E
:102BF0001430012905D180F803A0F1B2204600F07D
:102C000067F905EB46110220C1F808095FEA086080
:102C100003D53146204602F085FB7F08761C002F45
:102C200096D1206804F0FAFD002811DAD5F80408DE
:102C300020F00101C5F8041894F8CC0401282BD029
:102C4000204600F008FA2068416901F00041416126
:102C5000206804F0E3FD00050BD5D5F80808C0078F
:102C600002D0204600F03AFA2068416901F4006180
:102C70004161206804F0D2FDC00467D5D5F804088E
:102C800020F00100C5F804081021206804F06FFD51
:102C900000214FF67F3220E084F8CCA400212046AA
:102CA000FFF71CFDCFE700BF05EB4110C0F8082976
:102CB000D0F8003923F40013C0F80039C0F8082B0D
:102CC000D0F8003B23F40013C0F8003BD0F8003BE1
:102CD00043F00063C0F8003B491C20798842E3D8E8
:102CE000D5F81C0840F00111C5F81C18E07B00283D
:102CF00028460DD0D0F8840840F00B01C5F88418A0
:102D0000D5F8440840F00B012846C5F844180DE0FA
:102D1000D0F8140842F22B010843C5F81408D5F87E
:102D2000100840F00B012846C5F81018D0F800082C
:102D300020F4FE61C5F80018A1792068009A04F01B
:102D400005FB2068416901F480514161206804F06D
:102D500065FD800415D5206804F044F9206804F06E
:102D600024FDE07100F08CFA0146E279206804F05D
:102D7000B7FD204600F05CF92068416901F400517C
:102D80004161206804F04AFD000707D5204600F0A5
:102D900066F92068416901F008014161206804F08A
:102DA0003DFD000616D5A86920F08001A961012625
:102DB0000DE000BF06EBC60004EB800090F8570260
:102DC000012803D1F1B22046FFF7CAFC761C207916
:102DD000B042EFD8206804F021FDC0021FD50126C3
:102DE0004F4614E005EB4610D0F8001906EBC6007C
:102DF00004EB8002107E012808D1002906DAF0B227
:102E000040F08001D7752046FFF7AAFC761C207998
:102E1000B042E7D82068416901F48011416120681F
:102E200004F0FCFC800234D501204A4629E000BFB2
:102E300005EB4011D1F8001B00EBC00304EB83034A
:102E400093F85862012E1BD1002919DA94F8D46442
:102E500001F4803106F00106B14211D183F8572206
:102E6000A96941F08003AB616969090608D4D5F806
:102E7000040840F40070C5F8040805E00A30544F17
:102E8000401C21798142D3D82068416901F40011A6
:102E90004161206804F0C2FC400007D52046FFF7DE
:102EA00044FC2068416901F080414161206804F0E0
:102EB000B5FC40070AD520684568680702D520465A
:102EC000FFF74AFC2068416829434160BDE8FC9F48
:102ED000D0F8E00403F041BDD0F8E00403F051BDA8
:102EE000F8B5040005D094F895042668002510B1C3
:102EF00006E00120F8BD84F89454204600F056F80E
:102F0000032084F89504B6F1A04F00D1A571206884
:102F100004F016FA207C8DF8000094E80F0004F00D
:102F20006FF80226B8BB0021206804F09AFC90BB21
:102F3000002001270DE000BF00EBC00104EB810180
:102F40004F750875C8850D76CD610D62401CC0B205
:102F50004D6221798142EFD8002011E000EBC001E1
:102F600004EB810181F8555281F8540281F85852DE
:102F7000C1F85C52C1F86052401CC0B2C1F8645242
:102F800021798142EAD8207C8DF8000094E80F0076
:102F900004F018F910B184F89564AAE7657484F810
:102FA0009574206804F000F90020F8BD10B586B0D3
:102FB000044614216846FDF7E8F92068B0F1A04FF7
:102FC0002FD119480021026842F001020260006816
:102FD00000F0010005904FF4C05000900220CDE9B0
:102FE0000101032003900A20049069460F48FEF770
:102FF00017FF0D48001D016841F0800101600A487B
:103000001430016841F4804101600068002200F43E
:103010008040059005214320FFF72EFB4320FFF75A
:103020001DFB06B010BD0000303802400000024019
:1030300070B50446C0790125022801D0FEF73CF89E
:103040002946D4F8E00403F00AFDD4F8E004BDE812
:10305000704003F0BFBCD0F8E00403F0E9BCD0F846
:10306000E00403F0EFBC10B5044690F89404012886
:103070000AD0012084F894046174206804F01FFCD5
:10308000002084F8940410BD022010BDD0F8E02484
:1030900000F29C41104603F0EEBC10B504460068F7
:1030A00094F89414012909D0012184F89414C1687A
:1030B000490609D5617B012902D005E0022010BD37
:1030C000816B41F480318163206804F02EFB20681D
:1030D00004F05CF8002084F8940410BD10B5044698
:1030E000D0F8E00403F009FD2068D0F8001E41F09C
:1030F0000101C0F8001EE07A002804D002480168EF
:1031000041F00601016010BD10ED00E02DE9F0472F
:103110000E46050065D0DFF81481D8F80000F7B23C
:1031200000F00700B04207D288F80070D8F800001D
:1031300000F00700B04254D128683D4C810712D5F9
:10314000400703D5206840F4E0502060287800074D
:1031500003D5206840F4604020602068A96820F012
:10316000F000084320602878C0072DD030496868F7
:103170000839012812D0022813D0032811D0096879
:10318000890700292DDA216821F00301014321601C
:10319000FEF748FF814641F2883A0EE0096889034C
:1031A000EFE709688901ECE7FEF73CFFA0EB0901B6
:1031B000514502D90320BDE8F0872068696800F016
:1031C0000C00B0EB810FEFD1D8F80010404601F0B1
:1031D0000701B14207D90770006800F00700B0424C
:1031E00001D00120E7E72878400705D52068E96885
:1031F00020F4E050084320602878000706D52068B6
:10320000296920F4604040EAC100206000F05EF8C7
:103210002168084AC1F30311515CC840064908609F
:1032200006480068FFF7B8F90020C4E7003C0240F8
:1032300008380240B54E06083803002080020020FE
:103240000F2202600C4A136803F003034360136803
:1032500003F0F0038360136803F4E053C360126863
:103260004FF4E05303EAD20202610448006800F020
:10327000070008607047000008380240003C024028
:1032800001480068704700003803002004480549E1
:1032900000680968044AC1F38221515CC840704744
:1032A0003803002008380240C54E06080448054986
:1032B00000680968044AC1F34231515CC840704754
:1032C0003803002008380240C54E0608154810B5DE
:1032D000006810F00C02144813D01449042A0FD0CF
:1032E000082A0ED10F4C241F2268236802F03F02E7
:1032F0005B0207D52068C0F38810A0FB010106E03F
:10330000084610BD2168C1F38811A1FB000100230C
:10331000FCF7C0FF2168C1F30141491C4900B0FB23
:10332000F1F010BD083802400024F40040787D011F
:103330002DE9F84F04006ED02078DFF84C93C007D9
:10334000A9F104054AD009F104000168C1F3810123
:10335000012908D00068C0F3810002280AD1D9F8F9
:103360000000400206D52868800337D56068002831
:10337000E1D033E06068B0F5803F10D0B0F5A02F09
:10338000286810D020F480302860286820F480203D
:1033900028606068A8B1FEF745FE06460DE0286883
:1033A00040F48030F4E740F480202860F7E700BF65
:1033B000FEF738FE801B642873D828688003F7D591
:1033C0000CE0FEF72FFE064605E000BFFEF72AFEE2
:1033D000801B6428F0D828688003F7D42078DFF8B1
:1033E000AC8280074FF0000A3ED5A748001D016857
:1033F00011F00C0F08D00068C0F3810002280BD137
:10340000D9F80000400207D42868800716D5E06884
:10341000012800D112E033E1E068B8B10120C8F81A
:103420000000FEF7FFFD064605E000BFFEF7FAFDCF
:10343000801B0228C0D828688007F7D52868216932
:1034400020F0F80040EAC10028600DE0C8F800A0B4
:10345000FEF7E8FD064604E0FEF7E4FD801B0228C7
:103460001FD828688007F7D42078000722D5864F18
:1034700087486169703771B101210160FEF7D2FDA3
:10348000064604E0FEF7CEFD801B022809D8386806
:103490008007F7D50EE0C0F800A0FEF7C3FD064692
:1034A00005E082E0FEF7BEFD801B02287DD838686B
:1034B0008007F7D42078400768D5DFF8CCB1002723
:1034C0000BF13C0BDBF80000C0000BD4DBF8001064
:1034D00041F08051CBF80010DBF80000012700F02C
:1034E000805000906B4E3068C00510D4306840F4B6
:1034F00080703060FEF796FD009005E0FEF792FDCB
:103500000099401A022850D83068C005F6D55E4EA2
:10351000A0686C3601280FD00528306810D020F044
:1035200001003060306820F004003060A068B8B15D
:10353000FEF778FD00900FE0306840F00100F4E7FE
:1035400040F004003060F7E7FEF76CFD0099411A87
:1035500041F28830814266D830688007F4D50EE0A9
:10356000FEF760FD009007E0FEF75CFD0099411A50
:1035700041F28830814256D830688007F4D42FB1A8
:10358000DBF8001021F08051CBF80010A069C8B31F
:103590003D49091D0968C1F3810102294AD0022869
:1035A000504607D0C8F8600000E03CE0FEF73AFD66
:1035B00004463BE04746C8F86000FEF733FD064688
:1035C00005E000BFFEF72EFD801B02282BD82868DF
:1035D0008001F7D4D4E907010843A16A2E4A4908BB
:1035E00002EB0141626A41EA8211084394F82C100F
:1035F00040EA0161C9F8001001203866FEF712FDAB
:10360000044606E03EE000BFFEF70CFD001B02286A
:1036100009D828688001F7D534E000BFFEF702FD25
:10362000001B022802D90320BDE8F88F286880011A
:10363000F4D427E00128F7D0D9F80000E26900F4BB
:10364000800191421CD1226A00F03F01914217D1C2
:1036500047F6C071626A0140B1EB821F10D1A26AC5
:103660004FF0FF3300F4403103EB5202B1EB024F55
:1036700006D194F82C1000F07060B0EB016F01D00F
:103680000120D1E70020CFE7043802400000474284
:10369000800E4742007000400000FFFF704770B589
:1036A000040009D0606A002540B125616561A5620A
:1036B00094F8510040B10CE0012070BD6068B0F595
:1036C000827FF4D0E561F2E784F85050204600F0A4
:1036D00045F8022084F851002068016821F040017B
:1036E0000160A088218900F4827001F4044108433C
:1036F000A18901F400610843217C01F00201084323
:10370000217D01F001010843218B01F40071084380
:10371000217F01F03801084394F8201001F0800166
:103720000843218D01F40051084321680860A06915
:10373000042101EA104094F8241001F0100108431C
:10374000216848602068C16921F40061C161656534
:10375000012084F85100002070BD000070B586B0D3
:10376000064614216846FCF710FE2049306888425E
:1037700039D11F480025016841F48041016000688B
:1037800000F4804005901A481038016841F00201A9
:1037900001600068694600F0020005904FF4204087
:1037A00000900220CDE9010503200390052004903C
:1037B0001048FEF735FB114C0F48C4E900054020C6
:1037C000C4E9020500012061400060618000C4E995
:1037D0000605256220466562FEF76EFA08B1FDF720
:1037E0006BFCB464A66306B070BD000000380040F6
:1037F0004038024000040240706002403C14002047
:103800002DE9F84F984616468A460446FEF70AFC0C
:10381000814694F8510001281ED1BAF1000F73D0EF
:10382000002E71D094F85000012815D0012784F89B
:103830005070032084F8510000256565C4F830A05D
:10384000A686E686A563A587E58765642564A068E6
:10385000B0F5004F03D00CE00220BDE8F88F2068DF
:10386000016821F0400101602068016841F4804155
:10387000016020680168490603D4016841F04001F5
:103880000160E068B0F5006F606803D048B3012EB6
:1038900027D047E008B1012E1FD1206B2168008896
:1038A000C86006E020688168890709D5216B09880E
:1038B000C160206B801C2063E08E401EE0860CE01F
:1038C000FEF7B0FBA0EB0901414503D3B8F1FF3F80
:1038D00003D035E0B8F1000F32D0E08E0028E1D1FE
:1038E00023E0206B21680078087306E02068816877
:1038F00089070AD5216B09780173206B401C20636E
:10390000E08E401EE0860DE02BE0FEF78BFBA0EB87
:103910000901414503D3B8F1FF3F03D010E0B8F1EE
:10392000000F0DD0E08E0028E0D14A4641462046E7
:1039300001F0F6FF08B120206065A06830B109E011
:1039400084F8517084F85050032086E72068C168DD
:103950008068009084F8517004F8505F6068002817
:10396000F3D0012079E7000070B5044690F85100CB
:1039700001281CD1C9B1C2B194F85000012816D059
:10398000012084F85000032084F85100002565656B
:103990002163A286E286A56365642564A587E58721
:1039A000A068B0F5004F04D00DE0012070BD0220EA
:1039B00070BD2068016821F0400101602068016845
:1039C00041F480410160A16C17480864A16C17485C
:1039D000C863A16C1648C864A06C0565E38E2268B4
:1039E000216B0C32A06CFEF7D1F930B1606D40F064
:1039F0001000606584F85050D7E7206801684906D8
:103A000003D4016841F04001016084F850502068FF
:103A1000416841F0200141602068416841F00201A5
:103A20004160002070BD0000B3580008BD58000878
:103A3000915800080D4A0168914215D18A68120612
:103A4000FCD40A6822F040020A6001680A6822F485
:103A500000620A600068016841F0400101600448AA
:103A60000068002800D00047704700000038004080
:103A70008802002070477047704710B590F83C20CE
:103A8000012A22D0012280F83C20CA688C6822F4E6
:103A9000407222434C6822F4806222430C6822F474
:103AA000006222430C6922F4805222434C6922F4C2
:103AB00000522243C969002322F480420A4301686C
:103AC0004A6480F83C30002010BD022010BD000088
:103AD00070B590F83C20012A2CD0012480F83C409D
:103AE000022280F83D2003685A689D6822F0700623
:103AF0000A6832435A60104B02689A420ED0B2F103
:103B0000804F0BD00D4B9A4208D00D4B9A4205D0F6
:103B10000C4B9A4202D00C4B9A4204D1496825F0D2
:103B200080031943916080F83D40002180F83C10EB
:103B3000084670BD022070BD000001400004004036
:103B400000080040000C00400040014010B5040097
:103B500003D094F83D0010B107E0012010BD002013
:103B600084F83C00204600F01FF8022084F83D0055
:103B7000211D206802F02CF8012084F8460084F80A
:103B80003E0084F83F0084F8400084F8410084F847
:103B9000420084F8430084F8440084F8450084F827
:103BA0003D00002010BD000008B50068B0F1804F56
:103BB00008D10548016841F001010160006800F08A
:103BC0000100009008BD00004038024090F83D1010
:103BD000012901D001207047022180F83D100068C2
:103BE0000E4988420ED0B0F1804F0BD00C4988426C
:103BF00008D00C49884205D00B49884202D00B49B5
:103C0000884204D1816801F00701062903D00168C8
:103C100041F00101016000207047000000000140F8
:103C20000004004000080040000C0040004001403B
:103C300090F83D10012901D001207047022180F841
:103C40003D100168CA6842F00102CA6000680E496E
:103C500088420ED0B0F1804F0BD00C49884208D07A
:103C60000B49884205D00B49884202D00A49884254
:103C700004D1816801F00701062903D0016841F0F1
:103C80000101016000207047000001400004004075
:103C900000080040000C00400040014070472DE942
:103CA000F04104460068C66805694FF00007A9079F
:103CB00013D5B10711D5F91E0161012020772068C5
:103CC00080698007204602D0FFF7E8FF04E000F09B
:103CD000C1F8204600F08CF92777680716D57007E1
:103CE00014D521686FF00400086102202077206855
:103CF000806910F4407F204602D0FFF7CFFF04E038
:103D000000F0A8F8204600F073F92777280715D5AA
:103D1000300713D521686FF0080008610420207770
:103D20002068C0698007204602D0FFF7B7FF04E093
:103D300000F090F8204600F05BF92777E80616D5EA
:103D4000F00614D521686FF0100008610820207774
:103D50002068C06910F4407F204602D0FFF79EFF24
:103D600004E000F077F8204600F042F92777E807F2
:103D700008D0F00706D021686FF0010008612046E6
:103D800000F0C8F9280608D5300606D521686FF07E
:103D9000800008612046FFF76EFE680608D57006B1
:103DA00006D521686FF040000861204600F0E7F971
:103DB000A8060AD5B00608D521686FF02000086172
:103DC0002046BDE8F041FFF757BEBDE8F081000096
:103DD00010B586B0044614216846FCF7D6FA23686D
:103DE000174C002117480222A34211D1036843F067
:103DF00001030360006800F001000590500200908C
:103E0000CDE901210120CDE9031069460E4812E0F9
:103E10000E4CA34211D1036843F002030360006813
:103E200000F00200059060150090CDE90121CDE978
:103E3000031269460648FDF7F3FF06B010BD000007
:103E400000000140303802400000024000080040FD
:103E500000040240704770B5044690F83C0000260C
:103E60000D4601280FD0012084F83C006AB1042AD5
:103E70001DD0082A2FD00C2A3FD00126002084F81C
:103E80003C00304670BD022070BD206801F00AFF82
:103E90002068816941F0080181612068816921F011
:103EA00004018161206881692A69114311E0206859
:103EB00001F020FF2068816941F400618161206880
:103EC000816921F480618161206881692A6941EA00
:103ED00002218161D2E7206801F038FF2068C169C2
:103EE00041F00801C1612068C16921F00401C1618C
:103EF0002068C1692A69114311E0206801F052FF6E
:103F00002068C16941F40061C1612068C16921F480
:103F10008061C1612068C1692A6941EA0221C161E9
:103F2000ACE710B5040003D094F83D0010B107E0F1
:103F3000012010BD002084F83C00204600F01EF84F
:103F4000022084F83D00211D206801F041FE01207F
:103F500084F8460084F83E0084F83F0084F840006E
:103F600084F8410084F8420084F8430084F8440057
:103F700084F8450084F83D00002010BD08B50168B4
:103F80001748814212D11748016841F001010160D0
:103F90000068002200F0010000900F211A20FEF7B7
:103FA0006BFBBDE808401A20FEF758BB0D480E4ACF
:103FB000001F914207D1016841F0040101600068CF
:103FC00000F0040009E0094A914207D1016841F07C
:103FD00008010160006800F00800009008BD0000C2
:103FE000000001404438024000080040000C00403E
:103FF0007047000010B50446022249B104290ED0D2
:10400000082913D094F84100012816D0012010BDD2
:1040100094F83E000128F9D184F83E200FE094F88E
:104020003F000128F2D184F83F2008E094F84000D6
:104030000128EBD184F8402001E084F841200122DE
:10404000206801F017FE12492068884203D1426CB3
:1040500042F400424264206888420ED0B0F1804FA2
:104060000BD00C49884208D00B49884205D00B4937
:10407000884202D00A49884204D1816801F00701D0
:10408000062903D0016841F001010160002010BD44
:10409000000001400004004000080040000C004007
:1040A0000040014030B504460D460068002201F092
:1040B000E1FD174B41F2111120688A10984209D195
:1040C000036A0B4206D1036A134203D1436C23F403
:1040D000004343642068036A0B4206D1016A11421F
:1040E00003D1016821F00101016001203DB1042DDF
:1040F00008D0082D09D084F84100002030BD84F894
:104100003E00FAE784F83F00F7E784F84000F4E760
:104110000000014000680349884201D1FEF71ABA45
:10412000704700000048014070B5044690F83C001C
:10413000012812D0012584F83C50022084F83D006B
:10414000204601F051FE01004FF0000007D084F836
:104150003D5084F83C00012070BD022070BD2168F4
:10416000CA6822F04002CA602168CA6822F480420C
:10417000CA6084F83D5084F83C00002070BD704750
:10418000FEE700001A4E4FF47A744FF4806500BFCA
:104190002BF01CF8FDF794FA03200AF0F1FA2246FE
:1041A00014491548FDF726FC1448FFF70FFD0821B8
:1041B0001348FFF71FFF00F07FFAFCF7E8FE08B98D
:1041C000FCF71AFF002229463046FDF726FF0AF0C9
:1041D0001BFC0C48FFF7FAFC17F036F91DF0E8FC61
:1041E00029F0C4FE2BF0B8FD00202AF021FFCFE714
:1041F0000004024088050020E8120020E41400209A
:104200009C1400207415002001684A69D2435205AD
:104210000FD46FF480624A61002140F8301F2022E1
:1042200042738173026942F004020261017301204A
:1042300070470020704700002DE9F84F04460068E1
:1042400089460B9D01689846174641F480610160DC
:104250002068016841F48071016000954FF0011BF6
:104260000022594620460A9B00F0E4F84FF4007AF9
:1042700040B120680068C00501D5C4F840A0032003
:10428000BDE8F88F216809F0FE0008612B46284937
:1042900020460A9A00F016F9F0BB2068416980694F
:1042A00000902A4620460A9900F0A2F940B1206CFD
:1042B00004283AD12068016841F40071016034E0BB
:1042C000FEB2B8F1010F09D02168380A08612A4608
:1042D00020460A9900F08CF90028E8D12068066190
:1042E0002A4620460A9900F083F90028DFD1206889
:1042F000016841F480710160009500225946204612
:104300000A9B00F097F80028B3D1216809F0FF005C
:1043100040F00100086100E007E02B460449204618
:104320000A9A00F0CFF80028AAD00120A8E70000E0
:10433000020001002DE9F843044600680D46DDE95E
:10434000089701689846164641F4807101604B4613
:1043500000224FF001112046009700F06BF848B1A1
:1043600020680068C00502D54FF400702064032067
:10437000BDE8F883216805F0FE0008613B464A4627
:104380001549204600F09EF888B920684169806987
:1043900000903A464946204600F02AF948B1206C80
:1043A000042804D12068016841F4007101600120F3
:1043B000DEE7F5B2B8F1010F09D02168300A0861D3
:1043C0003A464946204600F013F90028E7D1206814
:1043D00005610020CCE700000200010070B5164620
:1043E0000D4604461EE02046FFF70EFF08B10120EF
:1043F00070BD681C16D0FDF715FE801BA84200D8C2
:1044000085B920684069C04340070BD5002044F8B7
:10441000300F20216173A073216941F020012161D7
:104420002073E4E720684069C0434007DBD40020E4
:1044300070BD00002DE9F047984617460D4604462A
:10444000C1F30746DDF820902AE000BFB8F1FF3F36
:1044500026D0FDF7E7FDA0EB0901414502D8B8F1F0
:10446000000F1DD12068012E16D0806925EA0000BA
:104470000004000C12D00020B84211D1002044F8F2
:10448000300F20216173A073216941F02001216167
:1044900020730120BDE8F0874069E7E70120EBE7E2
:1044A0002068012E0AD0806925EA00000004000C73
:1044B00006D00020B842C9D00020EBE74069F3E7FE
:1044C0000120F7E72DE9F047984616460D460446C9
:1044D0004FF000094FF0200AC1F3074723E020689E
:1044E0004069C043400515D42068016841F400715B
:1044F000016021686FF480604861C4F8309084F8EE
:104500003DA084F83E90216C41F00401216484F8C0
:104510003C9021E0701C06D0FDF784FDA0EB080064
:10452000B04203D816B1012F1FD021E02068012F1F
:1045300015D0806925EA00000004000C18D000BFE7
:1045400044F8309F84F80DA084F80E90216941F062
:104550002001216184F80C900120BDE8F0874069BA
:1045600025EA00000004000CEAD12068406901E05F
:104570002068806925EA00000004000CAFD1ECE758
:104580002DE9F041002590460E460446202728E0FC
:104590004069C043C0060CD454F8301B6FF01000C3
:1045A000486144F810596777A577206A206225771B
:1045B00014E0FDF737FDA0EB0800B04200D886B943
:1045C00020684069C04340060BD544F8305F6773EC
:1045D000A573206940F02000206125730120BDE80B
:1045E000F08120684169C9434906D1D40020F6E72B
:1045F00070B516460D4604461EE02046FFF704FE41
:1046000008B1012070BD681C16D0FDF70BFD801BA2
:10461000A84200D885B920684069C04300060BD580
:10462000002044F8300F20216173A073216941F00C
:10463000200121612073E4E720684069C04300063F
:10464000DBD4002070BD0000F0B500230A24302523
:1046500037261F4611E000BFB4EB107F02D905EBEF
:10466000107C01E006EB107C01F813C001EB430C59
:1046700000015B1C8CF80170DBB29342ECD3F0BDFF
:1046800008B50C4C684600F087F878B10123002289
:104690006946206821F00AFC01F000FA30B104F00C
:1046A00003FE322021F062FB04F0F8FD0A2021F025
:1046B0005DFBE7E73400002030B587B08C2122484D
:1046C000FBF763FE204C00250C3C1421C4F89850E5
:1046D0006846C4F89C50FBF758FE1C48016841F03E
:1046E000010101600068694600F0010005901F208B
:1046F000CDE900050120164D02902846FDF790FBFC
:10470000002301222946184600F024F80023022243
:104710002946012000F01EF8002308222946022025
:1047200000F018F8002304222946032000F012F8B4
:10473000002310222946042000F00CF80E202070DF
:104740001220A06007B030BD9C020020303802402B
:104750000000024070B505280BD251B10D4CC0EBE2
:10476000C00004EB800444F80C1FA2801BB10120A0
:1047700002E0002070BD0020A0710120E071002542
:104780002572657221F0FFFAE060257465610120F1
:10479000A56170BD900200202DE9F05F04007DD07E
:1047A00021F0F1FA4FF00008DFF84891054646463F
:1047B0004FF0010BC6EBC60109EB8107F87C0C3703
:1047C000B8B1B98897F806A03868FDF719FCBAF1B6
:1047D000000F02D0012802D000E0B8B30020397ADF
:1047E000814201D03872FD6018B10BFA06F040EA40
:1047F0000808761CF6B2052EDCD300204946064692
:10480000C9F89880C0EBC00201EB8202D37C0C3265
:104810006BB3D3684F88EB1ABB4228D3137A577A0D
:104820009F4224D05372002BD1F89C700BFA00F3F6
:104830000FD01F43C1F89C705561956116740A78BA
:10484000D20714D0207084F801B049E0FFE70120BE
:10485000C5E79F43C1F89C700B78DF0702D020703A
:1048600002203CE09B0701D5137CDBB11674401C91
:10487000C0B20528C6D30020C0EBC00201EB820203
:10488000D37C0C327BB3537A6BB38E680BFA00F394
:104890005F461E4228D05369EB1A00E028E0167CE0
:1048A0002EB111E0207003206070167418E08E881D
:1048B0009E4219D817740B7813F00C0F04D0207097
:1048C0000420607095610BE00B781B070CD5936991
:1048D000CE88EB1AB34207D3956120700520607033
:1048E0000120BDE8F09FFFE7401CC0B20528C3D3FC
:1048F0000020F6E7900200202DE9F04104461D4615
:1049000016460F462A2000F0D5F920460E4C617855
:10491000084480B200F0BEF96078304480B200F004
:10492000B9F92B2000F0C6F9A078384480B200F025
:10493000B1F9A078284480B200F0ACF9BDE8F041AC
:104940002C2000F0B7B900008C02002002490020A2
:104950000968C863704700009C1400202DE9F041ED
:104960001C4616460D460746DDF81880FFF7C4FFC3
:10497000F01B611B401C491C48430B490A68136823
:1049800023F0400313600A68136843F40063136064
:1049900009680A6842F040020A604146BDE8F041F9
:1049A00082B20148FEF7E0BFE41300202DE9F04792
:1049B00080461F46581E83B21646501E82B20C46D1
:1049C0004046DDF82090FFF797FF0AE0454604E0F7
:1049D000484600F05FF96D1CADB2B542F8D3641CD7
:1049E000A4B2BC42F2D3BDE8F0870000F0B587B0B6
:1049F00014216846FBF7C9FC1848016841F0020120
:104A00000160016801F002010591016841F00201B5
:104A1000016000684FF4805600F002000590012408
:104A20000F4FCDE900640325694603953846FDF72D
:104A3000F7F9012231463846FDF7EFFA2E02CDE9AB
:104A40000064084C694603952046FDF7E9F9012208
:104A500031462046FDF7E1FA07B0F0BD303802409C
:104A6000000402400000024070B5FFF7BFFF0022C3
:104A70004FF480716648FDF7D0FA664D4FF48054CC
:104A8000002221462846FDF7C8FA6420FDF7B6F952
:104A9000012221462846FDF7C0FA6420FDF7AEF951
:104AA000112000F007F97820FDF7A8F95A4800789E
:104AB00000F0B4F83A2000F0FDF8552000F010F9AD
:104AC000B22000F0F7F80C2000F00AF90C2000F0FA
:104AD00007F9002000F004F9332000F001F9332039
:104AE00000F0FEF8B72000F0E5F8352000F0F8F807
:104AF000BB2000F0DFF8192000F0F2F8C02000F031
:104B0000D9F82C2000F0ECF8C22000F0D3F80120F6
:104B100000F0E6F8C32000F0CDF8122000F0E0F835
:104B2000C42000F0C7F8202000F0DAF8C62000F01A
:104B3000C1F80F2000F0D4F8D02000F0BBF8A62078
:104B400000F0CEF8A12000F0CBF8E02000F0B2F8A1
:104B5000D02000F0C5F8042000F0C2F80D2000F0CD
:104B6000BFF8112000F0BCF8132000F0B9F82B209A
:104B700000F0B6F83F2000F0B3F8542000F0B0F891
:104B80004C2000F0ADF8182000F0AAF80D2000F03D
:104B9000A7F80B2000F0A4F81F2000F0A1F82320B4
:104BA00000F09EF8E12000F085F8D02000F098F8A1
:104BB000042000F095F80C2000F092F8112000F08D
:104BC0008FF8132000F08CF82C2000F089F83F209B
:104BD00000F086F8442000F083F8512000F080F8BF
:104BE0002F2000F07DF81F2000F07AF81F2000F041
:104BF00077F8202000F074F8232000F071F82120CD
:104C000000F058F8BDE87040292000F053B80000CB
:104C100000000240000402408C02002010B504464F
:104C2000362000F047F80F4900223CB15A2C0DD035
:104C30005023B42C06D0B4F5877F0BD04A701046B1
:104C40008A700AE04A708B70C02006E04A708A7051
:104C5000702002E04B708A70A020BDE8104000F088
:104C60003FB800008C020020014908607047000036
:104C700088020020411F5F2909D84FF4967110FB6C
:104C800001F06421B0FBF1F001490968C863704785
:104C90009C14002008B5010A8DF800108DF8010061
:104CA0000123022269460248FEF7AAFD08BD000062
:104CB000E413002070B5094D06464FF4007400223D
:104CC00021462846FDF7A9F9304600F009F82146AB
:104CD0002846BDE870400122FDF79FB90000024060
:104CE00001B501231A4669460148FEF789FD08BD52
:104CF000E413002008B5084C01230022694620680F
:104D000021F076F810B9684617F094FE20F022F9E9
:104D1000012021F02BF8EFE7340000207FB50021BF
:104D20002F480091019102912C4A039102600125C4
:104D30004FF480320561C0E90121017680F820102E
:104D40001203C26205244FF0C062C4618262C16076
:104D500080F830504561FCF7C6FD08B1FCF7ACF9AE
:104D6000CDE90045022569461D480295FCF7FCFC8B
:104D700008B1FCF7A1F90620CDE9000569461848FD
:104D8000FCF7F2FC08B1FCF797F90720009003202C
:104D9000019069461248FCF7E7FC08B1FCF78CF972
:104DA000082000900420019069460D48FCF7DCFCC7
:104DB00008B1FCF781F90920CDE9000469460848EB
:104DC000FCF7D2FC08B1FCF777F9054848300068D9
:104DD000016841F0100101607FBD0000002001402A
:104DE000E8120020114808B5016841F40011016083
:104DF000016801F400110091016841F48001016033
:104E00000068002200F48000009006210F20FDF7CA
:104E100033FC0F20FDF722FC002205213820FDF78E
:104E20002BFCBDE808403820FDF718BC30380240A4
:104E300010B502F0FBFD044A0021044821F06AF895
:104E40000349086010BD0000E8FF0208515A00083D
:104E5000000000202DE9F04186B014216846FBF7E0
:104E600094FA27480024016841F0040101600168B8
:104E700001F004010591016841F0800101600168C1
:104E800001F080010591016841F0010101600168B4
:104E900001F001010591016841F002010160006823
:104EA000184F00F002004FF40055059000222946EB
:104EB0003846FDF7B2F8DFF85080EE100022314698
:104EC0004046FDF7AAF800950125CDE90154694651
:104ED00038460394FCF7A4FF0096CDE901546946D7
:104EE00040460394FCF79CFF1020CDE9000469467E
:104EF00040460294FCF794FF06B0BDE8F081000044
:104F00003038024000080240000402400D4810B54D
:104F10000B4901600C49416000214FF480428160DF
:104F2000C0E9031241618161C1610162FDF780F84E
:104F3000002803D0BDE81040FCF7BEB810BD00004B
:104F40000054004090130020A0860100104810B5C6
:104F50000E4901604FF4827141600021022281609C
:104F6000C0E90312012242615202C0E90621016236
:104F7000416281620A21C162FEF791FB002803D0E1
:104F8000BDE81040FCF798B810BD000000380040A4
:104F9000E413002010B592B000240F941C2108A83F
:104FA0001094FBF7F2F920216846FBF7EEF9204850
:104FB0001E4901605F21C0E901144FF49671C0E9F8
:104FC000031444618461FEF7ACFF08B1FCF774F888
:104FD0000F940FA916481094FEF77AFD08B1FCF75C
:104FE0006BF86020CDE908040A940B940C940D949E
:104FF000082208A90E480E94FEF72DFF08B1FCF711
:105000005BF800944FF40050CDE904400294019401
:105010000394694606480794FEF72FFD08B1FCF794
:105020004BF80348FEF7D4FE12B010BD000001405B
:105030009C14002010B588B014216846FBF7A5F930
:105040000024144805944FF08041069401605F21CC
:10505000C0E901146321C0E9031480218161FEF7D6
:1050600075FD08B1FCF728F80094694609480194D9
:10507000FFF75AF808B1FCF71FF82020CDE9050426
:1050800005A90448FEF724FD002801D0FCF714F818
:1050900008B010BDE414002010B58AB000240794B5
:1050A0001C2168460894FBF770F917481549016000
:1050B0005F21C0E901144FF4FA71C0E9031484615F
:1050C000FEF72FFF08B1FBF7F7FF079407A90E487B
:1050D0000894FEF7FDFC08B1FBF7EEFF602000909E
:1050E000FA20CDE901040C22694607480494FEF732
:1050F000B2FE08B1FBF7E0FF0348FEF769FE0AB015
:1051000010BD0000000800402C15002010B58AB02A
:10511000002407941C2168460894FBF736F91548CB
:10512000134901605F21C0E90114611EC0E9031445
:105130008461FEF7F6FE08B1FBF7BEFF079407A9EE
:105140000C480894FEF7C4FC08B1FBF7B5FF6020DB
:10515000CDE9000402940022694606480494FEF753
:105160007AFE002801D0FBF7A7FF0AB010BD0000AF
:10517000000C00407415002010B500220F491048A3
:1051800001F0D0FA08B1FBF797FF0E490C4801F087
:10519000E0FC08B1FBF790FF0B49094801F064F807
:1051A00008B1FBF789FF064801F056FD002803D03F
:1051B000BDE81040FBF780BF10BD00006C0400206C
:1051C00008D3012028050020BC040020FEE70000D1
:1051D0004FF4FA740AF0CEFBA8B1002024F0C2F913
:1051E0000120FBF74BFF6420FCF708FEBFF34F8F55
:1051F00007480168074A01F4E06111430160BFF309
:105200004F8F00BFFDE7204620F0B0FDE2E7000031
:105210000CED00E00400FA0508B50A4800231A4620
:105220006946006820F0E4FD20B99DF8000018B13F
:10523000012803D0002008BD012008BD4FF0FF3039
:1052400008BD00003C000020FEE700000148FDF71B
:1052500091BB000004EA01202DE9F04103680D46EE
:1052600004461E6C03EB4511D1F8080B94F806E0D8
:105270004FF400474FF0200C04F29C42BEF1010FA6
:1052800009D0DFF898E0764539D1020432D500BF65
:10529000C1F8087B3FE0224B5FEA007E04D59E42C6
:1052A00039D90004F4D436E05FEA806E02D5C1F843
:1052B00008CB30E010F0280F2DD19E4201D9000418
:1052C000E6D405EBC50004EB8000D1F8101BD0F844
:1052D0007432C1F31201591AC0F8681200F5157042
:1052E000ADB903691BB1C2681144C1600FE001216F
:1052F00020680AE080060AD5C1F808CB07E035B976
:10530000D4F8640218B90021184602F01FF8E9B277
:105310002046FDF717FA0020BDE8F0810A31544F0E
:105320000A30544F2DE9F84F0E4601EBC60100EB51
:10533000810481460568D4E909101434884202D9F1
:105340000120BDE8F88F081AA168814200D2084602
:10535000C01C870805EB46181BE000BFA0EB010A44
:10536000A068504500D282460AF10300870899F8E8
:10537000060000901FFA8AF3F2B22846E16802F0B4
:1053800023FBE16801EB0A00E060616901EB0A00C0
:105390006061D8F8180980B2B84205D3D4E9040195
:1053A000814201D20028D9D1D4E90401884208D829
:1053B00006F00F0101208840D5F834188143C5F864
:1053C00034180020BDE700002DED028B002384B0CF
:1053D0001A460121554820F0EBFD554D554FDFF899
:1053E00058914FF480680026686000231A4601A98E
:1053F000386820F0FDFC002876D1287800289DF838
:10540000040004D0012827D002282CD06EE0002808
:1054100028D1012241464846FCF7FFFD474800F0ED
:105420001FF90021454800F053F900231422FA2106
:10543000424800F031F924F081F8686820F0AFFDAF
:1054400010B1686820F009FE4FF47A71686820F0A6
:10545000EBFD0120287049E0002241464846FCF758
:10546000DCFD2E705DE0DDED020AF5EEC00AF1EE26
:1054700010FA3BDD9DED030AB5EEC00AF1EE10FA1D
:1054800034DD10EE900A2E4988422FDC10EE100A0F
:105490002C4988422ADCF3EE040A20EE200A10EEA2
:1054A000100AFBF79AF99FED288B53EC182BFAF7AB
:1054B0009EFFFBF761F99DED020ADFED250AC4B2FC
:1054C00020EE200A10EE100AFBF787F953EC182B98
:1054D000FAF78DFFFBF750F981B2002322461748F7
:1054E00000F0DAF824F02AF82878D0B109F0CCFAE4
:1054F00020B910214846FCF783FD90B98DF8006073
:10550000002403E0641CE4B2032C05D26946114870
:10551000FBF7D4FD0028F5D19DF8000008B10AF092
:105520005BFB012020F022FC5FE70000498D0008B2
:10553000400000203800002000040240C016002077
:105540000000A0410000A0407B14AE47E17A843FF8
:10555000000048426C16002010B50C4600220721BE
:1055600009F0FAFA208010BD22F033BCD8B390F8CD
:1055700030308B4238D9B2B300EB81004FF00001DC
:105580004069830F137006D0012B08D0022B11D075
:10559000032B19D11AE05180C0F389230FE0C0F327
:1055A00089235380C0F309539380D180C0F309004D
:1055B000108109E0C0F389235380C0F3095393801D
:1055C000C0F30900D080118101207047C0F3474328
:1055D0005B009380C0F307235B0000F07F005380E3
:1055E00000EB8000EEE7FFE700207047F8B50546C6
:1055F0001E4617460C46684620F06FFDEC80E00B17
:1056000008D09DF80000102800D9102000EB4000C1
:10561000114913E09DF8030000289DF8000007D011
:10562000102800D910200C4900EB4000CC3905E0CF
:10563000172800D91720094900EB400001EB800032
:105640002860D0F804C0BCF1000F04D033463A46BD
:1056500021462846E047F8BDA04C0608B44A060893
:1056600010B504463421FAF790FE0148206010BDC1
:10567000B44A060802490160002101727047000027
:10568000B44A060830B1036823B19B6813B109B16D
:1056900002B11847002070472DE9F04104464089C7
:1056A0000E461F461546B04202D1207BA8420DD0BF
:1056B000204608F0F9FC7F1E50EA070106D06681FB
:1056C000257384F831000120BDE8F0810020FBE75C
:1056D00010B54174002141810446017390F83000F7
:1056E000002806D00A46204608F0DEFC84F8310087
:1056F000012010BD2DE9F35F40F2C72011FB00F03F
:1057000061494718AA20387055207870FCF722F8B4
:10571000C7F80200C7F806106420B872FCF714F846
:10572000DFF868910446254699F802004FF0000A18
:1057300038B189F802A089F800A089F801A0BDE875
:10574000FC9F0026009806EB860100EB4102012C2D
:1057500010885388B2F804B0B2F806E0128904D079
:10576000022C18D0032C51D13DE0991A40F63E7C12
:1057700001F29F7161450BD999F80010491CC9B21B
:1057800089F8001008292BD3022589F801A05AE0D6
:1057900089F800A024E0ABEB020101F29F7840F60B
:1057A0003E7CE045C8460CD998F800C00CF1010CCD
:1057B0000CF0FF0C89F800C0BCF1080F03D30325DF
:1057C00001E089F800A00E311C2909D898F80110D1
:1057D000491CC9B289F80110082917D3012532E004
:1057E00089F801A012E0AEEB02010E311C2909D8A4
:1057F00099F80110491CC9B289F80110082903D38E
:10580000022501E089F801A089F800A0A5421AD17B
:105810000021012C04D0022C04D0032C05D103E07C
:10582000194602E0594600E07146C6EBC6033B4408
:10583000DC729881D9811A822346FBF743FB761CE0
:10584000642EFFF67FAFBE72A54209D0284608F04D
:1058500097FF012189F8021089F800A089F801A0BA
:1058600040F2C7213846FBF76BFAD9F80400401C18
:10587000C9F804001928FFF462AFC9F804A0BDE814
:10588000FC5FFBF7D1BA0000580D00200400002097
:1058900010B5806B01684A6822F003024A60416DCE
:1058A00041F010014165012180F85110FDF7F6FE2D
:1058B00010BD10B5806BFEF7DDF810BD38B505469C
:1058C000846BFCF7AFFB024628680068C00523D450
:1058D0002068416821F0200141602068416821F082
:1058E000020141606421204600F01AF818B1606D91
:1058F00040F020006065A068002118B92068C268E7
:1059000080680090E186012084F85100606D18B134
:105910002046FDF7C3FE38BD2046FEF78BF838BDA4
:10592000F8B515460E460B460092044601220221A8
:1059300000F02CF8A0B9134813490068B0FBF1F04F
:105940004FF47A71484300906068B0F5827F0DD1C2
:105950003346002280212046009500F017F870B1F0
:10596000606D40F0200060650320F8BD009830B104
:10597000401E009020688068C0430006F6D50020D5
:10598000F8BD00003803002000366E012DE9F84311
:105990001E46914688460446089DFCF743FB401B83
:1059A000351AFCF73FFB074625480068C0F3CB30AB
:1059B000684338E0701C37D0FCF734FBC01BA842AA
:1059C00003D215B1009860B32CE02068416821F043
:1059D000E00141606068B0F5827F0BD1A068B0F54E
:1059E000004F02D0B0F5806F04D12068016821F02B
:1059F00040010160A06AB0F5005F09D1206801682C
:105A000021F4005101602068016841F400510160F7
:105A1000012084F85100002084F850000320BDE8E4
:105A2000F8830025401E00902068816838EA010054
:105A300004D000214945BDD10020F0E70121F9E75C
:105A4000380300200178407841EA002070470000C8
:105A5000FFF792FB064D4FF400544FF4FA762146BF
:105A60002846FCF7D2FA304620F080F9F7E700002C
:105A70000008024010B54FF0E02000692AF06CF8F1
:105A8000012803D0BDE8104029F02CBD10BD000056
:105A90000148007870470000320300200148407838
:105AA00070470000320300200148807870470000F2
:105AB0003203002001488088704700003203002034
:105AC000642803D802490870FFF7D4B87047000073
:105AD00032030020024900B10120487070470000E5
