:020000040800F2
:1000000030B1012059030008B74C000845420008F0
:10001000B54C0008591A0008E55700080000000018
:10002000000000000000000000000000990200082D
:10003000C91B000800000000F5020008494F000835
:1000400073030008730300087303000873030008B8
:1000500073030008730300087303000873030008A8
:100060007303000873030008730300087303000898
:100070007303000873030008730300085D1A000887
:1000800073030008730300087303000800000000F6
:1000900000000000000000000000000073030008E2
:1000A0007303000873030008095000087303000875
:1000B0007303000873030008730300087303000848
:1000C0007303000873030008730300087303000838
:1000D00073030008730300087303000800000000A6
:1000E0007303000873030008730300080000000096
:1000F0000000000000000000000000007303000882
:100100000000000073030008730300087303000875
:1001100000000000000000000000000000000000DF
:10012000691A0008E91A000873030008730300083D
:100130007303000800000000000000000000000041
:100140000000000000000000000000007303000831
:1001500073030008F51A000873030008AD57000880
:100160007303000873030008000000000000000093
:10017000000000000000000000000000000000007F
:1001800000000000730300080000000000000000F1
:10019000730300087303000800F002F800F06DF824
:1001A0000AA090E8000C82448344AAF10107DA45D2
:1001B00001D100F062F8AFF2090EBAE80F0013F0B7
:1001C000010F18BFFB1A43F001031847282303004F
:1001D000482303000A444FF0000C10F8013B13F0D1
:1001E000070408BF10F8014B1D1108BF10F8015B90
:1001F000641E05D010F8016B641E01F8016BF9D183
:1002000013F0080F1EBF10F8014BAD1C0C1B09D1D9
:100210006D1E58BF01F801CBFAD505E014F8016B4B
:1002200001F8016B6D1EF9D59142D6D370470000DD
:100230000023002400250026103A28BF78C1FBD8EF
:10024000520728BF30C148BF0B60704766292AF0AB
:100250008686002070471FB52AF077FE9DE80300D0
:1002600000F0ECFA00F074FD0400002000212AF0F8
:10027000ABF9E0601FBD10B510BD00F087FE114660
:10028000FFF7E9FF21F00AFD00F0A5FE03B4FFF738
:10029000F2FF03BC00F016FF2C4B19680868B0E8A9
:1002A000F04F80F30988BFF36F8F4FF0000080F3A9
:1002B000118870470000000008480068006880F35B
:1002C00008884FF0000080F3148862B661B6BFF36F
:1002D0004F8FBFF36F8F00DF00BF00BF08ED00E05E
:1002E000DFF80C00016841F470010160704700BF45
:1002F00088ED00E0EFF30980BFF36F8F134B1A68AE
:100300001EF0100F08BF20ED108A20E9F04F10609A
:1003100009B44FF0500080F31188BFF34F8FBFF343
:100320006F8F29F09FFA4FF0000080F3118809BC0D
:1003300019680868B0E8F04F1EF0100F08BFB0EC65
:10034000108A80F30988BFF36F8F7047A4000020E4
:10035000EFF30580704700000948804709480047CF
:10036000FEE7FEE7FEE7FEE7FEE7FEE7FEE7FEE765
:10037000FEE7FEE704480549054A064B70470000C2
:10038000F94F00089901000830AB012030B101207D
:1003900030AD012030AD012070B5064600F032FAD4
:1003A000056806F10B0020F00704B4429CBF002052
:1003B00070BD2B466A68BAB11068A04210D304F130
:1003C000080188423CBF5068586007D35168101933
:1003D00041601168091B016058601460101D70BDF8
:1003E00013465268002AE7D12146284600F012FA47
:1003F0000028DED170BD70B50446051F00F002FA7A
:100400000068002C14BF446870BD002C18BFAC42BB
:100410003CBF20466468F8D301680A18AA4218BF96
:10042000456003D12A6805461144016028684119D6
:10043000A1421CBF6C6070BD61686960216808449E
:10044000286070BD53EA020C00F069802DE9F04B82
:100450004FF00006002B1FBFB3FA83F503FA05F433
:1004600024FA05F65E4012BF1643B2FA82F502FA8C
:1004700005F4C5F120051EBF22FA05FC44EA0C0470
:10048000203556EA044C4FEA144418BF641C4FF060
:1004900000084FF00009904271EB030C39D300299A
:1004A00019BFB1FA81F701FA07F6B0FA80F700FA3E
:1004B00007F6C7F120071EBF20FA07FC46EA0C0624
:1004C0002037B6FBF4FCA7EB0507103F07F01F0B26
:1004D000CBF120060CFA0BFB2CFA06F644BFB34610
:1004E0000026202FA4BF5E464FF0000B5BEA060CEF
:1004F00008BF4FF0010B19EB0B09ABFB027C48EB7B
:100500000608C01B06FB02CC0BFB03CC71EB0C01F5
:10051000C1E70B46024641464846BDE8F08B13B59D
:100520004FF000004FF00001AFF30080BDE81C4029
:10053000704710B54C1084EA530404D54042C1F111
:10054000000138BF491E1B4204D55242C3F10003CB
:1005500038BF5B1EFFF776FF14F0804F04D0404297
:10056000C1F1000138BF491E14F0004F04D05242BF
:10057000C3F1000338BF5B1E10BD00000FB41CB5F3
:10058000074B06AA7B4469460090059800F0A1FB42
:100590000020694600F0B0FB1CBC5DF814FB0000B5
:1005A000710700002DE9F0474FF0000A8946044624
:1005B000C0F820A02046E1688847002876D025288A
:1005C00006D0D4E901219047206A401C2062F1E75F
:1005D000E168204600258847C4F81CA0064600278D
:1005E000C4F818A02A2E09D0304605F0D0F938B347
:1005F00004EB8708303EC8F8186019E059F8041B6E
:10060000204604EB87029161E1688847012F064686
:1006100018D1E069002820DA25F020051DE0D8F87F
:10062000180000EB800006EB40003038C8F81800D6
:100630002046E1688847064605F0A9F90028EED172
:10064000012F0AD02E2E08D12046E16888477F1C52
:100650000646022F45F02005C4DBA069002803DA16
:10066000404245F00105A061E80701D025F01005E2
:10067000B6B1A6F14100192802D8203645F400652C
:100680004A463146204625604D46FFF7DFFD58B10A
:10069000012806D0ED1D25F0070000F1080989E7C3
:1006A00004E005F1040985E730468AE7206ABDE8E1
:1006B000F087032A40F2308010F0030C00F0158020
:1006C00011F8013BBCF1020F624498BF11F801CB55
:1006D00000F8013B38BF11F8013BA2F1040298BFBA
:1006E00000F801CB38BF00F8013B11F0030300F024
:1006F0002580083AC0F0088051F8043B083A51F8C8
:1007000004CBA0E80810F5E7121D5CBF51F8043BCC
:1007100040F8043BAFF30080D20724BF11F8013B3F
:1007200011F801CB48BF11F8012B24BF00F8013BA1
:1007300000F801CB48BF00F8012B704710B5203AF4
:10074000C0F00B80B1E81850203AA0E81850B1E88A
:100750001850A0E81850BFF4F5AF5FEA027C24BF40
:10076000B1E81850A0E8185044BF18C918C0BDE837
:1007700010405FEA827C24BF51F8043B40F8043B00
:1007800008BF7047D20728BF31F8023B48BF11F8B5
:10079000012B28BF20F8023B48BF00F8012B70470F
:1007A00002F0FF0343EA032242EA024200F0ABBA3E
:1007B0004FF0000200B5134694469646203922BFFA
:1007C000A0E80C50A0E80C50B1F12001BFF4F7AF45
:1007D000090728BFA0E80C5048BF0CC05DF804EB27
:1007E000890028BF40F8042B08BF704748BF20F895
:1007F000022B11F0804F18BF00F8012B7047704793
:100800007047704700487047D4AA0120704770476E
:100810007047704738B504460A4600206946AFF372
:100820000080002808BF38BD02460099204600F02D
:1008300093FA012038BD012000F0A0BBF8B5AFF35A
:100840000080054600200C46102000BF0646A8196F
:10085000A0420DD9324669460020AFF30080070060
:1008600008BF00F08BFB0098A04218BF0546C419D2
:10087000FFF7C8FF05600746F01D20F00700461986
:10088000284600F00AF8B44208BFF8BDA21B314662
:100890003868BDE8F84000F05FBA00210160C0E9A7
:1008A000011070471020704770472DE9FF4F0C462C
:1008B0001E464FF0FF378BB0D2E90001DDF86080B3
:1008C0000A908A46C1F30A5505B93D4600210846FB
:1008D0004FF00000BAF1000F00F4400005DA00EB21
:1008E00080004FF4400101EA50004FEA9059B9F1FD
:1008F000010F00DDB9460A9850EA4A000ED044F6CE
:100900001050A5F2FF3545432F14B8F1000F1ED04B
:100910007542291E1EDDC9F100021CE0B8F1010F6D
:100920004FF0000001D0302103E0F24305E02154F4
:10093000401CB042FBDB30460022002121540B99C1
:10094000C1F80880C1E900200FB0BDE8F08FBD1BE1
:100950006D1CDEE74A4600DA694206A800F09CFA00
:1009600006AB93E8070003AB83E8070050460A99FB
:1009700000F0CEFB8DE80700A0F500501F38009076
:100980000398002D0ADD42F21F014A460844002365
:1009900003A90390684600F037FE09E0A0F5005077
:1009A0004A461F38002303A90390684600F041FE21
:1009B0008DE807000004000C03D04FF0FF30410821
:1009C00000E01046B8F1000F03D000220092154657
:1009D0001EE0751E05D400F0D9F9303262556D1E47
:1009E000F9D5B3460122084302D000227F1C04E05F
:1009F0002078302801D100227F1E002A099784D058
:100A00001DE0112D07DA00F0C1F9303262556D1C7E
:100A100050EA0102F5D1084302D00098C8B10EE0B7
:100A20000021681E05E0235C625C63542254401E72
:100A3000491C8142F7DBAB46A81B401E09900020F1
:100A400004F80B000B98099AC0F80880C0E9002B45
:100A50007AE711264FF0000857E72DE9F04F884656
:100A60000446D21D22F0070191B0D1E90001CDE981
:100A70000A0104F0E9FE02460B98C00F01D02D20B8
:100A800007E02068810701D52B2002E0202101EA40
:100A9000C000032A099001D0072A05DB034641461E
:100AA000204600F0B9F90BE12078800601D5E06915
:100AB00000E00620B8F1650F814606D0B8F1660F58
:100AC00018D0B8F1670F70D131E00020B9F1110FE3
:100AD000009001DB112301E009F101030AAA01A939
:100AE0000CA8FFF7E2FEDDE90C70002609F1010514
:100AF000834647E001204B4600904FF000470AAA8A
:100B000001A90CA8FFF7D1FEDDE90DB00C995D46F7
:100B1000002610B909F101000D18B9EB050003D446
:100B2000C0F1FF3609F10105A5EB09002BE0B9F191
:100B3000010F01DA4FF001090020B9F1110F009007
:100B4000484601DD112300E003460AAA01A90CA8CA
:100B5000FFF7ABFEDDE90C704D460026834620789A
:100B600000070AD4AB4500DA5D4601A8012D04DD7B
:100B7000411911F8011C302907D04F4502DA17F14D
:100B8000040F04DA012082460FE06D1EEEE7002F0D
:100B900002DCED1B3E4403E0781CA84200DD7D1C16
:100BA000B81B00F1010A4FF000472078000703D47A
:100BB000AA4501DB4FF0FF3A0021B7F1004F0DF1DC
:100BC00043088DF8431024D002202B23002F01DA94
:100BD0007F422D230A21021EA0F1010000DC5FB13B
:100BE00097FBF1FC97FBF1F201FB1C7C17460CF123
:100BF000300C08F801CDEEE7A8F101000370218860
:100C0000090501D5452100E06521A0F1010800F8A2
:100C1000011C09980FA9A1EB0807FF1D00B10120D5
:100C2000411901EBEA70A1693844081A401EA0611D
:100C30002078C00602D42046AFF30080099828B17E
:100C4000D4E901219047206A401C20622078C00628
:100C500022D52046AFF300801EE0002E04DBB34512
:100C600002DD01A8805D00E03020D4E90121904739
:100C7000206A401C2062761CAAF101005FEA000A8B
:100C80000AD100F065F8C0680168405CD4E9012130
:100C90009047206A401C2062281EA5F10105DCDC7B
:100CA00007E0D4E9012118F8010B9047206A401CA5
:100CB0002062381EA7F10107F3DC2046AFF3008065
:100CC000032011B041E6000001694A1C0261087866
:100CD000704700B58FB0CDE901310021059105497C
:100CE0007944CDE9031011466846FFF75BFC0FB06D
:100CF00000BD0000E5FFFFFF0A6802F8010B0A6073
:100D000070474FF000020429C0F0128010F0030C6D
:100D10003FF450ADCCF1040CBCF1020F18BF00F849
:100D2000012BA8BF20F8022BA1EB0C01FFF742BD5D
:100D30005FEAC17C24BF00F8012B00F8012B48BFFB
:100D400000F8012B7047000000487047CCAA012032
:100D500000487047ECAA0120034640688C460028F2
:100D600018BF88423CBF03464068F8D3186818444F
:100D7000884207D00CF1030020F00700001D411A43
:100D8000521A0146081D0A60FFF735BB30B5B0F1B5
:100D90000A024FEA900E71F100034EEA817EB0EB39
:100DA0000E0061EB91014FEA101E4EEA017E10EB3E
:100DB0000E0041EB11114FEA102E4EEA016E10EBBE
:100DC0000E0041EB11214FEA104E4EEA014E10EB9E
:100DD0000E0041EB1141401841F100014FEAD000F3
:100DE00040EA41704FEAD10110EB80054FEA8104DF
:100DF00044EA907444EB01046D1944EB0404521B63
:100E0000A3414FF0000348BF0A3200D530BD401C5B
:100E100041F1000130BD00002DE9F0411F460446BC
:100E200003260168072A01F4006004DB08B116A557
:100E300005E016A503E008B115A500E015A521F011
:100E400010002060A069C01EA0610FB1401EA0610B
:100E50002046AFF300804FB1D4E9012138469047D6
:100E6000206A401C2062C01C206206E0206AFAE76B
:100E7000D4E9012115F8010B9047761EF8D22046DF
:100E8000AFF30080BDE8F0814E414E006E616E0010
:100E9000494E4600696E66002DE9F04781461646C8
:100EA0008AB0354878440DC88DE80D003248784442
:100EB000801C03AC0DC884E80D0041F69B3008444B
:100EC000372190FBF1F290FBF1F5A5F1800501FBD4
:100ED00012041B3C02D56442012000E00020DFF830
:100EE00098A080460027FA44AAF1BE0A0EE0E00767
:100EF0000AD03246684607EB470101230AEB81011D
:100F000000F097FB8DE8070064107F1C002CEED1E9
:100F1000194F7F44AE3F19E0E80715D007EB0410E6
:100F20000DF1180A90E80E008AE80E00C068F04241
:100F300001D1981908903246012306A903A800F0B0
:100F400078FB03AB83E807006D10641C002DE3D130
:100F50004FF0010332466946B8F1000F03A802D0F2
:100F600000F052FB01E000F064FBC9E90001C9F8A0
:100F700008200AB0BDE8F087140F030010B500F098
:100F800039F8BDE8104000F02FB870477546FFF7FC
:100F9000DBFEAE4605006946534620F00700854655
:100FA00018B020B5FFF7E6F9BDE820404FF0000685
:100FB0004FF000074FF000084FF0000B21F0070141
:100FC000AC46ACE8C009ACE8C009ACE8C009ACE884
:100FD000C0098D46704710B50446AFF30080204627
:100FE000BDE81040FFF752B9002801D000F06AB800
:100FF0007047000010B5012805D0002103A000F0C3
:1010000067F8012010BD09A1F8E7000053494752D5
:10101000544D454D3A204F7574206F6620686561C8
:1010200070206D656D6F7279000000003A20486590
:101030006170206D656D6F727920636F727275706B
:10104000746564004FF0013C50F8042B51F8043BE8
:101050009A4221D1A2EB0C03934313EACC1317D18C
:1010600050F8042B51F8043B9A4215D1A2EB0C0323
:10107000934313EACC130BD150F8042B51F8043BE3
:101080009A4209D1A2EB0C03934313EACC13DBD0B1
:101090004FF00000704700BFD01A01BAB1FA81F1D9
:1010A00001F0180122FA01F0CB40C1F12001DBB2BE
:1010B000C0B2C01A2CFA01F3D11A914311EAC3113C
:1010C000E6D1704701491820ABBEFEE726000200BA
:1010D00070B505460C460A2000E06D1C00F011F8C2
:1010E00035B128780028F8D102E0641C00F009F836
:1010F00014B120780028F8D1BDE870400A20AFF381
:10110000008008B569468DF800000320ABBE08BD1D
:101110005FEA400C08BF91F0000F4FEA8C234FEAC2
:10112000C12243EA51514FEA1C5018BF00F5F0406C
:101130004FEA300018BF41F000415FEA6C5C00F0FC
:101140002980BCF1FF3F08BF40F080407047130C7E
:1011500006BF12044FF0100C4FF0000C130E04BF2A
:1011600012020CF1080C130F04BF12010CF1040C55
:10117000930F04BF92000CF1020CD30F04BF520076
:101180000CF1010C11464FF00002A0F11F00A0EB82
:101190000C00704711F0004F08BF704731F000415C
:1011A0003FF4D5AF0B0C06BF09044FF0100C4FF005
:1011B000000C0B0E04BF09020CF1080C0B0F04BF4E
:1011C00009010CF1040C8B0F04BF89000CF1020C17
:1011D000CB0F04BF49000CF1010CCCF12003A0EBB4
:1011E0000C0022FA03F302FA0CF241EA030100F1C7
:1011F0000100704720F07F4C80EA030023F07F4716
:10120000ACEB070303F57C5300F0004003F1FF0350
:101210002DE980494FEA154B09B44FEA144325EAFA
:101220000B4E24EA03480FF2042606EB1327490865
:101230003E785FEA320203FB0667C7F5000707FB4B
:1012400006F64FEA54374FEAD64606F1020607FB88
:10125000066CCCF1005C4FEA1C472CEA074C07FBFC
:1012600006F40CFB06F504EB15464FEA961634BF60
:1012700000204FF000404FEAD13706FB07FC4FEA51
:101280001C4C0CFB0BF7D21B03FB0CF761EB0701AB
:101290000CFB0EF7B0EB074072EB17420CFB08F7A4
:1012A00034BFA2EB0742B2EB074261EB17414FEAB2
:1012B0000C444FEA910706FB07FC4FEA1C4C0CFB61
:1012C0000BF7B0EBC74072EB573203FB0CF734BFA0
:1012D000A2EBC742B2EBC74261EB57310CFB0EF7F2
:1012E000B0EBC70072EB57720CFB08F734BFA2EBF0
:1012F000C702B2EBC70261EB5771039F4FEA8161EE
:1013000041EA921104EBCC044FEAD1374FEA8262F2
:1013100006FB07FC42EA90124FEA80604FEA1C4C41
:101320000CFB0BF7D21B03FB0CF761EB07010CFB6B
:101330000EF7B0EB074072EB17420CFB08F734BF17
:10134000A2EB0742B2EB074261EB17414FEA8C5523
:101350004FEA910704EB9C2406FB07FC4FEA1C4C68
:101360000CFB0BF7B0EBC74072EB573203FB0CF7EB
:1013700034BFA2EBC742B2EBC74261EB57310CFB63
:101380000EF7B0EBC70072EB57720CFB08F734BFD7
:10139000A2EBC702B2EBC70261EB577115EB4C250C
:1013A0004FEA816141EA92114FEA82624FEAD137F6
:1013B00042EA901206FB07FC44F100044FEA806009
:1013C0004FEA1C4C0CFB0BF7D21B03FB0CF761EB39
:1013D00007010CFB0EF7B0EB074072EB17420CFB5A
:1013E00008F734BFA2EB0742B2EB074261EB1741AB
:1013F00015EB1C154FEA813141EA92414FEA8232E6
:1014000042EA90424FEA80304FEA0C7644F1000401
:1014100048EA03434EEA0B484FF0000EB2EB080CCB
:1014200071EB030724BF624639464EEB0E0E4FF0B8
:10143000000B0018524149414BEB0B0BB2EB080C6F
:1014400071EB03077BF1000B24BF624639464EEB7C
:101450000E0E4FF0000B0018524149414BEB0B0BA5
:10146000B2EB080C71EB03077BF1000B24BF624663
:1014700039464EEB0E0E51EA020718BF46F0010640
:1014800016EB0E7655F1000254F1000103D5BDE8CC
:101490008901BDE80088BDE88901BDE80048B619AA
:1014A000524141EB0101A3F10103704780807F7E2F
:1014B0007D7C7B7A797877767675747372717170CA
:1014C0006F6E6E6D6C6C6B6A6A696868676666657C
:1014D0006464636362616160605F5F5E5E5D5D5C0A
:1014E0005C5B5B5A5A59595858575756565555557B
:1014F0005454535352525251515050504F4F4F4EDB
:101500004E4D4D4D4C4C4C4B4B4B4A4A4A49494928
:10151000484848474747474646464545454444446A
:10152000444343434342424242414141002B9C4693
:1015300030D477002BD01CB54FEA370703B44FF0F7
:1015400010004FF01001BAF1000F06D0BCF1000FEF
:10155000DCBF40F0080040F008014FF000000FBC75
:10156000BDE810400BF1010BBBF1010F08BF5FEAB2
:10157000170722BF12F1010211F101014FF00041E2
:1015800043F1000300F0004043EA00007047F9D344
:101590005708D0E746EA064613F1400F4FEA1646D1
:1015A0001FDD13F1200FDFBF16430A460021203351
:1015B0005B42BED0C3F1200746EA064602FA07F7AF
:1015C0004FEA164646EA0706C3F1200722FA03F25D
:1015D00001FA07F721FA03F14FF0000342EA07028C
:1015E000A7E746EA020646EA06464FEA164646EAF4
:1015F0000106BCBF46EA0646360C4FF000034FF02A
:1016000000024FF0000194E72DE9804C9A46934682
:1016100070B491E8380007C831EA400C48BF34EA9A
:10162000430C03D5FFF7E6FDFFF780FFF0BCBDE8F4
:10163000008C2DE9804C9A46934670B491E83800AE
:1016400007C810F0804F08BF13F0804F03D100F09F
:1016500005F8FFF76BFFF0BCBDE8008C20F07F477A
:1016600080EA030023F07F4C07EB0C03A3F57C53C7
:1016700000F00040A3F1FE0392F0000F00F0B380F1
:1016800095F0000F00F077802DE901494FEA1140F5
:101690004FEA144621EA004800FB06FC24EA06470C
:1016A00008FB06F607FB08F800FB07F718EB0648EF
:1016B0004CEB164C4FEA124B18EB07484FEA154615
:1016C0004CEB174022EA0B4E0BFB06FC25EA0647C3
:1016D0000EFB06F607FB0EFE0BFB07F71EEB064E96
:1016E0004CEB164C4FF000061EEB074E4CEB174B25
:1016F00018EB0B0840F1000018EB0E0B58EB00083C
:1017000040F100008F1A4FF000013CBFC943661B37
:1017100014BFB5EB040C00213CBFC943F61B4FEAD4
:1017200017444EEA8E0E27EA04454FEA1C4704FB95
:1017300007622CEA074C05FB07F70CFB05F604FBD8
:101740000CFC16EB074642EB174216EB0C4642EB3D
:101750001C421BEB060658EB0202414146EA9E067C
:1017600001D5BDE80189B619524141EB0101A3F150
:101770000103BDE801894FEA14454FEA114724EA05
:10178000054621EA074C05FB07F406FB07F70CFBAF
:1017900006F105FB0CFC11EB074144EB17444FEA43
:1017A000124711EB0C4144EB1C4422EA074C05FBA9
:1017B00007F206FB07F70CFB06F605FB0CFC16EB25
:1017C000074642EB174216EB0C4642EB1C456A18E3
:1017D00054F1000148BF7047B619524141EB010175
:1017E000A3F10103704795F0000F37D04FEA114283
:1017F0004FEA144721EA024624EA074C02FB07F1AC
:1018000006FB07F70CFB06F402FB0CFC14EB074489
:1018100041EB17414FEA154714EB0C4441EB1C41D7
:1018200025EA074C02FB07F506FB07F70CFB06F65B
:1018300002FB0CFC16EB074645EB174516EB0C4676
:1018400045EB1C42121951F1000148BF7047B6190F
:10185000524141EB0101A3F1010370474FEA1445E6
:101860004FEA114724EA054621EA074C05FB07F138
:1018700006FB07F70CFB06F24FF0000605FB0CFC1D
:1018800012EB074241EB174112EB0C4251EB1C41AA
:1018900048BF7047921841EB0101A3F10103704763
:1018A00010B50146806B026C12F0500F05D0026C2F
:1018B000D20626D500F054FB10BD016C41F4007136
:1018C000016401688A6812F0405F17D1027EAAB9EC
:1018D000CA6A12F4700F02D08A6852050ED44A68A0
:1018E00022F020024A60016C21F480710164016CD5
:1018F000C90403D4016C41F00101016400F02EFB26
:1019000010BD806BC26CBDE810400846104710B592
:10191000806B40210164416C41F00401416400F09E
:101920001FFB10BD10B5806B00F019FB10BD00004F
:10193000464910B54A6822F440324A604A68436812
:101940001A434A6001684A6822F480724A6001685A
:101950004A68036942EA03224A6001684A6822F041
:1019600040724A6001684A6883681A434A600168A5
:101970008A6822F400628A6001688A68C3681A4330
:101980008A60816A6FF07062D14201688A6822F0D1
:1019900070628A6001688A680CD0836A1A438A6020
:1019A00001688A6822F040528A6001688A68C36AC6
:1019B0001A4301E022F040528A6001688A6822F0EE
:1019C00002028A6001688A68037E42EA43028A60F2
:1019D00090F82010002901684A680FD042F4006294
:1019E0004A6001684A6822F460424A6001684A68B5
:1019F000174C436A04EB43331A4301E022F40062BC
:101A00004A600168CA6A22F47002CA620168CA6A3E
:101A1000838B104C04EB03531A43CA6201688A6833
:101A200022F400728A6001688A6890F8303042EAD5
:101A300043228A6001688A6822F480628A600168B1
:101A40008A68406942EA8020886010BD0023014016
:101A500000E0FFFF0000F0FFFEE70000014800F09B
:101A6000F5BB00005003002070B51B481C4C1C49FE
:101A700000681A4D1A4B603CB839A84202D9174A7F
:101A8000543A03E0984203D9144A583A126804E0E1
:101A9000A04201D94A6800E00A6812F0200F16D06F
:101AA0002022A84202D90D484C3803E0984203D9BD
:101AB0000A485038026004E0A04201D9CA6000E040
:101AC0008A60084A10685168926800F0C5F8BDE85D
:101AD0007040014800F0BABB240200205864024064
:101AE000B8600240D0010020014800F0AFBB000008
:101AF000EC040020014800F0A9BB00004C050020C8
:101B000001681823CAB2103AB2FBF3F2054B6FF327
:101B10000901032A9B5CC36500D9091D816508463C
:101B200070470000D8D7020810B5014600208B6925
:101B30008A6A4FF0C07453B1B3F5005F15D072B12B
:101B4000012A0CD0022A0AD0032A09D104E01AB1D2
:101B5000012A06D0022A03D1C96AC90100D5012091
:101B600010BDC96AA142FAD010BD002AF7D0012ADF
:101B7000F2D0022AF3D0032AF3D010BD30B50468A6
:101B8000256825F480252560046863608368402B00
:101B9000036803D099600068C26030BD9A60006835
:101BA000C16030BD08B50020064C8DF80000002350
:101BB0001A466946206820F00FFB642020F0D1FA15
:101BC000F5E7000014000020704772B6FEE7000041
:101BD0002DE9F04186B014216846FEF7E9FD1B4867
:101BE0000024016841F001010160016801F0010178
:101BF0000591016841F0020101600068144F00F096
:101C00000200059001220821384600F0A0FDDFF80F
:101C100044804FF4004600223146404600F097FDD4
:101C2000082000900125CDE9015469463846039407
:101C300000F090FC0096CDE90154694640460394BB
:101C400000F088FC06B0BDE8F081000030380240AA
:101C500000040240000002402DE9F0435F4C894639
:101C60002DED048B00254FEA19432178160C83B023
:101C7000984697B2012904D0022904D0032908D13B
:101C800003E01D4602E03D4600E03546B5F57A6FBB
:101C90007ED261F31F600090CDE901920C2269466B
:101CA0004F4802F091FA1FFA89F000EE100AF0EEA8
:101CB000080AB8EE400A20EE200ADFED4A0A207832
:101CC00020EE200AF2EE060A60EE208A9FED469B87
:101CD000012804D0022813D0032822D03BE000EED4
:101CE000108AB8EE400A10EE100A29F0BDF853EC45
:101CF000192B28F0CFFF41EC100B94ED021B20E0D4
:101D000000EE107AB8EE400A10EE100A29F0ACF896
:101D100053EC192B28F0BEFF41EC100B94ED041B83
:101D20000FE000EE106AB8EE400A10EE100A29F03B
:101D30009BF853EC192B28F0ADFF41EC100B94ED00
:101D4000061B51EC100B53EC112B28F099FE28F0D8
:101D500051FC08EE100A2648B0EE680A006821F02F
:101D6000D6F82448B0EE480A006821F0D0F8B5F55E
:101D7000006500D56D42A9B240F26C72002091421C
:101D80000CD96178491CC9B26170A070082900E0C3
:101D90001BE012D360702078401C0BE0122911D296
:101DA000A178491CC9B2A1706070082905D3A07040
:101DB0002078401EC0B209F02BFB03B0BDEC048BB1
:101DC000BDE8F0836070A070F7E703B0491CBDEC7C
:101DD000048BC8B2BDE8F04309F01ABB78000020BC
:101DE000A404002000008039000000000000A04092
:101DF000980000209C00002078B50024009490F802
:101E00003C20012A19D0012280F83C200A680723CF
:101E10000568092A13D9EE680A3A02EB4202934098
:101E20009E43EE600B788A680A3B03EB43039A40BB
:101E30000368DD682A43DA6010E0022078BD2E696D
:101E400002EB420293409E432E610B788A6803EBBB
:101E500043039A4003681D692A431A614A681F2395
:101E6000072A13D205686E6B521E02EB8202934062
:101E70009E436E630A8893B20A79521E02EB820275
:101E800093400268556B2B43536327E005680D2A86
:101E900012D22E6BD21F02EB820293409E432E631E
:101EA0000B790A88DB1F92B203EB83039A40036825
:101EB0001D6B2A431A6311E0EE6A0D3A02EB8202AF
:101EC00093409E43EE620B790A880D3B92B203EB7E
:101ED00083039A400368DD6A2A43DA621B4B056874
:101EE000194A9D420AD10D68122D07D1556825F473
:101EF00000055560556845F48005556005689D42AC
:101F00001DD1134D0B68AB4201D0112B17D1536873
:101F100023F480035360536843F40003536009685B
:101F2000A9420CD10B490C4A0968B1FBF2F101EB53
:101F30008101490000E0491E00910029FBD180F891
:101F40003C40002078BD00000023014000200140FB
:101F500012000010A000002040420F0070477047A0
:101F6000704770B504004FF0000503D0206C0026C8
:101F700010B107E0012070BD204600F01DF8666436
:101F800084F83C60206CC00610D4206C20F488508B
:101F900040F0020020642046FFF7CAFC6664206C13
:101FA00020F0020040F00100206400E0012584F8E8
:101FB0003C60284670BD000070B586B0064614210E
:101FC0006846FEF7F5FB24493068884241D1234832
:101FD0000025016841F48071016000681F4900F428
:101FE000807014390590086840F0010008600868A6
:101FF00000F001000590086840F0020008600868E1
:10200000032400F002000590E0208DE831006946CD
:10201000134800F09FFA01208DE83100694611480D
:1020200000F098FA114C1048C4E900050015A560AD
:10203000C4E90350400060618000C4E906052562E0
:102040002046656200F0D2F908B1FFF7BEFDB46327
:10205000A66306B070BD0000002001404438024075
:1020600000000240000402401064024024020020EC
:10207000F8B5044600200E46009094F83C10012963
:1020800007D0012184F83C1021688B68DB0702D05F
:1020900011E00220F8BD8B6843F001038B603649E4
:1020A000364B0968B1FBF3F101EB410100E0491E39
:1020B00000910029FBD121688B68DB0503D58B6873
:1020C00023F480738B6021688B68DB0749D0236C15
:1020D00040F20165AB4343F48073236449684905CA
:1020E00005D5216C21F4005141F480512164216C0B
:1020F000C90404D5616C21F00601616400E06064EC
:1021000084F83C00A16B1F481D4DC863A16B1E489D
:102110000864A16B1D48C86421686FF02200086044
:102120002068416841F0806141602068816841F425
:10213000807181602168134632464C31A06B00F0FB
:10214000BFF96868C006206802D01149884210D1E2
:10215000816811F0405F0CD1816841F0804181605D
:1021600007E0206C40F010002064606C40F001003B
:1021700060640020F8BD0000A000002040420F0075
:1021800000230140A1180008251900080F190008B4
:10219000002001402DE9F0410446876D00F0DCFA93
:1021A000064694F835000025022806D08020606598
:1021B00084F834500120BDE8F0812068016821F0E6
:1021C000160101602068416921F080014161206CA5
:1021D00008B9A06C20B12068016821F008010160F5
:1021E0002068016821F0010101600CE000F0B4FA00
:1021F000801B052807D920206065032084F835005E
:1022000084F83450D7E720680068C007EED194F80E
:102210005C103F208840B860012084F8350084F8C5
:1022200034500020C7E790F83510022903D08021F0
:10223000416501207047052180F83510006801686C
:1022400021F0010101600020704700002DE9F843F2
:1022500004464FF00009CDF8009063484FF4165142
:10226000A56D0068B0FBF1F72E6894F85C100820AB
:1022700000FA01F131420FD021680A6852070BD5EC
:102280000A6822F004020A6094F85C108840A86092
:10229000606D40F00100606594F85C104FF001083B
:1022A00008FA01F0304208D021684969090604D5CE
:1022B000A860606D40F00200606594F85C10042036
:1022C0008840304208D021680968890704D5A86091
:1022D000606D40F00400606594F85C101020884048
:1022E000304218D021680968090714D5A860206811
:1022F0000168490304D50068000308D5A16C07E014
:102300000168C90503D4016821F008010160216C4E
:1023100009B12046884794F85C102020884030425C
:1023200031D021680968C9062DD5A86094F8350018
:1023300005282068016806D0490347D500680003D6
:102340001DD4616C1CE021F0160101602068416918
:1023500021F080014161206C08B9A06C20B1206897
:10236000016821F00801016094F85C103F2088406A
:10237000A86084F8358084F83490216D1FE0E16B0B
:1023800009B120468847606D00282BD0606DC007DA
:1023900014D0052084F835002068016821F001017F
:1023A00001600098401C0090B84203D82068006883
:1023B000C007F6D184F8358084F83490E16C0029A8
:1023C00010D001B02046BDE8F04308470168C905B8
:1023D000D5D4016821F01001016084F8358084F8BB
:1023E0003490CCE7BDE8F883A00000202DE9F0414F
:1023F000044600F0B1F906465CB1022084F83500CD
:10240000002584F834502068016821F00101016042
:102410000DE00120BDE8F08100F09EF9801B052849
:1024200005D920206065032084F83500F2E7206894
:102430000068C007F0D12268116820480140D4E943
:1024400001031843D4E9033633431843636918433F
:10245000A3691843E3691843236A18430843616A70
:10246000042903D1D4E90B131943084310602068F1
:102470004069666A20F0070130460E4301270428B0
:102480000CD1A06A0643E06A40B12046FFF74CFB3E
:1024900020B14020606584F83570BAE72068466155
:1024A0002046FFF72DFB94F85C203F21914081608E
:1024B000656584F835700020ACE700003F8010F0BF
:1024C0002DE9F0410446866D90F83400002501287E
:1024D0000DD0012084F8340094F835700020012FCD
:1024E00007D084F8340002252846BDE8F081022098
:1024F000FBE7022784F8357060652046FFF73EFB56
:1025000094F85C103F208840B0602068016841F07A
:1025100016010160206C20B12068016841F00801BB
:1025200001602068016841F001010160DCE7000002
:1025300070B5044600F010F90546601C02D004484E
:102540000078044400F008F9401BA042FAD370BDA3
:10255000640000202DE9F84FDFF8B8A10022012423
:1025600003254FF00F090AF1040BAAF1040E00BF76
:102570000B6804FA02F63340B34273D10F7907F0C7
:102580000307012F01D0022F16D187684FEA4208B6
:1025900005FA08FC27EA0C07D1F80CC00CFA08FC75
:1025A0004CEA070CC0F808C04768B7430E79C6F379
:1025B000001696403E4346600E79F643B6070DD0AE
:1025C000C768560005FA06FC27EA0C07D1F808C0D0
:1025D0000CFA06FC4CEA070CC0F80CC00E7906F0A9
:1025E0000306022E10D1D60800EB8608D8F820602A
:1025F00057074FEAD76C09FA0CF7BE430F6907FA81
:102600000CF73743C8F8207006684FEA420C05FA09
:102610000CF7BE430F7907F0030707FA0CF73743AF
:1026200007604E6816F4403F6DD03B4E376847F464
:1026300080473760366822F0030706F4804600962C
:10264000364E07EB060CDCF8086897073F0F09FACF
:1026500007F826EA0806DFF8C880404503D14FF0A6
:1026600000081EE04FE0DFF8BC80404502D14FF08B
:10267000010816E0DFF8B080404502D14FF00208B3
:102680000FE0DFF8A880404502D14FF0030808E0D2
:10269000DFF89C80404502D14FF0040801E04FF084
:1026A000070808FA07F848EA0608CCF80888DAF8B4
:1026B00000605746D1F804C09E435FEACC2C00D599
:1026C0001E433E60DBF800605F46D1F804C09E43C5
:1026D0005FEA8C2C00D51E433E60DEF80060774632
:1026E000D1F804C09E435FEA8C3C00D51E433E6097
:1026F000084F083F3E68D1F804C09E435FEACC3CD7
:1027000000D51E433E60521C102AFFF431AFBDE8D5
:10271000F88F0000083C014044380240003001407E
:10272000000002400004024000080240000C024089
:10273000001002400069084000D001207047426943
:1027400021EA02030A4043EA0241816170470AB16B
:10275000816170470904FBE7014880687047000009
:102760006400002070B5040025D094F83D000025D9
:1027700020B984F83C50204600F0B8F8242084F8B2
:102780003D002068016821F00101016020680168B6
:1027900041F4004101602068016821F400410160BA
:1027A00000F000FB4D4A6168914201D84C4900E0BD
:1027B0004C49884201D2012070BD4B492368B0FBCF
:1027C000F1F15E6826F03F060E435E606368934257
:1027D00006D94FF4967359434FF47A73B1FBF3F172
:1027E0002368491C1E6A26F03F063143196261685E
:1027F000914210D84900401EB0FBF1F2521CC2F3C6
:102800000B02042A01D2042022E0B0FBF1F0401CAC
:10281000C0F30B001CE0A268F2B301EBC10303EBB1
:102820000116431EB3FBF6F35B1C43F480431B0508
:1028300049D092B301EBC10202EB0111401EB0FB83
:10284000F1F0401CC0F30B0040F4804040F4004025
:102850002168CA694CF6FF739A431043C861D4E9F2
:10286000071001432068026822F0C0021143016092
:10287000D4E9030101432068826848F2FF339A4398
:1028800011438160D4E9050108432168CA6822F038
:10289000FF021043C86001E00EE016E02068016806
:1028A00041F0010101602564202084F83D0025638A
:1028B00084F83E50002070BD01EB4106431EB3FB7F
:1028C000F6F35B1CB3E70120C2E701EB4101401EB8
:1028D000B0FBF1F0401CC0F30B00B7E7A08601008D
:1028E00080841E0000093D0040420F0010B586B0F4
:1028F000044614216846FDF75BFF134920688842AF
:1029000020D112480021026842F0020202600068F1
:1029100000F002000590C02000901220CDE90101D6
:10292000032003900420049069460948FFF712FE33
:1029300006481030016841F400110160006800F49D
:102940000010059006B010BD005400403038024021
:102950000004024002488168027811448160704797
:10296000640000200B4810B5016841F4007101605B
:10297000016841F480610160016841F48071016087
:10298000032000F099F80F2000F006F800F04AF854
:10299000002010BD003C024030B505461C4887B001
:1029A0000024016841F480210160006806A900F458
:1029B0008020009001A800F0D5F900F003FA154935
:1029C000154AB0FBF1F11548491E026040F2E732AA
:1029D000C0E90324C0E90114846100F0ABFE0400E7
:1029E00012D10E4800F018FF04000DD11A2000F09B
:1029F00035F8102D07D2002229461A2000F03CF8A5
:102A00000748056000E0012407B0204630BD000003
:102A10004438024040420F0000480140AC0500200D
:102A2000680000200C4882B0016841F480410160D8
:102A3000006800F4804000900748001F016841F0E2
:102A4000805101600068002200F0805000900F214A
:102A5000901E02B000F010B844380240002809DB94
:102A600000F01F02012191404009800000F1E020A8
:102A7000C0F8001170470000F0B40E4B1B680C4604
:102A8000C3F30223C3F10705042D00D90425191D42
:102A9000072901D2002300E0DB1E012606FA05F11A
:102AA000491E214099409E40761E16403143F0BC9D
:102AB00002F0E2BE0CED00E0064900F007020868F3
:102AC0004FF6FF03184040EA0220034A1043086013
:102AD000704700000CED00E00000FA052DE9F84316
:102AE000044600684FF00109C1074FF0000601D10C
:102AF000400729D5DFF82081C8F86860FFF72CFE71
:102B00000746464D05E000BFFFF726FEC01B022822
:102B100059D828680001F7D4A068217B800140EAD9
:102B20000170616808433D4984310860C8F86890C5
:102B3000FFF712FE074604E0FFF70EFEC01B022857
:102B400041D828680001F7D52078800752D533484E
:102B50004030016841F0805101600068304D00F064
:102B600080500090286840F480702860FFF7F4FDE2
:102B7000074604E0FFF7F0FDC01B022823D82868B1
:102B8000C005F7D5254D7035286810F4407020D069
:102B9000218A01F4407181421BD02868214920F428
:102BA0004070C1F800900E6028602868C00710D0FF
:102BB000FFF7D2FD064641F2883707E0FFF7CCFD6C
:102BC000801BB84202D90320BDE8F883286880073B
:102BD000F4D521691148C1F301220830032A12D02B
:102BE000016821F4F81101602868218AC1F30B0102
:102BF000084328602078000703D50B49207DC1F8E1
:102C0000E0010020E0E70268084B22F4F8121940C6
:102C10000A430260E8E70000000047420038024033
:102C200000700040400E474200104742FFFCFF0F7B
:102C30002DE9F0470E46050065D0DFF81481D8F87D
:102C40000000F7B200F00700B04207D288F8007029
:102C5000D8F8000000F00700B04254D128683D4C7D
:102C6000810712D5400703D5206840F4E05020606A
:102C70002878000703D5206840F460402060206871
:102C8000A96820F0F000084320602878C0072DD004
:102C9000304968680839012812D0022813D0032867
:102CA00011D00968890700292DDA216821F0030174
:102CB00001432160FFF750FD814641F2883A0EE062
:102CC00009688903EFE709688901ECE7FFF744FD2C
:102CD000A0EB0901514502D90320BDE8F087206827
:102CE000696800F00C00B0EB810FEFD1D8F800104C
:102CF000404601F00701B14207D90770006800F0B3
:102D00000700B04201D00120E7E72878400705D549
:102D10002068E96820F4E050084320602878000724
:102D200006D52068296920F4604040EAC10020608F
:102D300000F058F82168084AC1F30311515CC840FB
:102D40000649086006480068FFF726FE0020C4E731
:102D5000003C024008380240E0D70208A0000020F2
:102D6000680000200F2202600C4A136803F003037E
:102D70004360136803F0F0038360136803F4E053C7
:102D8000C36012684FF4E05303EAD20202610448C0
:102D9000006800F007000860704700000838024033
:102DA000003C02400448054900680968044AC1F330
:102DB0008221515CC8407047A000002008380240C2
:102DC000F0D702080448054900680968044AC1F3BD
:102DD0004231515CC8407047A000002008380240D2
:102DE000F0D70208154810B5006810F00C0214481E
:102DF00013D01449042A0FD0082A0ED10F4C241FD7
:102E00002268236802F03F025B0207D52068C0F306
:102E10008810A0FB010106E0084610BD2168C1F33F
:102E20008811A1FB00010023FDF70CFB2168C1F311
:102E30000141491C4900B0FBF1F010BD08380240C7
:102E40000024F40040787D012DE9F84F04006ED095
:102E50002078DFF84C93C007A9F104054AD009F1A6
:102E600004000168C1F38101012908D00068C0F3A2
:102E7000810002280AD1D9F80000400206D528684E
:102E8000800337D560680028E1D033E06068B0F592
:102E9000803F10D0B0F5A02F286810D020F48030EB
:102EA0002860286820F4802028606068A8B1FFF7B7
:102EB00053FC06460DE0286840F48030F4E740F407
:102EC00080202860F7E700BFFFF746FC801B6428DE
:102ED00073D828688003F7D50CE0FFF73DFC064661
:102EE00005E000BFFFF738FC801B6428F0D8286895
:102EF0008003F7D42078DFF8AC8280074FF0000A17
:102F00003ED5A748001D016811F00C0F08D00068DD
:102F1000C0F3810002280BD1D9F80000400207D489
:102F20002868800716D5E068012800D112E033E157
:102F3000E068B8B10120C8F80000FFF70DFC0646B4
:102F400005E000BFFFF708FC801B0228C0D82868F6
:102F50008007F7D52868216920F0F80040EAC10011
:102F600028600DE0C8F800A0FFF7F6FB064604E075
:102F7000FFF7F2FB801B02281FD828688007F7D4D0
:102F80002078000722D5864F87486169703771B174
:102F900001210160FFF7E0FB064604E0FFF7DCFBE0
:102FA000801B022809D838688007F7D50EE0C0F8E2
:102FB00000A0FFF7D1FB064605E082E0FFF7CCFB5F
:102FC000801B02287DD838688007F7D42078400716
:102FD00068D5DFF8CCB100270BF13C0BDBF8000023
:102FE000C0000BD4DBF8001041F08051CBF800108A
:102FF000DBF80000012700F0805000906B4E306835
:10300000C00510D4306840F480703060FFF7A4FB36
:10301000009005E0FFF7A0FB0099401A022850D865
:103020003068C005F6D55E4EA0686C3601280FD01A
:103030000528306810D020F001003060306820F0A2
:1030400004003060A068B8B1FFF786FB00900FE085
:10305000306840F00100F4E740F004003060F7E72A
:10306000FFF77AFB0099411A41F28830814266D815
:1030700030688007F4D50EE0FFF76EFB009007E0A4
:10308000FFF76AFB0099411A41F28830814256D815
:1030900030688007F4D42FB1DBF8001021F08051A4
:1030A000CBF80010A069C8B33D49091D0968C1F3F8
:1030B000810102294AD00228504607D0C8F8600092
:1030C00000E03CE0FFF748FB04463BE04746C8F819
:1030D0006000FFF741FB064605E000BFFFF73CFB41
:1030E000801B02282BD828688001F7D4D4E9070177
:1030F0000843A16A2E4A490802EB0141626A41EA8B
:103100008211084394F82C1040EA0161C9F80010BC
:1031100001203866FFF720FB044606E03EE000BFD2
:10312000FFF71AFB001B022809D828688001F7D591
:1031300034E000BFFFF710FB001B022802D9032078
:10314000BDE8F88F28688001F4D427E00128F7D083
:10315000D9F80000E26900F4800191421CD1226A92
:1031600000F03F01914217D147F6C071626A0140F9
:10317000B1EB821F10D1A26A4FF0FF3300F440314F
:1031800003EB5202B1EB024F06D194F82C1000F081
:103190007060B0EB016F01D00120D1E70020CFE7D4
:1031A0000438024000004742800E47420070004051
:1031B0000000FFFF10B5040002D0607F10B106E0F0
:1031C000012010BD00202077204600F041F80220A9
:1031D00060772068C168C943C90632D5CA214162F7
:1031E000216853204862204601F08AFD20BB2068F8
:1031F0008168164A114081602168886862681043BE
:10320000D4E904231A43104388602168E068086108
:1032100020680169228941EA02410161204601F0EA
:1032200093FD48B921680A6C22F480220A6421685F
:103230000A6CA3691A430A642268FF21516208B12B
:1032400010BD00200121617710BD0000BFFF8FFF7E
:1032500010B586B0044618216846FDF7A9FA094959
:10326000206888420CD10220009000020490684639
:10327000FFF734FC08B1FEF7A8FC03490120086001
:1032800006B010BD002800403C0E474270B5044611
:103290000B482168C860FFF75FFA05464FF47A765D
:1032A00007E000BFFFF758FA401BB04201D90320E6
:1032B00070BD2068C0688006F4D5002070BD000095
:1032C0005F3F0100704770B5040009D0606A0025B7
:1032D00040B125616561A56294F8510040B10CE0F0
:1032E000012070BD6068B0F5827FF4D0E561F2E73F
:1032F00084F85050204600F045F8022084F8510030
:103300002068016821F040010160A088218900F453
:10331000827001F404410843A18901F4006108436B
:10332000217C01F002010843217D01F001010843E5
:10333000218B01F400710843217F01F0380108431B
:1033400094F8201001F080010843218D01F4005110
:10335000084321680860A069042101EA104094F83C
:10336000241001F010010843216848602068C169F9
:1033700021F40061C1616565012084F851000020DD
:1033800070BD000070B586B0064614216846FDF792
:103390000FFA20493068884239D11F48002501685A
:1033A00041F480410160006800F4804005901A48B3
:1033B0001038016841F0020101600068694600F0C0
:1033C000020005904FF4204000900220CDE9010555
:1033D00003200390052004901048FFF7BBF8114C20
:1033E0000F48C4E900054020C4E90205000120613E
:1033F000400060618000C4E90605256220466562E0
:10340000FEF7F4FF08B1FEF7E0FBB464A66306B074
:1034100070BD000000380040403802400004024007
:1034200070600240500300202DE9F84F9846164680
:103430008A460446FFF790F9814694F85100012826
:103440001ED1BAF1000F73D0002E71D094F8500045
:10345000012815D0012784F85070032084F851000A
:1034600000256565C4F830A0A686E686A563A58715
:10347000E58765642564A068B0F5004F03D00CE0D3
:103480000220BDE8F88F2068016821F0400101604A
:103490002068016841F480410160206801684906A4
:1034A00003D4016841F040010160E068B0F5006FAD
:1034B000606803D048B3012E27D047E008B1012E41
:1034C0001FD1206B21680088C86006E020688168F1
:1034D000890709D5216B0988C160206B801C206396
:1034E000E08E401EE0860CE0FFF736F9A0EB090104
:1034F000414503D3B8F1FF3F03D035E0B8F1000FE9
:1035000032D0E08E0028E1D123E0206B21680078E2
:10351000087306E02068816889070AD5216B09785D
:103520000173206B401C2063E08E401EE0860DE09E
:103530002BE0FFF711F9A0EB0901414503D3B8F1E6
:10354000FF3F03D010E0B8F1000F0DD0E08E00284F
:10355000E0D14A464146204601F054FC08B1202003
:103560006065A06830B109E084F8517084F850506B
:10357000032086E72068C1688068009084F8517055
:1035800004F8505F60680028F3D0012079E700005C
:1035900070B5044690F8510001281CD1C9B1C2B1E0
:1035A00094F85000012816D0012084F85000032020
:1035B00084F85100002565652163A286E286A56333
:1035C00065642564A587E587A068B0F5004F04D041
:1035D0000DE0012070BD022070BD2068016821F05F
:1035E000400101602068016841F480410160A16CE4
:1035F00017480864A16C1748C863A16C1648C864D2
:10360000A06C0565E38E2268216B0C32A06CFEF77E
:1036100057FF30B1606D40F01000606584F8505085
:10362000D7E720680168490603D4016841F04001EA
:10363000016084F850502068416841F020014160E9
:103640002068416841F002014160002070BD000027
:10365000954D00089F4D0008734D00087047704756
:103660007047704710B590F83C20012A22D0012203
:1036700080F83C20CA688C6822F4407222434C686F
:1036800022F4806222430C6822F4006222430C6917
:1036900022F4805222434C6922F400522243C96929
:1036A000002322F480420A4301684A6480F83C30D7
:1036B000002010BD022010BD70B590F83C20012AFA
:1036C0002CD0012480F83C40022280F83D20036881
:1036D0005A689D6822F070060A6832435A60104B9F
:1036E00002689A420ED0B2F1804F0BD00D4B9A4235
:1036F00008D00D4B9A4205D00C4B9A4202D00C4B8D
:103700009A4204D1496825F080031943916080F8FA
:103710003D40002180F83C10084670BD022070BD7D
:10372000000001400004004000080040000C004080
:103730000040014010B5040003D094F83D0010B1E2
:1037400007E0012010BD002084F83C00204600F076
:103750001FF8022084F83D00211D206801F062FC62
:10376000012084F8460084F83E0084F83F0084F885
:10377000400084F8410084F8420084F8430084F853
:10378000440084F8450084F83D00002010BD00008E
:1037900008B50068B0F1804F08D10548016841F0D4
:1037A00001010160006800F00100009008BD000008
:1037B0004038024090F83D10012901D001207047A7
:1037C000022180F83D1000680E4988420ED0B0F109
:1037D000804F0BD00C49884208D00C49884205D054
:1037E0000B49884202D00B49884204D1816801F01C
:1037F0000701062903D0016841F0010101600020A2
:103800007047000000000140000400400008004034
:10381000000C00400040014090F83D10012901D00B
:1038200001207047022180F83D100168CA6842F00B
:103830000102CA6000680E4988420ED0B0F1804F84
:103840000BD00C49884208D00B49884205D00B495F
:10385000884202D00A49884204D1816801F00701F8
:10386000062903D0016841F0010101600020704782
:10387000000001400004004000080040000C00402F
:103880000040014070472DE9F04104460068C668D9
:1038900005694FF00007A90713D5B10711D5F91E27
:1038A000016101202077206880698007204602D0CE
:1038B000FFF7E8FF04E000F0C1F8204600F07EF9D1
:1038C0002777680716D5700714D521686FF00400B4
:1038D0000861022020772068806910F4407F20462C
:1038E00002D0FFF7CFFF04E000F0A8F8204600F078
:1038F00065F92777280715D5300713D521686FF0AC
:1039000008000861042020772068C06980072046ED
:1039100002D0FFF7B7FF04E000F090F8204600F077
:103920004DF92777E80616D5F00614D521686FF013
:1039300010000861082020772068C06910F4407FDB
:10394000204602D0FFF79EFF04E000F077F8204603
:1039500000F034F92777E80708D0F00706D021688F
:103960006FF001000861204600F082F9280608D5B2
:10397000300606D521686FF0800008612046FFF709
:103980006FFE680608D5700606D521686FF0400006
:103990000861204600F0A1F9A8060AD5B00608D5AE
:1039A00021686FF0200008612046BDE8F041FFF774
:1039B00058BEBDE8F081000010B586B00446142161
:1039C0006846FCF7F5FE2368174C002117480222D1
:1039D000A34211D1036843F001030360006800F0C3
:1039E0000100059050020090CDE901210120CDE9B0
:1039F000031069460E4812E00E4CA34211D1036831
:103A000043F002030360006800F0020005906015B7
:103A10000090CDE90121CDE9031269460648FEF781
:103A200099FD06B010BD0000000001403038024092
:103A3000000002400008004000040240704770B5DA
:103A4000044690F83C0000260D4601280FD00120C6
:103A500084F83C006AB1042A1DD0082A2FD00C2A11
:103A60003FD00126002084F83C00304670BD022083
:103A700070BD206801F040FB2068816941F00801B9
:103A800081612068816921F0040181612068816978
:103A90002A69114311E0206801F056FB2068816912
:103AA00041F4006181612068816921F48061816154
:103AB000206881692A6941EA02218161D2E7206890
:103AC00001F06EFB2068C16941F00801C161206806
:103AD000C16921F00401C1612068C1692A691143EB
:103AE00011E0206801F088FB2068C16941F40061A1
:103AF000C1612068C16921F48061C1612068C16928
:103B00002A6941EA0221C161ACE710B5040003D083
:103B100094F83D0010B107E0012010BD002084F8AA
:103B20003C00204600F01EF8022084F83D00211DD4
:103B3000206801F077FA012084F8460084F83E00FE
:103B400084F83F0084F8400084F8410084F8420083
:103B500084F8430084F8440084F8450084F83D006C
:103B6000002010BD08B500681149884212D11148E3
:103B7000016841F0010101600068002200F00100CD
:103B800000900F211A20FEF777FFBDE808401A20A9
:103B9000FEF764BF0849884209D10648001F016842
:103BA00041F004010160006800F00400009008BDCD
:103BB0000000014044380240000800407047000007
:103BC00010B50446022249B104290ED0082913D0A9
:103BD00094F84100012816D0012010BD94F83E0051
:103BE0000128F9D184F83E200FE094F83F00012825
:103BF000F2D184F83F2008E094F840000128EBD18E
:103C000084F8402001E084F841200122206801F07E
:103C10005BFA12492068884203D1426C42F40042A8
:103C20004264206888420ED0B0F1804F0BD00C491E
:103C3000884208D00B49884205D00B49884202D0FF
:103C40000A49884204D1816801F00701062903D09E
:103C5000016841F001010160002010BD0000014039
:103C60000004004000080040000C004000400140FB
:103C700000680349884201D1FEF76CBE704700001E
:103C80000048014070B5044690F83C00012812D06D
:103C9000012584F83C50022084F83D00204601F0C4
:103CA000CDFA01004FF0000007D084F83D5084F8B1
:103CB0003C00012070BD022070BD2168CA6822F05E
:103CC0004002CA602168CA6822F48042CA6084F84F
:103CD0003D5084F83C00002070BD7047704710B51F
:103CE00004460068406994F84110C0F3C0102129CF
:103CF00011D180B12068143050E8001F21F08001FC
:103D000040E80012002AF5D1A06B08B1FEF742FA94
:103D1000204601F0D3FB2068406994F84210C0F3BC
:103D20008010222911D180B12068143050E8001F82
:103D300021F0400140E80012002AF5D1E06B08B103
:103D4000FEF728FA204601F092FB002010BD7047D4
:103D5000F8B5016804460868CA684B6910F00F0F8F
:103D60004FF0000559D003F0010602F49077374375
:103D700065D0C10705D0D10503D5616C41F00101C3
:103D80006164410705D5D90703D0616C41F0020198
:103D90006164810705D5D90703D0616C41F0040146
:103DA0006164010707D502F02001314303D0616C43
:103DB00041F008016164616C00293AD0800604D5A5
:103DC000900602D5204601F087FB20684069616CAF
:103DD000C0F38010090700D460B3204601F047FB10
:103DE00020684069400621D52068143050E8001F43
:103DF00021F0400140E80012002AF5D1E06BA8B1A3
:103E00006E490165E06BFEF70EFA002811D0E06BF9
:103E1000016D01B0BDE8F040084783060FD5930659
:103E20000DD52046BDE8F84001F056BB2046FFF70F
:103E30008EFFF8BD2046FFF78AFF6564F8BD266B4C
:103E40002023012E7DD1C6067BD5D60679D50868FC
:103E50004868009048694FF00206400641D5E16B82
:103E6000086840680004000CE8D0A28D8242E5D9C1
:103E7000E085C869B0F5807F2DD020680C3050E80F
:103E8000001F21F4807140E80012002AF5D120685B
:103E9000143050E8001F21F0010140E80012002A10
:103EA000F5D12068143050E8001F21F0400140E8AF
:103EB0000012002AF5D184F84230256320680C30C6
:103EC00050E8001F21F0100140E80012002AF5D14F
:103ED000E06BFEF75FF96663A08DE18D401A81B259
:103EE0002AE0A08DE18D401A81B2E08D0028A5D096
:103EF0000029A3D022680C3252E8000F20F4907001
:103F000042E80007002FF5D12068143050E8002F58
:103F100022F0010240E80027002FF5D184F842305A
:103F2000256320680C3050E8002F22F0100240E892
:103F30000023002BF5D166632046FFF7CFFEF8BDC6
:103F4000FFE705062BD5150629D594F84100212851
:103F5000F5D1A068B0F5805F01D12069B0B1206AC9
:103F6000411C2162216800784860E08C401E0004FA
:103F7000000CE084E3D12068C16821F08001C160B9
:103F80002068C16841F04001C160D8E7206A00881C
:103F9000C0F308004860206A801C2062E5E7400604
:103FA000CDD55006CBD5CA68204622F04002CA6063
:103FB00084F8413000F044F9C1E7000025530008BF
:103FC00070B5040004D094F84100002510B106E05B
:103FD000012070BD84F84050204600F023F82420D2
:103FE00084F841002068C16821F40051C160204676
:103FF00001F0D4FA2068016921F490410161206840
:10400000416921F02A0141612068C16841F40051F1
:10401000C1606564202084F8410084F84200656333
:10402000002070BD2DE9F04186B006461421684697
:10403000FCF7BEFB2F493068884258D12E48002437
:10404000016841F020010160006800F02000059047
:1040500029481438016841F001010160006869468F
:1040600000F0010005904FF4C05000900220CDE90F
:10407000010403200390082004902048FEF76AFA08
:10408000204D1F484FF4806887052860C5E90174FA
:10409000C5E903486C61AC61EC612C6228466C6236
:1040A000FEF7A4F908B1FDF790FDF563AE63154D79
:1040B000134860357830E5E802074020A5E8110193
:1040C000104845F814496030AC61EC612C626C62B8
:1040D000FEF78CF908B1FDF778FDB56300220521E4
:1040E0004720AE63FEF7C8FC4720FEF7B7FC06B0DA
:1040F000BDE8F08100140140443802400000024055
:1041000028640240EC04002090F84230202B01D0BB
:104110000220704721B11AB10023036301F0C4BA31
:1041200001207047704770472DE9F843044690F826
:104130004100984616460D46202802D00220BDE8D0
:10414000F88385B17EB100206064212084F84100AD
:10415000FEF702FBA6848146E684A0682027B0F51E
:10416000805F02D003E00120E9E7206910B12E460C
:1041700000250EE000260CE08021204601F0DCFA4C
:10418000A8B9C6B116F8010B21684860E08C401E42
:10419000E084E08C4B464FF00002CDF80080002810
:1041A000EAD14FF04001204601F0C6FA40B184F850
:1041B00041700320C3E735F8020BC0F30800E3E7C2
:1041C00084F841700020BAE770B5044690F84100C9
:1041D000202801D0022070BD49B342B32162A284DD
:1041E000E28400206064212384F84130A56B114BE8
:1041F000EB63A56B104B2B64A56B104BEB64A36BAF
:104200001865256813462A1DA06BFEF759F9216829
:104210006FF0400008602068143050E8001F41F043
:10422000800140E80012002AF5D1002070BD012075
:1042300070BD000023540008655400083553000881
:1042400070477047FEE70000284D294E294F4FF078
:104250005508294C4FF0AA094FF0030A4FF4806B20
:1042600025F0F8FA192225492048FFF74DFF286864
:10427000C16841F01001C1600D2121A001F04AF890
:1042800008201EF0FDFD306008201EF0F9FD3860AA
:1042900084F8008084F8019084F802A0FDF798FC6F
:1042A000032007F0B5F8002259461948FEF74FFAE7
:1042B0000422211D1748FDF7DBFE1748FFF77AFAA5
:1042C00008211648FFF77CFC00F0E2F813F02CFC04
:1042D00019F0B2FE24F0DCFB26F07AF8002025F07D
:1042E000EBF94FF4FA701DF03CFFB9E7A40400208D
:1042F000980000209C000020D001002088040020AD
:10430000706F7765722D7069636F0D0A0000000091
:1043100000040240DC010020F8030020B00300206C
:104320002DE9F0410027494CDFF8248101253E4664
:1043300010B12570667001E02078C8B301214046B5
:10434000FEF7F8F998B102214046FEF7F3F970B193
:1043500004214046FEF7EEF948B108214046FEF739
:10436000E9F920B110214046FEF7E4F900BB032033
:104370001DF0F7FE01214046FEF7DCF9002859D078
:1043800002214046FEF7D6F9002855D004214046C8
:10439000FEF7D0F9F0B308214046FEF7CBF9D0B3D1
:1043A00010214046FEF7C6F9B0B36078A8B3267076
:1043B000607890B301214046FEF7BCF968B3022152
:1043C0004046FEF7B7F940B304214046FEF7B2F984
:1043D00018B308214046FEF7ADF9F0B11021404670
:1043E000FEF7A8F9C8B103201DF0BBFE012140462D
:1043F000FEF7A0F988B102214046FEF79BF960B1B3
:1044000004214046FEF796F938B108214046FEF7F0
:1044100091F903E012E014E015E008E038B1102152
:104420004046FEF787F910B1257067786670384608
:10443000BDE8F0816570BAE7022000E003206070FB
:10444000B5E70420FBE70520F9E700007000002035
:104450000000024008B500200C4C8DF80000002040
:10446000FFF75EFF8DF8000006280AD2DFE800F0B3
:1044700009030303030301230022694620681DF09A
:1044800009FF01201DF06DFEE9E700001400002087
:1044900000B587B014216846FCF78AF90A48002164
:1044A000026842F001020260006800F0010005901D
:1044B0001F20CDE900010120029069460348FEF764
:1044C00049F807B000BD000030380240000002404B
:1044D0002DE9F04104461D4616460F462A2000F0FD
:1044E0009DF9204600F08AF9304600F087F92B202C
:1044F00000F094F9384600F081F9284600F07EF982
:10450000BDE8F0412C2000F089B9000070B55D1ABB
:10451000141A641C6D1C503350316C439BB289B229
:10452000049EFFF7D5FF0D4D4FF40060E86028684A
:10453000016841F400610160A2B231462846FFF7EC
:1045400027F80748006841680029FCD10020E8608E
:104550002868016821F40061016070BDF802002044
:10456000500300202DE9F04780461F4603F14F001D
:1045700083B21646501E82B20C4601F1500081B241
:104580004046DDF82090FFF7A3FF0AE0454604E02F
:10459000484600F033F96D1CADB2B542F8D3641C47
:1045A000A4B2BC42F2D3BDE8F0870000F0B587B0FA
:1045B00014216846FCF7FCF81848016841F0020134
:1045C0000160016801F002010591016841F00201FA
:1045D000016000684FF4805600F00200059001244D
:1045E0000F4FCDE900640325694603953846FDF772
:1045F000B1FF012231463846FEF7A9F82E02CDE977
:104600000064084C694603952046FDF7A3FF01228C
:1046100031462046FEF79BF807B0F0BD3038024027
:10462000000402400000024070B5FFF7BFFF002207
:104630004FF480716748FEF78AF8674D4FF4805455
:10464000002221462846FEF782F86420FDF770FF1D
:10465000012221462846FEF77AF86420FDF768FF1C
:10466000112000F0DBF87820FDF762FF362000F023
:10467000D5F8C02000F0E8F83A2000F0CFF8052087
:1046800000F0E2F8B22000F0C9F80C2000F0DCF8ED
:104690000C2000F0D9F8002000F0D6F8332000F00C
:1046A000D3F8332000F0D0F8B72000F0B7F8352069
:1046B00000F0CAF8BB2000F0B1F8192000F0C4F8EF
:1046C000C02000F0ABF82C2000F0BEF8C22000F0B3
:1046D000A5F8012000F0B8F8C32000F09FF81220E0
:1046E00000F0B2F8C42000F099F8202000F0ACF8F7
:1046F000C62000F093F80F2000F0A6F8D02000F0BC
:104700008DF8A42000F0A0F8A12000F09DF8E02092
:1047100000F084F8D02000F097F8042000F094F81E
:104720000D2000F091F8112000F08EF8132000F019
:104730008BF82B2000F088F83F2000F085F85420FB
:1047400000F082F84C2000F07FF8182000F07CF890
:104750000D2000F079F80B2000F076F81F2000F013
:1047600073F8232000F070F8E12000F057F8D02013
:1047700000F06AF8042000F067F80C2000F064F8FC
:10478000112000F061F8132000F05EF82C2000F0FA
:104790005BF83F2000F058F8442000F055F8512015
:1047A00000F052F82F2000F04FF81F2000F04CF8D6
:1047B0001F2000F049F8202000F046F8232000F0E8
:1047C00043F8212000F02AF8BDE87040292000F0CD
:1047D00025B800000000024000040240411F5F298C
:1047E00009D84FF4967110FB01F06421B0FBF1F091
:1047F00001490968C8637047B003002008B5010A81
:104800008DF800108DF8010001230222694602484C
:10481000FEF70AFE08BD0000F802002070B5094D41
:1048200006464FF40074002221462846FDF78FFF0C
:10483000304600F009F821462846BDE870400122C4
:10484000FDF785BF0000024001B501231A46694605
:104850000148FEF7E9FD08BDF80200201CF08AFDC2
:1048600001201DF07EFCF9E77FB500212A48009168
:1048700001910291274A0391026001244FF4803292
:104880000461C0E90121017680F820101203C262A0
:1048900004254FF0C062C5618262C16080F830407B
:1048A0004461FDF75EFB08B1FDF78FF90520CDE906
:1048B00000040624694618480294FDF79DFA08B1E1
:1048C000FDF783F90220CDE9004069461248FDF763
:1048D00093FA08B1FDF779F90720009003200190C1
:1048E00069460D48FDF788FA08B1FDF76EF9082012
:1048F000CDE9000569460848FDF77EFA08B1FDF7E5
:1049000064F9054848300068016841F01001016011
:104910007FBD000000200140DC010020194808B5DF
:10492000016841F400110160016801F40011009177
:10493000016841F4800101600068002200F48000F9
:10494000009005210F20FEF797F80F20FEF786F85C
:10495000002205213820FEF78FF83820FEF77EF878
:10496000002205213920FEF787F83920FEF776F876
:10497000002205214520FEF77FF8BDE808404520CC
:10498000FEF76CB83038024010B500F02DFF044A35
:10499000002104481DF0B2FC0349086010BD00006E
:1049A00064AF0208294F0008000000202DE9F04103
:1049B00086B014216846FBF7FBFE1F4800240168FF
:1049C00041F004010160016801F0040105910168F2
:1049D00041F001010160016801F0010105910168E8
:1049E00041F0020101600068144F00F002004FF432
:1049F00000550590002229463846FDF7A8FEDFF84D
:104A00004080EE10002231464046FDF7A0FE0095A2
:104A10000125CDE90154694638460394FDF79AFD16
:104A20000096CDE90154694640460394FDF792FD96
:104A300006B0BDE8F08100003038024000080240B6
:104A4000000402400D4810B50B4901600C4941605B
:104A500000214FF480428160C0E90312416181610D
:104A6000C1610162FDF77EFE002803D0BDE8104061
:104A7000FDF7ABB810BD00000054004084020020D8
:104A8000A08601000B4810B50949016000217F2272
:104A9000C0E90112FF22C0E9032141618161FEF7F3
:104AA00089FB002803D0BDE81040FDF78EB810BD8B
:104AB00000280040D8020020104810B50E490160BF
:104AC0004FF482714160002102228160C0E903122B
:104AD000012242615202C0E9062101624162816203
:104AE0000A21C162FEF7EFFB002803D0BDE81040A9
:104AF000FDF76BB810BD000000380040F802002040
:104B000010B592B000240F941C2108A81094FBF754
:104B10004FFE20216846FBF74BFE20481E490160EE
:104B20006321C0E901144FF49671C0E90314446194
:104B30008461FEF7EAFF08B1FDF747F80F940FA96B
:104B400016481094FEF7B8FD08B1FDF73EF8602056
:104B5000CDE908040A940B940C940D94082208A93A
:104B60000E480E94FEF76BFF08B1FDF72EF8009487
:104B70004FF40050CDE90440029401940394694637
:104B800006480794FEF76EFD08B1FDF71EF80348CE
:104B9000FEF712FF12B010BD00000140B00300206C
:104BA00010B588B014216846FBF702FE00241548B2
:104BB00005944FF08041069401600921C0E9011479
:104BC00040F2E731C0E9031480218161FEF7B2FDB4
:104BD00008B1FCF7FAFF009469460A480194FFF710
:104BE00051F808B1FCF7F1FF2020CDE9050405A933
:104BF0000448FEF761FD002801D0FCF7E6FF08B08D
:104C000010BD0000F803002010B58AB000240794FE
:104C10001C2168460894FBF7CBFD16481449016037
:104C20006321C0E90114FA21C0E903148461FEF78D
:104C30006CFF08B1FCF7C9FF079407A90D48089459
:104C4000FEF73AFD08B1FCF7C0FF6020CDE9000493
:104C500002940C22694607480494FEF7F0FE08B15E
:104C6000FCF7B3FF0348FEF7A7FE0AB010BD000033
:104C700000080040400400200C4810B50A490160BB
:104C80000B494160002181600C22C160C0E904121F
:104C90008161C161FFF794F9002803D0BDE810409D
:104CA000FCF793BF10BD000000140140A4040020D5
:104CB00060E31600FEE7FEE718210148FBF778BD28
:104CC000F405002070B5074C207D002809D0256828
:104CD000286800B18047A868006819F085FE0020A8
:104CE000607570BDF405002004490A7D052A04D2D0
:104CF00041F82200087D401C08757047F40500202B
:104D00002DE9F041044600680025C168490618D421
:104D1000C16841F08001C160FDF71EFD06464FF4F9
:104D20007A78042707E000BFFDF716FD801B404599
:104D300001D9677701252068C068400601D4002D9D
:104D4000F2D02846BDE8F08170B504460068002521
:104D5000C16821F08001C16020688068800606D4A7
:104D60002046FEF793FA10B104206077012528460B
:104D700070BD10B5806B01684A6822F003024A607A
:104D8000416D41F010014165012180F85110FEF79D
:104D900099FA10BD10B5806BFEF761FC10BD38B5F7
:104DA0000546846BFDF7D8FC024628680068C005FC
:104DB00023D42068416821F02001416020684168C7
:104DC00021F0020141606421204600F01BF818B177
:104DD000606D40F020006065A068002118B920686F
:104DE000C26880680090E186012084F85100606DFF
:104DF00018B12046FEF766FA38BD2046FEF72EFCB5
:104E000038BD0000F8B515460E460B460092044624
:104E10000122022100F02CF8A0B9134813490068C0
:104E2000B0FBF1F04FF47A71484300906068B0F540
:104E3000827F0DD13346002280212046009500F06C
:104E400017F870B1606D40F0200060650320F8BD78
:104E5000009830B1401E009020688068C043000672
:104E6000F6D50020F8BD0000A000002000366E013D
:104E70002DE9F8431E46914688460446089DFDF7F5
:104E80006BFC401B351AFDF767FC07462548006898
:104E9000C0F3CB30684338E0701C37D0FDF75CFCC2
:104EA000C01BA84203D215B1009860B32CE0206863
:104EB000416821F0E00141606068B0F5827F0BD16C
:104EC000A068B0F5004F02D0B0F5806F04D1206823
:104ED000016821F040010160A06AB0F5005F09D1CE
:104EE0002068016821F4005101602068016841F4E4
:104EF00000510160012084F85100002084F8500026
:104F00000320BDE8F8830025401E009020688168DA
:104F100038EA010004D000214945BDD10020F0E766
:104F20000121F9E7A0000020064D4FF400544FF492
:104F3000FA7621462846FDF702FC30461DF011F9AD
:104F4000F7E700000008024010B54FF0E0200069CC
:104F500025F046F9012803D0BDE8104024F006BE34
:104F600010BD000030B593B030216846FBF720FC3F
:104F700014210CA8FBF71CFC1D480024016841F01B
:104F800080510160006800F080501190194801685C
:104F900041F4404101600068102100F4404011904C
:104FA0000A2000900120CDE903010225CDE9050585
:104FB0000820CDE907406420CDE9090504200B90C5
:104FC0006846FDF741FF08B172B6FEE70F20CDE954
:104FD0000C054FF48050CDE90E4003210CA810942D
:104FE000FDF726FE002801D072B6FEE713B030BDF3
:104FF00040380240007000400248016841F47001EE
:105000000160704788ED00E010B50448FEF73BFCF6
:10501000BDE810400248FEF736BC0000B003002097
:10502000AC050020F0B50268204B214C9F03214DB8
:10503000214E984207D0B84205D0A04203D0A842E2
:1050400001D0B04204D122F0700C4A6842EA0C024E
:10505000984210D0B8420ED0A0420CD0A8420AD03C
:10506000B04208D0154CA04205D0154CA04202D049
:10507000144CA04203D122F44074CA6822434C6904
:1050800022F08002224302608A68C2620A68826259
:10509000984201D109690163012141610169C90790
:1050A00003D0016921F001010161F0BD0000014060
:1050B0000004004000080040000C00400040014097
:1050C000004401400048014010B501F01F030121D8
:1050D000046A99408C430462016A9A401143016258
:1050E00010BD10B5846842EA032224F47F440A43C9
:1050F0002243826010BD000030B5036A026A22F0CC
:10510000010202624268846924F073050C682C4332
:1051100023F002058B682B430A4DA8420BD123F0E4
:105120000805CB6822F440722B434D6923F0040339
:1051300015438A692A434260846149684163036276
:1051400030BD00000000014030B5026A036A23F060
:1051500010030362436884690D6824F4E64444EA5A
:1051600005248D6822F0200242EA05120B4DA84268
:105170000ED1CD6822F0800242EA05124D6923F477
:10518000406343EA85038D6922F0400243EA8503C8
:105190004360846149688163026230BD0000014060
:1051A00030B5036A026A22F4807202624268C469FE
:1051B00023F4007324F073050C682C438D6843EAD4
:1051C00005230C4DA8420ED1CD6823F4006343EAB9
:1051D00005234D6922F4405242EA05128D6923F4F9
:1051E000806342EA05124260C4614968C163036298
:1051F00030BD00000000014030B5046A026A22F4AC
:10520000805202624268C3690D6823F4E64343EAB0
:1052100005238D6824F4005444EA0534064DA84261
:1052200004D14D6922F4804242EA85124260C36192
:1052300049680164046230BD0000014070B5036834
:1052400000249A6822F070054A682A4322F0070574
:105250000A682A439A604A6812F00F0F31D112117E
:10526000082A2ED2DFE802F02E2E2E2E0B21270444
:105270000B69D1E902210068FFF733FF22E00A68D9
:10528000052A10D00268136A156A25F00105156217
:1052900002689569096925F0F00545EA01119161F7
:1052A000006803620EE0012070BD0A698968006829
:1052B00000F00AF806E00A698968006800F015F84D
:1052C00000E00124204670BD10B5036A046A24F092
:1052D00001040462846924F0F00444EA021423F017
:1052E0000A020A438461026210BD10B5036A046AAF
:1052F00024F010040462846923F0A00324F47044B1
:1053000044EA023243EA01118261016210BD0120C8
:105310001BF06CBF0A46014601230148FEF704BF9B
:10532000A404002010B5806B0021C185C184FEF764
:105330000EFD10BD70B5846B2068406994F8411073
:10534000C0F3C0100025212904D118B1E5842046FE
:1053500000F0B4F82068406994F84210C0F380105F
:10536000222904D118B1E585204600F080F8606C50
:1053700040F0100060642046FEF7E9FC70BD10B5F7
:105380000146806B096809684FF00002C9052ED4F8
:10539000C28501680C3151E8003F23F4807341E875
:1053A0000034002CF5D10168143151E8003F23F09E
:1053B000010341E80034002CF5D10168143151E8B3
:1053C000003F23F0400341E80034002CF5D12021B8
:1053D00080F84210016B012909D101680C3151E8B4
:1053E000003F23F0100341E80034002CF5D1426364
:1053F000016B012902D0FEF795FE10BD818DFEF7ED
:105400006DFC10BD10B5806B01214163016B01295A
:1054100002D0FEF788FE10BD818D4908FEF75EFCC4
:1054200010BD10B50146806B09680968C90516D41E
:105430000021C1840168143151E8002F22F080025C
:1054400041E80023002BF5D101680C3151E8002F11
:1054500042F0400241E80023002BF5D110BDFEF7D9
:10546000EFFE10BD10B5806BFEF7EBFE10BD0168BE
:105470000C3151E8002F22F4907241E80023002BF8
:10548000F5D10168143151E8002F22F0010241E802
:105490000023002BF5D1016B012909D101680C31E2
:1054A00051E8002F22F0100241E80023002BF5D133
:1054B000202180F8421000210163704701680C31FF
:1054C00051E8002F22F0C00241E80023002BF5D163
:1054D000202180F84110704708B590F84210222929
:1054E00001D0022008BD82684FF480539A4201D156
:1054F000016921B1816A9A421BD04AB10AE002686F
:10550000816A5268C2F308020A80816A891C08E035
:10551000026972B10268526802F07F020A70816A01
:10552000491C8162C18D491E0904090CC18503D043
:105530001BE002685268F1E70168CA6822F02002A5
:10554000CA600168CA6822F48072CA6001684A6948
:1055500022F001024A61202180F8421000214163BB
:10556000026B012A03D0FEF7DDFD002008BD0163B8
:1055700001680C3151E8002F22F0100241E80023AD
:10558000002BF5D101680A68D20602D50A6849687D
:105590000091818DFEF7A2FBE7E7000070B504469D
:1055A00000680169E26821F44051114301612169F9
:1055B000A068E26908436169114308432168CA6829
:1055C00049F20C639A430243CA6020684169A269A8
:1055D00021F440711143416131492068884202D071
:1055E0003049884202D1FDF7EDFB01E0FDF7DAFB1F
:1055F000E2690023192164253226B2F5004F626862
:1056000028D0A0FB0101930F9200FAF71BFF01467F
:10561000B0FBF5F06FF01802504301EB800006EB91
:105620000010B0FBF5F000F0F002B1FBF5F002EB7A
:105630000012B1FBF5F06FF01803584301EB800046
:1056400006EB0010B0FBF5F000F00F0021681044ED
:10565000886070BDA0FB010192185B41FAF7F2FE71
:105660000146B0FBF5F00201B1FBF5F06FF0180355
:10567000584301EB800006EBC000B0FBF5F000F0F2
:10568000F80002EB4002B1FBF5F0584301EB80005B
:1056900006EBC000B0FBF5F000F00700D6E7000015
:1056A000001001400014014038B581620446828533
:1056B000002013466064222284F84220E56B1B4AD6
:1056C000EA63E56B1A4A2A64E56B1A4AEA64E26BFC
:1056D00010650A462168E06B091DFCF7F1FE2068A1
:1056E000016840680090206948B120680C3050E89B
:1056F000001F41F4807140E80012002AF5D12068B3
:10570000143050E8001F41F0010140E80012002A67
:10571000F5D12068143050E8001F41F0400140E806
:105720000012002AF5D1002038BD00007F53000888
:1057300005540008355300082DE9F84398461746EC
:105740000D460446089E24E0701C22D0FDF704F8A4
:10575000A0EB0800B0421AD8CEB12068C168490752
:1057600017D5802D15D0402D13D00168C9430907E6
:105770000FD401680025406800902046FFF777FEAF
:105780000820606484F840500120BDE8F8830320BD
:10579000FBE72068006835EA000004D00020B8422A
:1057A000D2D00020F1E70120F9E700000B4810B546
:1057B00000680168C943C9060AD46FF0100101608E
:1057C0000648FEF78CFA192205490448FEF79CFCAE
:1057D000BDE810400148FEF7BBBA0000A404002059
:1057E00088040020FEE7000010B5002201210420FB
:1057F0001CF024FD0E4C0F4A002120610E481CF0C5
:105800007DFD0C4A2060243200210C481CF076FDFE
:10581000084A60604832002109481CF06FFD054AC3
:10582000A0606C32002107481CF068FDE06010BDEC
:105830000400002088AF020849420008A51B0008A8
:10584000554400085D48000803B4019841000098E1
:1058500050EAC12018BF04204A0D18BF40F00100D3
:1058600040F2FF72B2EB515F08BF40F00200012826
:1058700008BF052002B070470907090E002804DBA5
:1058800000F1E02080F80014704700F00F0000F1F4
:10589000E02080F8141D704770B5044600256FF0B5
:1058A0002F0608E02068411C2160007805EB850187
:1058B00006EB410145182068007800F061F80028E7
:1058C000F0D1284670BD70B514460D461BB911467F
:1058D0000CF0F6FB034603FB05F0142C0ED0E11F81
:1058E00003290AD8072C0DD0082C0DD0092C0DD077
:1058F0000A2C0DD0002100EB810070BD590801FB7E
:10590000050070BD0221F6E70421F4E71021F2E75B
:105910004FF48071EFE7000010B516482DED028BB3
:105920000178491CC9B201700A2907D3002101700E
:10593000406816F014FD002018F096FD0E4800682F
:105940001DF082FA51EC100B24F054FE08EE100A00
:105950000A4800681DF078FA51EC100B24F04AFE5A
:10596000F0EE480ABDEC028B00EE100ABDE81040D4
:105970001FF00ABF2C0000209C000020980000208F
:105980003038092801D8012070470020704730388E
:105990000A2801D201207047002070472DE9FC5FE2
:1059A0009B460CAB8A468146DDE9116093E81210F4
:1059B000DDE90F575FEA80784FF030031AD45EB10B
:1059C0005FEAC07808D000F00C0858EA0C0803D051
:1059D000761E01E00B55641CBC4204D2202CF9D386
:1059E00001E00B55641C5FEAC07803D0B44201D2D9
:1059F000202CF6D35FEAC06825D55FEA40580AD468
:105A00004CB1BC4201D0B44205D1641E03D0102D6C
:105A100003D1641E04E0102D02D0022D0AD00EE046
:105A2000850603D4202C1ED2782506E0202C1AD21D
:105A3000582502E0202C16D262250D55641C202C1E
:105A400011D20B55641C202C0DD2BCF1000F01D0DB
:105A50002D2306E0430701D52B2302E0030702D5DF
:105A600020230B55641CCDE900BAC8461546814673
:105A70008B46AA46800714D1274607E02A46DDE96F
:105A800000316D1C2020C446E0477F1CB742F5D38F
:105A900007E02A466D1C641EDDE900311BF8040096
:105AA000C047002CF5D15FEA897006D409E02A4688
:105AB000DDE900316D1C2020C047A5EB0A00B04293
:105AC000F5D32846BDE8FC9F2DE9F04F8FB09946ED
:105AD0008B46DDE91818DDE91C63DDE91A479246BB
