:020000040800F2
:10000000183B0020B1010008873A0008652B000862
:10001000853A0008890300084D61000800000000CF
:10002000000000000000000000000000E13D0008AA
:100030006104000800000000033C0008A93E00081D
:10004000CB010008CB010008CB010008CB01000860
:10005000CB010008CB010008CB010008CB01000850
:10006000CB010008CB010008CB010008CB01000840
:10007000CB010008CB010008CB010008CB01000830
:10008000CB010008CB010008CB01000800000000F4
:10009000000000000000000000000000CB0100088C
:1000A000CB010008CB010008CB010008CB01000800
:1000B000CB010008CB010008CB010008CB010008F0
:1000C000CB010008CB010008CB010008CB010008E0
:1000D000CB010008CB010008CB01000800000000A4
:1000E000CB010008CB010008CB0100080000000094
:1000F000000000000000000000000000CB0100082C
:1001000000000000CB010008CB010008CB01000873
:1001100000000000000000000000000000000000DF
:10012000CB010008CB010008CB010008CB0100087F
:10013000CB010008000000000000000000000000EB
:10014000000000000000000000000000893A0008E4
:10015000CB010008CB010008CB010008CB0100084F
:10016000CB010008CB0100080000000000000000E7
:10017000000000000000000000000000000000007F
:1001800000000000CB01000800000000000000009B
:10019000CB010008CB010008DFF810D000F0A4F874
:1001A0000048004785630008AFF30080183B00203B
:1001B0000648804706480047FEE7FEE7FEE7FEE701
:1001C000FEE7FEE7FEE7FEE7FEE7FEE73D3F00084D
:1001D000990100082DE9F05F0546002092469B46F4
:1001E00088460646814640241BE02846414647464D
:1001F000224600F068F853465A46C01A914110D37F
:1002000011461846224600F04FF82D1A67EB0108F8
:100210004F4622460120002100F046F817EB000966
:100220004E41201EA4F10104DFDC484631462A4637
:100230004346BDE8F09F40EA01039B0703D009E075
:1002400008C9121F08C0042AFAD203E011F8013BC2
:1002500000F8013B521EF9D27047D2B201E000F81B
:10026000012B491EFBD270470022F6E710B513465A
:100270000A4604461946FFF7F0FF204610BD421C0F
:1002800010F8011B0029FBD1801A704710B500221D
:1002900000E0521C835C8C5CA34201D1002BF8D19E
:1002A000D8B2E1B2401A10BD202A04DB203A00FA8D
:1002B00002F1002070479140C2F1200320FA03F3BD
:1002C000194390407047202A04DB203A21FA02F0BB
:1002D0000021704721FA02F3D040C2F12002914080
:1002E0000843194670470000064C074D06E0E068D9
:1002F00040F0010394E8070098471034AC42F6D36D
:10030000FFF74EFF38A0000858A000080EB50A23DA
:100310000092CDE9011302460123A021014800F01B
:1003200011FE0EBD200100200EB50A230092CDE97A
:10033000011302460123A021014800F005FF0EBD74
:100340002001002008B500250BA005F0A5FD8DF8C3
:1003500000500024684605F06DFD28B19DF80000AE
:10036000302801D103F0B2F90A2000F011FB641C1F
:10037000322CEFDBE8E7000023235049434F5F4274
:100380004F4F5423230D0A00FEE700207047002042
:100390007047000010B500220449054804F0B8F881
:1003A0000449034804F0A7F8002010BD101C0020E9
:1003B000340700201014002070B500220B4C0C4BA9
:1003C00008E0855C1E88A5551D886D1CC5F30A05CF
:1003D0001D80521C0D689542F3D80146054804F073
:1003E0008AF8044804F060F8002070BD100C00206A
:1003F000760000203407002000207047094A10B51D
:10040000D2F8BC22D2F814220AB1012010BD0A464B
:100410000146044804F07CF8BDE81040014804F0AF
:10042000F1B80000340700203EB50B4A04460D46E3
:10043000106840F480501060106800F48050029002
:1004400006480090684600F05AFAAA082146684615
:1004500000F03EFA3EBD000030380240003002405D
:10046000704708B50A2000F093FA6A46022100207E
:10047000FFF74CFF9DF80000552803D19DF80100BF
:10048000AA2821D055208DF80000AA208DF801005F
:100490000A2000F07DFA6A4602210020FFF744FF9F
:1004A000002000900A2000F073FA6A460221002022
:1004B000FFF72CFF9DF80000552803D19DF801009F
:1004C000AA2801D0012008BD002008BD0EB50020DB
:1004D0000090019002906A4608212020FFF716FF45
:1004E00004A16846FFF7D2FE08B100200EBD01202E
:1004F0000EBD00007570646174650D0A0000000097
:100500000EB510B107A007C801E009A207CA8DE81F
:1005100007006846FFF7B3FE81B26A462020FFF766
:1005200003FF0EBD7570646174650D0A0000000064
:100530002D6E6F70652D0D0A0000000072B6FEE78B
:10054000002229B101291AD002291BD04FF4407290
:100550000E490B6823F440730B600B6813430B6068
:100560000A6822F0F8020A600A68022303EBC0005E
:1005700002430A60086840F48030086070474FF416
:100580008072E5E74FF40072E2E70000103C0240A1
:100590001348016889050FD5016821F400710160D5
:1005A000016841F400610160016821F400610160AB
:1005B000016841F400710160016849050FD50168C7
:1005C00021F480610160016841F48051016001689B
:1005D00021F480510160016841F48061016070473D
:1005E000003C024038B50220009001240A4800F087
:1005F00031F9C0088440C4F58050009000F032FA10
:100600000121009800F092F800F020FA08B10220D1
:1006100038BD012038BD00000000010810B586B0CB
:100620000B4800F017F90446002000900294094896
:1006300000F010F9001B401C03900220049005A953
:10064000684600F0B7F9002800D0012006B010BDC0
:1006500000000108FFFF070800B587B000210290E5
:100660000120039002200091049005A9684600F043
:10067000A1F9002800D0012007B000BD10B508483E
:1006800000F0E8F807490988C008C14040F6FF7249
:10069000C240914201D1012010BD002010BD0000D8
:1006A00000000108163C024010B500F0DBF90249D9
:1006B000F320086010BD00000C3C02402DE9F04121
:1006C00016468846054600240D4F11E058F82410C0
:1006D000286800F03BF82868016858F82400814237
:1006E00002D00220BDE8F0812868001D2860641C4B
:1006F000B44202D22868B842E8D90020F2E70000EC
:10070000FBFF070808490A6822F440720A600A6879
:1007100042F004020A600A684FF4803343EA002082
:1007200002430A6070470000103C024010B50446C6
:100730004CF2503000F05AF8002803D102490A88E0
:1007400022430A8010BD0000163C0240074A13688D
:1007500023F440731360136843F400731360136849
:1007600043F001031360016070470000103C024039
:100770001C490868C2061C4805D5C26942F010022F
:10078000C26110220A600A68920605D5C26942F069
:100790000802C26120220A600A68520605D5C269B1
:1007A00042F00402C26140220A600A68120605D5BE
:1007B000C26942F00202C26180220A600A68D20560
:1007C00006D5C26942F00102C2614FF480720A602C
:1007D0000A68920705D5C26942F02002C261022070
:1007E000086070470C3C02401402002070B51149AB
:1007F00004460020C86100F0DBFA06460E4D09E011
:10080000601C07D024B100F0D3FA801BA04201D9AC
:10081000032070BD2868C003F2D42868C00701D047
:1008200001202860286810F4F970F2D0FFF7A0FFCB
:10083000012070BD140200200C3C024008B50020CD
:100840008DF80000684605F0F5FA0028FAD09DF80A
:10085000000008BD01460020A1F100634FF4804272
:10086000934204D314480844904201D201207047B7
:1008700012480844904201D20220704710480844B0
:10088000904201D2032070470E480844B0F5803FE3
:1008900001D2042070470C480A184FF400308242FD
:1008A00001D205207047094A1144814201D2062035
:1008B000704707207047000000C0FFF70080FFF777
:1008C0000040FFF70000FFF70000FEF70000FCF714
:1008D00030B50223437103689C6844F001049C60B6
:1008E000002304E0056851F823402C605B1C934210
:1008F000F8D30168096801224271084630BD10B57D
:10090000040002D0607910B106E0012010BD002083
:100910002071204600F004F801206071002010BD15
:1009200008B500680649884208D10648016841F4C4
:1009300080510160006800F48050009008BD000004
:1009400000300240303802400E4910B50C480860B3
:1009500000200860091D0C4A0A60086009490B4A1A
:1009600010390A6008608022091D0A600860421E72
:10097000091D0A60086000F0F5FC002010BD0000B1
:100980000FC8E21020380240317917009F10600034
:1009900070B5044600F00CFA0546601C02D004480D
:1009A0000078044400F004FA401BA042FAD370BD62
:1009B000080000202DE9F047044622480F46017E3A
:1009C00001290AD00121804601764CF2503948466F
:1009D000FFF70CFF020003D02FE00220BDE8F087F4
:1009E0004FF0FF3038602068174D012801D0A6680D
:1009F0001CE0207C6168FFF785FE4846FFF7F6FEA5
:100A00000246286820F00400286014E0217C30466B
:100A1000FFF796FD4846FFF7E9FE0200286820F040
:100A2000FA00286001D03E6005E0761CD4E902108F
:100A30000844B042EAD8FFF7ABFD002188F818104F
:100A40001046CBE714020020103C02400448017815
:100A500041F0020101704CF25030FFF7C7BE0000B8
:100A6000143C0240074900200A68002A09DA054AB6
:100A7000054B0C3A1360054B13600968002900DA36
:100A800001207047103C024023016745AB89EFCD40
:100A90002DE9F04F0022DFF808B101264FF00F09D1
:100AA00006FA02F401EA0403A34274D122F0030718
:100AB0005F44D7F8088895074FEA157C09FA0CFAC5
:100AC0000AEA0805DFF8DC80404502D14FF0000853
:100AD0001DE0DFF8D480404502D14FF0010816E058
:100AE000DFF8C880404502D14FF002080FE0DFF880
:100AF000C080404502D14FF0030808E0DFF8B48021
:100B0000404502D14FF0040801E04FF0070808FA11
:100B10000CF8A84522D1284DD5F800C02CEA030CCA
:100B2000C5F800C02D1DD5F800C02CEA030CC5F88F
:100B300000C0214D0C35D5F800C02CEA030CC5F8D7
:100B400000C02D1FD5F800C02CEA030CC5F800C06A
:100B5000D7F8085825EA0A05C7F808580568570065
:100B60000323BB409D430560D50800EB8505D5F800
:100B700020C057074FEAD76809FA08F72CEA070C94
:100B8000C5F820C0C5689D43C5604568A54345605C
:100B900084689C438460521C102A81D3BDE8F08F86
:100BA0000030014000000240000402400008024002
:100BB000000C024000100240003C01402DE9F84FBB
:100BC000DFF8B8A10022012403254FF00F090AF134
:100BD000040BAAF1040E00BF0B6804FA02F63340BE
:100BE000B34273D10F7907F00307012F01D0022F11
:100BF00016D187684FEA420805FA08FC27EA0C0775
:100C0000D1F80CC00CFA08FC4CEA070CC0F808C07C
:100C10004768B7430E79C6F3001696403E434660D8
:100C20000E79F643B6070DD0C768560005FA06FCE4
:100C300027EA0C07D1F808C00CFA06FC4CEA070CAE
:100C4000C0F80CC00E7906F00306022E10D1D608AB
:100C500000EB8608D8F8206057074FEAD76C09FAEE
:100C60000CF7BE430F6907FA0CF73743C8F820703A
:100C700006684FEA420C05FA0CF7BE430F7907F0FD
:100C8000030707FA0CF7374307604E6816F4403F36
:100C90006DD03B4E376847F480473760366822F0A6
:100CA000030706F480460096364E07EB060CDCF888
:100CB000086897073F0F09FA07F826EA0806DFF8E1
:100CC000C880404503D14FF000081EE04FE0DFF838
:100CD000BC80404502D14FF0010816E0DFF8B0803B
:100CE000404502D14FF002080FE0DFF8A8804045F0
:100CF00002D14FF0030808E0DFF89C80404502D1A4
:100D00004FF0040801E04FF0070808FA07F848EA36
:100D10000608CCF80888DAF800605746D1F804C015
:100D20009E435FEACC2C00D51E433E60DBF800609A
:100D30005F46D1F804C09E435FEA8C2C00D51E4369
:100D40003E60DEF800607746D1F804C09E435FEA5B
:100D50008C3C00D51E433E60084F083F3E68D1F8EA
:100D600004C09E435FEACC3C00D51E433E60521C4B
:100D7000102AFFF431AFBDE8F88F0000083C0140B5
:100D800044380240003001400000024000040240AC
:100D900000080240000C02400010024000690840B8
:100DA00000D0012070470AB1816170470904FBE758
:100DB00001488068704700000800002070B50400FA
:100DC00025D094F83D00002520B984F83C502046F9
:100DD00000F052FA242084F83D002068016821F0D8
:100DE000010101602068016841F400410160206850
:100DF000016821F40041016001F0C2F94D4A6168C7
:100E0000914201D84C4900E04C49884201D201206E
:100E100070BD4B492368B0FBF1F15E6826F03F06D8
:100E20000E435E606368934206D94FF4967359434C
:100E30004FF47A73B1FBF3F12368491C1E6A26F064
:100E40003F06314319626168914210D84900401E43
:100E5000B0FBF1F2521CC2F30B02042A01D20420AF
:100E600022E0B0FBF1F0401CC0F30B001CE0A268D4
:100E7000F2B301EBC10303EB0116431EB3FBF6F320
:100E80005B1C43F480431B0549D092B301EBC102C4
:100E900002EB0111401EB0FBF1F0401CC0F30B004F
:100EA00040F4804040F400402168CA694CF6FF736A
:100EB0009A431043C861D4E90710014320680268CF
:100EC00022F0C00211430160D4E90301014320680C
:100ED000826848F2FF339A4311438160D4E90501E7
:100EE00008432168CA6822F0FF021043C86001E08D
:100EF0000EE016E02068016841F001010160256400
:100F0000202084F83D00256384F83E50002070BD09
:100F100001EB4106431EB3FBF6F35B1CB3E7012074
:100F2000C2E701EB4101401EB0FBF1F0401CC0F3F1
:100F30000B00B7E7A086010080841E0000093D0079
:100F400040420F002DE9FF4F83B09A46DDE911873B
:100F500093460446DDF84090FFF72AFF054694F8D3
:100F60003D00202870D119230122744920460095A4
:100F700001F00EFF0028F5D194F83C00012863D061
:100F8000012084F83C0020680168C90703D101688A
:100F900041F0010101602068016821F400610160F5
:100FA000222084F83D00402084F83E00002626647C
:100FB000C4F82490A4F82A80608D20856048E062FF
:100FC000CDE9007553465A462046049901F0E2FDEA
:100FD000002879D1208DD0B1012821D002282068A5
:100FE00024D0416980690090208D032866D80128AB
:100FF0002BD0544902283B464FF00002009557D0B1
:101000008846204601F0C4FE00285DD13AE0206801
:10101000416981690091016841F4007101607DE0DE
:101020002068016821F480610160F0E7016821F423
:10103000806101602068016841F4006101602068FE
:1010400041698069009069E075E02A46394620468A
:1010500001F044FF88BB54E02068016841F400714E
:10106000016020680069616A0870606A401C606203
:10107000218D491E2185618D491E6185216809697F
:10108000017042E02068016821F4806101602068FD
:101090000069616A0870606A401C6062208D401EB1
:1010A0002085608D401E60853B46002241460095AC
:1010B000204601F06DFE00B9CEE705E02A4639462C
:1010C000204601F00BFF18B1012007B0BDE8F08FFA
:1010D00020680069616A0870606A401C6062208D47
:1010E000401E81B22185608D401E60852068426966
:1010F000D243520712D4032903D1016821F480613D
:10110000016020680069616A0870606A401C606262
:10111000208D401E2085608D401E6085208D00281A
:101120007FF462AF202084F83D0084F83E6084F8AC
:101130003C600020C9E70220C7E700000200100061
:101140000000FFFF040001002DE9FF4F83B09A4625
:10115000DDE9119793460446DDF84080FFF728FE4D
:10116000054694F83D0020287FD1192301224049EB
:101170002046009501F00CFE002876D194F83C0042
:10118000012872D0012084F83C0020680168C9075A
:1011900003D1016841F0010101602068016821F478
:1011A00000610160212084F83D00402084F83E0069
:1011B00000262664C4F82480A4F82A90608D208537
:1011C0002C48E062CDE9007553465A462046049902
:1011D00001F05EFD70B930E02A463946204601F044
:1011E000B5FE58B1206C042804D12068016841F490
:1011F00000710160012007B0BDE8F08F606A2168CE
:1012000000780861606A401C6062218D491E89B2C5
:101210002185628D521E628522685369DB435B071C
:101220000BD469B100781061606A401C6062208D47
:10123000401E2085608D401E6085208D0028CBD10A
:101240002A463946204601F077FD0028CAD154F8D5
:101250003D0B016841F400710160202004F81E0973
:10126000E67766770020C6E7FFE70220C3E70000C5
:10127000020010000000FFFF10B586B004461421E4
:101280006846FEF7F1FF13492068884220D11248D2
:101290000021026842F002020260006800F00200D1
:1012A0000590C02000901220CDE901010320039099
:1012B0000420049069460948FFF780FC0648103076
:1012C000016841F400110160006800F4001005900D
:1012D00006B010BD00540040303802400004024007
:1012E000024881680278114481607047080000203C
:1012F0000B4810B5016841F400710160016841F4C8
:1013000080610160016841F480710160032000F098
:1013100081F80F2000F006F800F026F8002010BD3C
:10132000003C024070B50D4D04464FF47A712878A8
:10133000B1FBF0F00A490968B1FBF0F001F06BFA7B
:1013400048B9102C07D200222146501E00F042F866
:1013500000206C6070BD012070BD000008000020FE
:1013600014000020704700000A4808B5016841F4E5
:1013700080410160006800F4804000900548001F33
:10138000016841F080510160006800F080500090D9
:1013900008BD00004438024000280DDB00F01F02A9
:1013A000012191404009800000F1E020C0F8801147
:1013B000BFF34F8FBFF36F8F7047002809DB00F03A
:1013C0001F02012191404009800000F1E020C0F897
:1013D00000117047F0B40E4B1B680C46C3F3022398
:1013E000C3F10705042D00D90425191D072901D2D1
:1013F000002300E0DB1E012606FA05F1491E21400C
:1014000099409E40761E16403143F0BC04F05EBF0A
:101410000CED00E0064900F0070208684FF6FF03F4
:10142000184040EA0220034A104308607047000059
:101430000CED00E00000FA057047006841620020F2
:101440007047F0B50368586A39B19C6A4FF48276E8
:1014500000EB144400204D1E0AE040EA024098626E
:101460000FE006EB8007DF59401C04EB1744C0B2C5
:10147000A842F6D344EA02404FF4807202EB8101A5
:1014800058500020F0BDD0F8E00403F071BB01EB30
:10149000C10200EB8202D0F8E004126A03F0BDBA88
:1014A00001EBC10200EB8202D0F8E004D2F8602226
:1014B00003F00EBB10B5040006D0032084F8950499
:1014C000206804F001FE08B1012010BD204600F0A4
:1014D0002DFC002084F8950410BDD0F8E00403F042
:1014E00049BB0A0601F00F0101EBC10100EB8101CC
:1014F00001D5143101E001F51571006804F0FABB63
:1015000070B504460B0601F00F0000EBC00104EBC0
:1015100081014FF001024FF0000502D54A751431E8
:1015200003E081F8555201F51571087094F89404A0
:10153000012808D084F89424206803F039FF84F847
:101540009454002070BD022070BD70B5044601F0B7
:101550000F002279904201D9012070BD0B0601F0E5
:101560000F0101EBC10104EB81014FF001024FF0CB
:10157000000502D54A75143103E081F8555201F592
:1015800015718D70087094F89404012808D084F8BF
:101590009424206804F03AFA84F89454002070BD32
:1015A000022070BD01F00F0101EBC10100EB8100D1
:1015B000D0F8680270472DE9F04104460F0601F0AB
:1015C0000F0000EBC00104EB81014FF001064FF06A
:1015D000000502D54E75143103E081F8555201F52E
:1015E0001571C2F30A0208708A600B714A7802B161
:1015F0004883022B00D14D7194F89404012809D03E
:1016000084F89464206803F025FE284684F89454F6
:10161000BDE8F0810220FBE710B501F00F0404EBF8
:10162000C40100EB8101C1E998230023C1F86832AD
:1016300081F8553281F85442837901F51571012BF7
:1016400000D1CA618279006804F038FA002010BD28
:1016500070B504460D4601F00F002179884201D98A
:10166000012070BD29064FF000064FF0010206D59B
:1016700000EBC00104EB81014A75143107E005EB72
:10168000C50104EB810181F8556201F515718A707D
:10169000087094F89404012807D084F894242068F2
:1016A00004F0E0F9280702D007E0022070BDA1791C
:1016B00004F29C42206804F07DF984F894640020D0
:1016C00070BD10B501F00F0404EBC40100EB810103
:1016D000C1E9082300238B6201234B7501F8144FE5
:1016E0008379012B00D1CA618279006804F0E6F9A0
:1016F000002010BD2DE9FC5F05680446284604F073
:1017000095FB00287DD1206804F008FC002878D0E3
:10171000D5F80808C0F30D20C4F8D404206804F0FC
:10172000FDFB800704D52068416901F00201416199
:10173000206804F0F3FBC10604F29C40009034D50D
:101740002068816921F0100181612F6A07F00F0084
:1017500000EBC00004EB8006C7F3434006F51576A6
:10176000022802D0062811D01AE047F6F07007428E
:1017700016D0C7F30A1217462846F16804F0D2FBC8
:10178000F0683844F0607069384408E00822284660
:10179000009904F0C7FB7069C7F30A11084470612F
:1017A0002068816941F010018161206804F0B6FB76
:1017B00000034FF0080B4FF0000A4FF001097CD5F1
:1017C0000026206804F089FB074674E0F80770D013
:1017D000F1B2206804F09AFB8046C00707D005EB01
:1017E0004611C1F8089B3146204602F053F95FEAE2
:1017F000087024D505EB4611C1F808BB2068016CC0
:1018000000E023E200EB46100191D0F8082BFB4BDF
:10181000994205D9110403D54FF40041C0F8081BC3
:10182000204600F00DFBF5490198884207D9A079C0
:10183000012804D120680121009A04F0BBF85FEA76
:10184000C86004D505EB46111020C1F8080B5FEA0B
:1018500088701DD56869000605D5D5F8040840F4E0
:101860008061C5F8041806EBC60004EB800090F810
:10187000571200F51570012905D180F803A0F1B2C7
:10188000204600F0E9F905EB46110220C1F8080BEB
:101890005FEA886004D505EB46102021C0F8081BDC
:1018A0005FEA884005D505EB46104FF40051C0F8BB
:1018B000081B7F08761C002F88D1206804F02EFBBF
:1018C00040036ED5206804F001FB0746002666E061
:1018D000F80762D0F1B2206804F006FB8046C0072A
:1018E00023D006F00F01D5F8342809FA01F18A4314
:1018F000C5F8342805EB4611C1F80899A0790128EC
:101900000FD106EBC60004EB8000D0E9072111449B
:10191000016236B9606A20B920680121009A04F09A
:1019200049F8F1B22046FFF7B2FD5FEA087003D52F
:1019300005EB4611C1F808B95FEAC86004D505EBAC
:1019400046111020C1F808095FEA486004D505EB8C
:1019500046104021C0F808195FEA887016D5314654
:10196000284604F038FA06EBC60004EB8000C17D7F
:101970001430012905D180F803A0F1B2204600F00F
:1019800067F905EB46110220C1F808095FEA086013
:1019900003D53146204602F0E3F87F08761C002F7D
:1019A00096D1206804F0BAFA002811DAD5F80408B4
:1019B00020F00101C5F8041894F8CC0401282BD0BC
:1019C000204600F022FA2068416901F0004141619F
:1019D000206804F0A3FA00050BD5D5F80808C00765
:1019E00002D0204600F07AFA2068416901F40061D3
:1019F0004161206804F092FAC00467D5D5F8040864
:101A000020F00100C5F804081021206804F0E3F973
:101A100000214FF67F3220E084F8CCA4002120463C
:101A2000FFF70AFDCFE700BF05EB4110C0F808291A
:101A3000D0F8003923F40013C0F80039C0F8082B9F
:101A4000D0F8003B23F40013C0F8003BD0F8003B73
:101A500043F00063C0F8003B491C20798842E3D87A
:101A6000D5F81C0840F00111C5F81C18E07B0028CF
:101A700028460DD0D0F8840840F00B01C5F8841832
:101A8000D5F8440840F00B012846C5F844180DE08D
:101A9000D0F8140842F22B010843C5F81408D5F811
:101AA000100840F00B012846C5F81018D0F80008BF
:101AB00020F4FE61C5F80018A1792068009A03F0AF
:101AC00079FF2068416901F480514161206804F088
:101AD00025FA800415D5206803F0FCFB206804F08B
:101AE00098F9E07100F046FB0146E279206804F0C5
:101AF00077FA204600F076F92068416901F4005138
:101B00004161206804F00AFA000707D5204600F07A
:101B100080F92068416901F008014161206804F002
:101B2000FDF9000616D5A86920F08001A9610126FB
:101B30000DE000BF06EBC60004EB800090F85702F2
:101B4000012803D1F1B22046FFF7CBFC761C2079A7
:101B5000B042EFD8206804F0E1F9C0021FD5012699
:101B60004F4614E005EB4610D0F8001906EBC6000E
:101B700004EB8002107E012808D1002906DAF0B2B9
:101B800040F08001D7752046FFF7ABFC761C20792A
:101B9000B042E7D82068416901F4801141612068B2
:101BA00004F0BCF9800234D501204A4629E000BF88
:101BB00005EB4011D1F8001B00EBC00304EB8303DD
:101BC00093F85862012E1BD1002919DA94F8D464D5
:101BD00001F4803106F00106B14211D183F8572299
:101BE000A96941F08003AB616969090608D4D5F899
:101BF000040840F40070C5F8040805E00A30544FAA
:101C0000401C21798142D3D82068416901F4001138
:101C10004161206804F082F9400007D52046FFF7B3
:101C200032FC2068416901F080414161206804F084
:101C300075F940070AD520684568680702D520462F
:101C4000FFF74BFC2068416829434160BDE8FC9FD9
:101C5000D0F8E00402F0E1BFD0F8E00402F0F1BFF8
:101C6000F8B5040005D094F895042668002510B155
:101C700006E00120F8BD84F89454204600F070F886
:101C8000032084F89504B6F1A04F00D1A571206817
:101C900003F0CEFC207C8DF8000094E80F0003F0E8
:101CA00027FB0226B8BB0021206804F05AF990BB3C
:101CB000002001270DE000BF00EBC00104EB810113
:101CC0004F750875C8850D76CD610D62401CC0B298
:101CD0004D6221798142EFD8002011E000EBC00174
:101CE00004EB810181F8555281F8540281F8585271
:101CF000C1F85C52C1F86052401CC0B2C1F86452D5
:101D000021798142EAD8207C8DF8000094E80F0008
:101D100003F0D0FB10B184F89564AAE7657484F8E9
:101D20009574206803F0B8FB0020F8BD10B500687A
:101D3000B0F1A04F0ED10848016821F08001016088
:101D40004FF4C0510548FEF7A3FEBDE81040432004
:101D5000FFF722BB10BD00003438024000000240F3
:101D600010B586B0044614216846FEF77DFA206857
:101D7000B0F1A04F2FD119480021026842F00102B2
:101D80000260006800F0010005904FF4C050009020
:101D90000220CDE90101032003900A200490694646
:101DA0000F48FEF70BFF0D48001D016841F0800150
:101DB00001600A481430016841F480410160006804
:101DC000002200F48040059011464320FFF702FBFB
:101DD0004320FFF7F2FA06B010BD00003038024091
:101DE0000000024070B50446C0790125022801D0E8
:101DF000FEF7A4FB2946D4F8E00402F090FFD4F8E3
:101E0000E004BDE8704002F045BFD0F8E00402F005
:101E10006FBFD0F8E00402F075BF10B5044690F82B
:101E2000940401280AD0012084F894046174206885
:101E300004F0C5F8002084F8940410BD022010BD01
:101E4000D0F8E02400F29C41104602F074BF10B5B7
:101E50000446006894F89414012909D0012184F8FB
:101E60009414C168490609D5617B012902D005E0B7
:101E7000022010BD816B41F480318163206803F042
:101E800088FF206803F0FAFA002084F8940410BD5B
:101E900070B50446006894F894140546012912D0E0
:101EA000012184F8941403F0C3FB206803F0F4FAD2
:101EB0001021206803F08FFFE868400609D5607B99
:101EC000012802D005E0022070BDA86B20F480300C
:101ED000A863002084F8940470BD000010B5044687
:101EE000D0F8E00402F072FF2068D0F8001E41F044
:101EF0000101C0F8001EE07A002804D00248016801
:101F000041F00601016010BD10ED00E02DE9F04741
:101F10000E46050065D0DFF81481D8F80000F7B24E
:101F200000F00700B04207D288F80070D8F800002F
:101F300000F00700B04254D128683D4C810712D50B
:101F4000400703D5206840F4E0502060287800075F
:101F500003D5206840F4604020602068A96820F024
:101F6000F000084320602878C0072DD03049686809
:101F70000839012812D0022813D0032811D009688B
:101F8000890700292DDA216821F00301014321602E
:101F9000FEF70EFF814641F2883A0EE00968890398
:101FA000EFE709688901ECE7FEF702FFA0EB090102
:101FB000514502D90320BDE8F0872068696800F028
:101FC0000C00B0EB810FEFD1D8F80010404601F0C3
:101FD0000701B14207D90770006800F00700B0425E
:101FE00001D00120E7E72878400705D52068E96897
:101FF00020F4E050084320602878000706D52068C8
:10200000296920F4604040EAC100206000F0C8F86F
:102010002168084AC1F30311515CC84006490860B1
:1020200006480068FFF77EF90020C4E7003C024044
:1020300008380240A49E0008140000200C00002074
:102040002DE9F041FEF7B4FE444C0546206840F00F
:102050000100206005E000BFFEF7AAFE401B022839
:1020600047D820688007F7D5206840F080002060BE
:10207000FEF79EFE0546394E00200836306041F2DC
:10208000883704E0FEF794FE401BB84231D8306830
:1020900010F00C0FF6D1FEF78BFE0546206820F4F9
:1020A0005020206005E000BFFEF782FE401B642840
:1020B0001FD820688003F7D4FEF77AFE0546206813
:1020C00020F08070206004E0FEF772FE401B0228C2
:1020D0000FD820688001F7D4FEF76AFE0546206815
:1020E00020F08060206007E0FEF762FE401B0228BF
:1020F00002D90320BDE8F08120680001F4D417491B
:102100001748091D086015491648843108601348AE
:102110000C30016821F4F8510160016821F400518C
:102120000160016841F41F010160016841F4001180
:1021300001600A487430016821F001010160016802
:1021400041F080710160094907480860084800684B
:10215000FFF7E8F80028CDD00120CBE70038024097
:1021600010300004103000200024F400140000207F
:102170000C00002001480068704700001400002097
:102180000448054900680968044AC1F38221515C8A
:10219000C84070471400002008380240B49E000870
:1021A000154810B5006810F00C02144813D01449FB
:1021B000042A0FD0082A0ED10F4C241F226823684E
:1021C00002F03F025B0207D52068C0F38810A0FB35
:1021D000010106E0084610BD2168C1F38811A1FB8A
:1021E00000010023FDF7F6FF2168C1F30141491CFE
:1021F0004900B0FBF1F010BD083802400024F400A3
:1022000040787D012DE9F84F04006ED02078DFF88A
:102210004C93C007A9F104054AD009F104000168F4
:10222000C1F38101012908D00068C0F381000228B0
:102230000AD1D9F80000400206D52868800337D5B6
:1022400060680028E1D033E06068B0F5803F10D0CE
:10225000B0F5A02F286810D020F4803028602868BE
:1022600020F4802028606068A8B1FEF7A1FD064632
:102270000DE0286840F48030F4E740F480202860C6
:10228000F7E700BFFEF794FD801B642873D8286829
:102290008003F7D50CE0FEF78BFD064605E000BF96
:1022A000FEF786FD801B6428F0D828688003F7D4E9
:1022B0002078DFF8AC8280074FF0000A3ED5A748AF
:1022C000001D016811F00C0F08D00068C0F38100F8
:1022D00002280BD1D9F80000400207D428688007F3
:1022E00016D5E068012800D112E033E1E068B8B10A
:1022F0000120C8F80000FEF75BFD064605E000BFC0
:10230000FEF756FD801B0228C0D828688007F7D545
:102310002868216920F0F80040EAC10028600DE03B
:10232000C8F800A0FEF744FD064604E0FEF740FDB5
:10233000801B02281FD828688007F7D42078000760
:1023400022D5864F87486169703771B101210160DC
:10235000FEF72EFD064604E0FEF72AFD801B02284C
:1023600009D838688007F7D50EE0C0F800A0FEF75E
:102370001FFD064605E082E0FEF71AFD801B0228DD
:102380007DD838688007F7D42078400768D5DFF813
:10239000CCB100270BF13C0BDBF80000C0000BD4E4
:1023A000DBF8001041F08051CBF80010DBF80000A2
:1023B000012700F0805000906B4E3068C00510D4AB
:1023C000306840F480703060FEF7F2FC009005E069
:1023D000FEF7EEFC0099401A022850D83068C0057C
:1023E000F6D55E4EA0686C3601280FD005283068FF
:1023F00010D020F001003060306820F00400306020
:10240000A068B8B1FEF7D4FC00900FE0306840F04F
:102410000100F4E740F004003060F7E7FEF7C8FC85
:102420000099411A41F28830814266D830688007AD
:10243000F4D50EE0FEF7BCFC009007E0FEF7B8FC18
:102440000099411A41F28830814256D8306880079D
:10245000F4D42FB1DBF8001021F08051CBF800103C
:10246000A069C8B33D49091D0968C1F3810102296A
:102470004AD00228504607D0C8F8600000E03CE08F
:10248000FEF796FC04463BE04746C8F86000FEF7BE
:102490008FFC064605E000BFFEF78AFC801B022881
:1024A0002BD828688001F7D4D4E907010843A16A32
:1024B0002E4A490802EB0141626A41EA821108434F
:1024C00094F82C1040EA0161C9F800100120386628
:1024D000FEF76EFC044606E03EE000BFFEF768FC37
:1024E000001B022809D828688001F7D534E000BF16
:1024F000FEF75EFC001B022802D90320BDE8F88F1E
:1025000028688001F4D427E00128F7D0D9F800002A
:10251000E26900F4800191421CD1226A00F03F017F
:10252000914217D147F6C071626A0140B1EB821F38
:1025300010D1A26A4FF0FF3300F4403103EB520296
:10254000B1EB024F06D194F82C1000F07060B0EBA4
:10255000016F01D00120D1E70020CFE7043802400D
:1025600000004742800E4742007000400000FFFF1D
:1025700070B5040009D0606A002540B1256165612D
:10258000A56294F8510040B10CE0012070BD606874
:10259000B0F5827FF4D0E561F2E784F85050204630
:1025A00000F044F8022084F851002068016821F00E
:1025B00040010160A088218900F4827001F4044187
:1025C0000843A18901F400610843217C01F0020164
:1025D0000843217D01F001010843218B01F40071C2
:1025E0000843217F01F03801084394F8201001F0DE
:1025F00080010843218D01F40051084321680860DF
:10260000A069042101EA104094F8241001F010019F
:102610000843216848602068C16921F40061C161F4
:102620006565012084F85100002070BD10B586B0AA
:10263000044614216846FDF717FE144920688842B5
:1026400021D113480021026842F4804202600068F0
:1026500000F4804005900E481038026842F00202F3
:102660000260006800F0020005904FF420400090E6
:102670000220CDE901010320039005200490694662
:102680000448FEF79BFA06B010BD00000038004079
:1026900040380240000402402DE9F84F98461646A3
:1026A0008A460446FEF784FB814694F851000128CF
:1026B0001ED1BAF1000F73D0002E71D094F85000E3
:1026C000012815D0012784F85070032084F85100A8
:1026D00000256565C4F830A0A686E686A563A587B3
:1026E000E58765642564A068B0F5004F03D00CE071
:1026F0000220BDE8F88F2068016821F040010160E8
:102700002068016841F48041016020680168490641
:1027100003D4016841F040010160E068B0F5006F4A
:10272000606803D048B3012E27D047E008B1012EDE
:102730001FD1206B21680088C86006E0206881688E
:10274000890709D5216B0988C160206B801C206333
:10275000E08E401EE0860CE0FEF72AFBA0EB0901AC
:10276000414503D3B8F1FF3F03D035E0B8F1000F86
:1027700032D0E08E0028E1D123E0206B2168007880
:10278000087306E02068816889070AD5216B0978FB
:102790000173206B401C2063E08E401EE0860DE03C
:1027A0002BE0FEF705FBA0EB0901414503D3B8F18F
:1027B000FF3F03D010E0B8F1000F0DD0E08E0028ED
:1027C000E0D14A464146204601F078FA08B120207F
:1027D0006065A06830B109E084F8517084F8505009
:1027E000032086E72068C1688068009084F85170F3
:1027F00004F8505F60680028F3D0012079E74FF0BB
:10280000E0210428086903D020F004000861704723
:1028100040F00400FAE710B5401EB0F1807F01D30C
:10282000012010BD4FF0E02460610F21601703F01C
:102830004DFD0020A06107202061002010BD10B5D3
:1028400090F83C20012A22D0012280F83C20CA685E
:102850008C6822F4407222434C6822F48062224346
:102860000C6822F4006222430C6922F48052224355
:102870004C6922F400522243C969002322F48042A9
:102880000A4301684A6480F83C30002010BD0220F1
:1028900010BD000070B590F83C20012A2CD0012416
:1028A00080F83C40022280F83D2003685A689D6809
:1028B00022F070060A6832435A60104B02689A424E
:1028C0000ED0B2F1804F0BD00D4B9A4208D00D4B79
:1028D0009A4205D00C4B9A4202D00C4B9A4204D13A
:1028E000496825F080031943916080F83D4000213C
:1028F00080F83C10084670BD022070BD0000014009
:102900000004004000080040000C0040004001406E
:1029100010B586B0044614216846FDF7A5FC0E49A3
:102920002068884216D10D480021026842F0010259
:102930000260006800F0010005904FF48060009094
:102940000220CDE901010120CDE9031069460448C8
:10295000FEF734F906B010BD0000014030380240E7
:102960000000024070B5044690F83C0000260D4679
:1029700001280FD0012084F83C006AB1042A1DD040
:10298000082A2FD00C2A3FD00126002084F83C00D2
:10299000304670BD022070BD206801F037FB206812
:1029A000816941F0080181612068816921F0040199
:1029B0008161206881692A69114311E0206801F072
:1029C0004DFB2068816941F4006181612068816963
:1029D00021F480618161206881692A6941EA0221CC
:1029E0008161D2E7206801F065FB2068C16941F090
:1029F0000801C1612068C16921F00401C16120683A
:102A0000C1692A69114311E0206801F07FFB206849
:102A1000C16941F40061C1612068C16921F480612C
:102A2000C1612068C1692A6941EA0221C161ACE73C
:102A300010B5040003D094F83D0010B107E0012068
:102A400010BD002084F83C00204600F01FF8022052
:102A500084F83D00211D206801F078FA012084F8F7
:102A6000460084F83E0084F83F0084F8400084F873
:102A7000410084F8420084F8430084F8440084F85C
:102A8000450084F83D00002010BD000008B5006836
:102A90000649884208D10648016841F001010160F9
:102AA000006800F00100009008BD00000000014037
:102AB0004438024010B50446022249B104290ED020
:102AC000082913D094F84100012816D0012010BD28
:102AD00094F83E000128F9D184F83E200FE094F8E4
:102AE0003F000128F2D184F83F2008E094F840002C
:102AF0000128EBD184F8402001E084F84120012234
:102B0000206801F075FA12492068884203D1426CAE
:102B100042F400424264206888420ED0B0F1804FF7
:102B20000BD00C49884208D00B49884205D00B498C
:102B3000884202D00A49884204D1816801F0070125
:102B4000062903D0016841F001010160002010BD99
:102B5000000001400004004000080040000C00405C
:102B600000400140FEE701684A69D24352050FD494
:102B70006FF480624A61002140F8301F20224273C6
:102B80008173026942F004020261017301207047FF
:102B9000002070472DE9F84F0446006889460B9DD8
:102BA00001689846174641F4806101602068016819
:102BB00041F48071016000954FF0011B00225946DD
:102BC00020460A9B00F0E4F84FF4007A40B12068F8
:102BD0000068C00501D5C4F840A00320BDE8F88F07
:102BE000216809F0FE0008612B46284920460A9A10
:102BF00000F016F9F0BB20684169806900902A4610
:102C000020460A9900F0A2F940B1206C04283AD17C
:102C10002068016841F40071016034E0FEB2B8F14F
:102C2000010F09D02168380A08612A4620460A990E
:102C300000F08CF90028E8D1206806612A46204679
:102C40000A9900F083F90028DFD12068016841F477
:102C50008071016000950022594620460A9B00F0D1
:102C600097F80028B3D1216809F0FF0040F0010077
:102C7000086100E007E02B46044920460A9A00F06C
:102C8000CFF80028AAD00120A8E700000200010028
:102C90002DE9F843044600680D46DDE90897016810
:102CA0009846164641F4807101604B4600224FF071
:102CB00001112046009700F06BF848B120680068C9
:102CC000C00502D54FF4007020640320BDE8F883EE
:102CD000216805F0FE0008613B464A46154920463A
:102CE00000F09EF888B920684169806900903A46F2
:102CF0004946204600F02AF948B1206C042804D146
:102D00002068016841F4007101600120DEE7F5B23E
:102D1000B8F1010F09D02168300A08613A464946E6
:102D2000204600F013F90028E7D120680561002053
:102D3000CCE700000200010070B516460D460446BF
:102D40001EE02046FFF70FFF08B1012070BD681C90
:102D500016D0FEF72DF8801BA84200D885B9206850
:102D60004069C04340070BD5002044F8300F2021B4
:102D70006173A073216941F0200121612073E4E7B0
:102D800020684069C0434007DBD4002070BD0000CC
:102D90002DE9F047984617460D460446C1F307460D
:102DA000DDF820902AE000BFB8F1FF3F26D0FDF704
:102DB000FFFFA0EB0901414502D8B8F1000F1DD17A
:102DC0002068012E16D0806925EA00000004000C5E
:102DD00012D00020B84211D1002044F8300F202139
:102DE0006173A073216941F02001216120730120EA
:102DF000BDE8F0874069E7E70120EBE72068012E96
:102E00000AD0806925EA00000004000C06D00020EA
:102E1000B842C9D00020EBE74069F3E70120F7E7AB
:102E20002DE9F047984616460D4604464FF0000936
:102E30004FF0200AC1F3074723E020684069C043F0
:102E4000400515D42068016841F4007101602168D3
:102E50006FF480604861C4F8309084F83DA084F835
:102E60003E90216C41F00401216484F83C9021E003
:102E7000701C06D0FDF79CFFA0EB0800B04203D801
:102E800016B1012F1FD021E02068012F15D08069D5
:102E900025EA00000004000C18D000BF44F8309F61
:102EA00084F80DA084F80E90216941F02001216181
:102EB00084F80C900120BDE8F087406925EA000005
:102EC0000004000CEAD12068406901E020688069B4
:102ED00025EA00000004000CAFD1ECE72DE9F04139
:102EE000002590460E460446202728E04069C0434E
:102EF000C0060CD454F8301B6FF01000486144F841
:102F000010596777A577206A2062257714E0FDF7CE
:102F10004FFFA0EB0800B04200D886B92068406996
:102F2000C04340060BD544F8305F6773A573206932
:102F300040F02000206125730120BDE8F081206869
:102F40004169C9434906D1D40020F6E770B5164659
:102F50000D4604461EE02046FFF705FE08B101209D
:102F600070BD681C16D0FDF723FF801BA84200D857
:102F700085B920684069C04300060BD5002044F89D
:102F8000300F20216173A073216941F0200121617C
:102F90002073E4E720684069C0430006DBD40020CA
:102FA00070BD0000F0B500220D4B154614460A27EF
:102FB000B1FBF3F630368654B1FBF3F603FB161182
:102FC000B3FBF7F3521C861816F8016C302E00D1B3
:102FD00025B16D1C641C0A2CEAD3F0BD0022F9E770
:102FE00000CA9A3BF0B500230A24302537261F4635
:102FF00011E000BFB4EB107F02D905EB107C01E0BB
:1030000006EB107C01F813C001EB430C00015B1CC4
:103010008CF80170DBB29342ECD3F0BD00B587B001
:1030200014216846FDF720F909480021026842F0A2
:1030300001020260006800F0010005900120CDE966
:103040000001029069460348FDF7B8FD07B000BDD6
:1030500030380240000002402DE9F04104461D4690
:1030600016460F462A2000F023FA204600F010FAF8
:10307000304600F00DFA2B2000F01AFA384600F026
:1030800007FA284600F004FABDE8F0412C2000F0D1
:103090000FBA10B5503114468BB289B20246FFF711
:1030A000DBFF2046BDE8104000F0F2B92DE9F04703
:1030B00080461F4603F14F0083B21646501E82B26F
:1030C0000C4601F1500081B24046DDF82090FFF738
:1030D000C3FF0AE0454604E0484600F0D9F96D1CFC
:1030E000ADB2B542F8D3641CA4B2BC42F2D3BDE881
:1030F000F0870000F0B587B014216846FDF7B4F8FA
:103100001848016841F002010160016801F0020104
:103110000591016841F00201016000684FF480569A
:1031200000F00200059001240F4FCDE90064032553
:10313000694603953846FDF741FD01223146384680
:10314000FDF731FE2E02CDE90064084C6946039577
:103150002046FDF733FD012231462046FDF723FED0
:1031600007B0F0BD303802400004024000000240C9
:1031700070B5FFF7BFFF00224FF480716748FDF77D
:1031800012FE674D4FF48054002221462846FDF779
:103190000AFE642003F0D0F8012221462846FDF7FC
:1031A00002FE642003F0C8F8112000F081F97820B5
:1031B00003F0C2F8362000F07BF9C02000F08EF951
:1031C0003A2000F075F9052000F088F9B22000F0EF
:1031D0006FF90C2000F082F90C2000F07FF900203C
:1031E00000F07CF9332000F079F9332000F076F913
:1031F000B72000F05DF9352000F070F9BB2000F039
:1032000057F9192000F06AF9C02000F051F92C207C
:1032100000F064F9C22000F04BF9012000F05EF9E3
:10322000C32000F045F9122000F058F9C42000F046
:103230003FF9202000F052F9C62000F039F90F20A4
:1032400000F04CF9D02000F033F9A42000F046F94A
:10325000A12000F043F9E02000F02AF9D02000F08E
:103260003DF9042000F03AF90D2000F037F9112063
:1032700000F034F9132000F031F92B2000F02EF982
:103280003F2000F02BF9542000F028F94C2000F0EA
:1032900025F9182000F022F90D2000F01FF90B206D
:1032A00000F01CF91F2000F019F9232000F016F996
:1032B000E12000F0FDF8D02000F010F9042000F02B
:1032C0000DF90C2000F00AF9112000F007F9132085
:1032D00000F004F92C2000F001F93F2000F0FEF886
:1032E000442000F0FBF8512000F0F8F82F2000F007
:1032F000F5F81F2000F0F2F81F2000F0EFF8202072
:1033000000F0ECF8232000F0E9F8212000F0D0F8DC
:10331000BDE87040292000F0CBB80000000002405A
:1033200000040240411F5F2909D84FF4967110FB39
:1033300001F06421B0FBF1F001490968C8637047EE
:10334000CC0100202DE9FF4F81B00446DDF83C9010
:1033500000904FEA59074FF00008780700D001208D
:1033600000EBD70000FB09FB203AD0B20390029893
:1033700048444F3083B2E019401E82B20298503068
:1033800081B22046FFF768FE002553E0B9F10C0F2B
:103390002AD0B9F1100F2ED0B9F1180F2ED0B9F1F3
:1033A000200F49D12749039801EB8010002610F81F
:1033B00005A0109800284FF0010000FA06F000EA7E
:1033C0000A0022D020B12046049A0299FFF761FE3C
:1033D000641C0098A4B2201AB84225D10298009C1F
:1033E000401C80B2029023E00398174900EB400094
:1033F00001EB8000DAE71549039803E003981449CC
:1034000000EB400001EB0010D0E708B1049800E0A9
:103410000E9800F03DF808F10100C0B2B0FBF7F1E2
:10342000804607FB118050B1761CF6B2082EC0D33F
:103430006D1CADB25D45A9D305B0BDE8F08F4FF06E
:103440000008F5E7BC81000888650008FC690008F1
:10345000EC6F00082DE9FE4F9946DDE90D67144633
:103460008A460546DDF830800CE0CDF800804B46FA
:1034700051462846CDE90167FFF764FF05EB56008A
:1034800085B2641C2278002AEFD1BDE8FE8F0000CF
:1034900008B5010A8DF800108DF801000123022201
:1034A00069460248FFF7F8F808BD000074010020E3
:1034B00070B5094D06464FF4007400222146284697
:1034C000FDF771FC304600F009F821462846BDE8BA
:1034D00070400122FDF767BC0000024001B50123E6
:1034E0001A4669460148FFF7D7F808BD7401002065
:1034F000074910B5054808600846FDF700FA00289E
:1035000003D0BDE81040FDF719B810BD00300240EF
:10351000000000200D4808B5016841F080010160FD
:10352000016801F080010091016841F00201016031
:10353000016801F002010091016841F001010160A0
:10354000006800F00100009008BD00003038024023
:103550000D4810B50B4901600C49416000214FF442
:1035600080428160C0E9031241618161C1610162F1
:10357000FDF724FC002803D0BDE81040FCF7DEBFB7
:1035800010BD00000054004020010020A086010072
:10359000104810B50E4901604FF48271416000215E
:1035A00002228160C0E90312012242615202C0E995
:1035B00006210162416281620A21C162FEF7D8FFE1
:1035C000002803D0BDE81040FCF7B8BF10BD0000D4
:1035D000003800407401002010B592B000240F9410
:1035E0001C2108A81094FCF73FFE20216846FCF738
:1035F0003BFE20481E4901606321C0E90114FA2105
:10360000C0E9031444618461FFF712FA08B1FCF7C2
:1036100095FF0F940FA917481094FFF73BF908B1D5
:10362000FCF78CFF6020CDE908040A940B940C94FD
:103630000D94082208A90F480E94FFF793F908B1DA
:10364000FCF77CFF00944FF40050CDE90440029455
:1036500001940394694607480794FFF7F0F808B10E
:10366000FCF76CFF0348FFF753F912B010BD0000E0
:1036700000000140CC01002010B500220F49104885
:1036800001F0A6F908B1FCF759FF0E490C4801F00A
:10369000C9FB08B1FCF752FF0B49094800F020FFB5
:1036A00008B1FCF74BFF064801F040FC002803D0AE
:1036B000BDE81040FCF742BF10BD0000280000200C
:1036C00034070020E80000207C0000203C4802F085
:1036D000E3FB3C4802F0E0FB3B4802F0DDFB3B48EB
:1036E00002F0DAFB384802F0D7FB394802F0D4FB8D
:1036F000334802F0D1FB37A002F0CEFBFCF7BEFF4F
:10370000364C002510B90120206000E0256034A06F
:1037100002F0C2FB42A002F0BFFB51A002F0BCFBD2
:103720005FA002F0B9FB206810B16DA002F0B4FBFD
:103730007BA002F0B1FBFDF781F8312806D03228DA
:1037400007D0332807D0342821D023E001F076FFBA
:10375000DDE783A022E08DA002F09EFB4FF47A709B
:10376000FDF716F902F0E6FCFEF76AFCFDF7ECF84F
:103770004FF0E02005614561856172B68E49486869
:10378000A0606060096881F308888047BFE720680F
:10379000012806D0206800280FD088A002F07CFB0A
:1037A000B5E7FCF71FFF012803D00228AFD193A093
:1037B000F4E79DA002F070FBA8E7A3A0EEE70000ED
:1037C000EC9F0008089F0008BC9E0008A09F00080E
:1037D000549F00080D0A0D0A000000001C00002084
:1037E0000D0A3D3D3D3D3D3D3D3D3D3D3D3D3D3D6C
:1037F0003D3D3D3D204D61696E204D656E75203D1E
:103800003D3D3D3D3D3D3D3D3D3D3D3D3D3D3D3DE8
:103810003D3D3D3D3D3D3D3D3D3D3D0D0A0A0000E8
:103820002020446F776E6C6F616420496D6167651D
:1038300020546F207468652053544D3332463478D9
:103840007820496E7465726E616C20466C61736895
:10385000202D2D2D2D2D2D2D20310D0A0A0000009B
:10386000202055706C6F616420496D61676520464A
:10387000726F6D207468652053544D33324634782E
:103880007820496E7465726E616C20466C61736855
:10389000202D2D2D2D2D2D2D20320D0A0A0000005A
:1038A00020204578656375746520546865204E65F1
:1038B000772050726F6772616D202D2D2D2D2D2D6B
:1038C0002D2D2D2D2D2D2D2D2D2D2D2D2D2D2D2D28
:1038D0002D2D2D2D2D2D2D2D20330D0A0A0000000C
:1038E000202044697361626C65207468652077727A
:1038F0006974652070726F74656374696F6E202DD2
:103900002D2D2D2D2D2D2D2D2D2D2D2D2D2D2D2DE7
:103910002D2D2D2D2D2D2D2D20340D0A0A000000CA
:103920003D3D3D3D3D3D3D3D3D3D3D3D3D3D3D3DC7
:103930003D3D3D3D3D3D3D3D3D3D3D3D3D3D3D3DB7
:103940003D3D3D3D3D3D3D3D3D3D3D3D3D3D3D3DA7
:103950003D3D3D3D3D3D3D3D3D3D0D0A0A000000E4
:10396000546869732066756E6374696F6E2069733D
:103970002064697361626C65642120506C656173B9
:10398000652055736520310D00000000537461728D
:103990007420746F2065786563757465207468653C
:1039A0002075736572206170706C69636174696FF2
:1039B0006E2E2E2E0D0A000000000108496E766161
:1039C0006C6964204E756D6265722021203D3D3E1C
:1039D00020546865206E756D6265722073686F751E
:1039E0006C642062652065697468657220312C20E2
:1039F000322C2033206F7220340D00004572726F1C
:103A0000723A20466C61736820777269746520751C
:103A10006E70726F74656374696F6E206661696C35
:103A200065642E2E2E0D0A0057726974652050723F
:103A30006F74656374696F6E2064697361626C652D
:103A4000642E2E2E0D0A0000496E76616C6964208A
:103A50004E756D6265722021203D3D3E20546865A3
:103A6000206E756D6265722073686F756C6420627C
:103A7000652065697468657220312C2032206F7270
:103A800020330D00FEE7FEE70148FDF733BE0000DE
:103A9000302600202DE9F04103680D4604461E6CD7
:103AA00003EB4511D1F8080B94F806E04FF40047FA
:103AB0004FF0200C04F29C42BEF1010F09D0DFF858
:103AC00098E0764539D1020432D500BFC1F8087BB1
:103AD0003FE0224B5FEA007E04D59E4239D90004C4
:103AE000F4D436E05FEA806E02D5C1F808CB30E04E
:103AF00010F0280F2DD19E4201D90004E6D405EB29
:103B0000C50004EB8000D1F8101BD0F87432C1F36B
:103B10001201591AC0F8681200F51570ADB90369A1
:103B20001BB1C2681144C1600FE0012120680AE0A6
:103B300080060AD5C1F808CB07E035B9D4F864028D
:103B400018B90021184601F035FFE9B22046FDF70B
:103B5000A7FC0020BDE8F0810A31544F0A30544FD1
:103B60002DE9F84F0E4601EBC60100EB81048146BA
:103B70000568D4E909101434884202D90120BDE84F
:103B8000F88F081AA168814200D20846C01C870835
:103B900005EB46181BE000BFA0EB010AA0685045EA
:103BA00000D282460AF10300870899F806000090C7
:103BB0001FFA8AF3F2B22846E16802F0A7FAE16838
:103BC00001EB0A00E060616901EB0A006061D8F86E
:103BD000180980B2B84205D3D4E90401814201D268
:103BE0000028D9D1D4E90401884208D806F00F0191
:103BF00001208840D5F834188143C5F834180020D6
:103C0000BDE7704770B50C46054604E0284602F053
:103C100011F9012804D0641EF8D24FF0FF3070BDB6
:103C2000002070BD2DE9F84F884600210646C8F8EF
:103C30000010924611466846FFF7E4FF4FF0FF3947
:103C4000B0BB9DF80000182814D006DC012809D06C
:103C5000022809D004282BD12EE0412816D0612853
:103C600026D113E0802401E04FF4806401253070F8
:103C7000671D15E051466846FFF7C4FFC0B99DF8BF
:103C80000000182814D1C8F8009015E00120BDE804
:103C9000F88F70195146FFF7B5FF48B96D1CADB2EA
:103CA000BD42F6D3B178707881F0FF01884201D02F
:103CB0004846ECE7C8F800400020E8E7F8B51546AC
:103CC0000E460B46009204460122022100F02CF819
:103CD000A0B9134813490068B0FBF1F04FF47A71B2
:103CE000484300906068B0F5827F0DD133460022D2
:103CF00080212046009500F017F870B1606D40F00B
:103D0000200060650320F8BD009830B1401E00908F
:103D100020688068C0430006F6D50020F8BD00008A
:103D20001400002000366E012DE9F8431E4691462E
:103D300088460446089DFDF73BF8401B351AFDF701
:103D400037F8074625480068C0F3CB30684338E0B1
:103D5000701C37D0FDF72CF8C01BA84203D215B158
:103D6000009860B32CE02068416821F0E0014160D8
:103D70006068B0F5827F0BD1A068B0F5004F02D02B
:103D8000B0F5806F04D12068016821F04001016026
:103D9000A06AB0F5005F09D12068016821F40051E4
:103DA00001602068016841F400510160012084F83D
:103DB0005100002084F850000320BDE8F88300255E
:103DC000401E00902068816838EA010004D000217C
:103DD0004945BDD10020F0E70121F9E7140000209A
:103DE00070470178407841EA0020704770B50022A2
:103DF00004781346302C04D14478782C0AD0582CFF
:103E000008D06FF02F05845C74B36B2C2ED04B2C34
:103E10002CD030E082780AB30224025D5AB1A2F1BC
:103E20004105052D0AD9A2F16106052E06D91135E5
:103E3000092D07D913E001200B6011E0A2F1300633
:103E4000092E01D8303A04E0052D01D8373A00E0B8
:103E5000573A641C02EB03130B2CDED302E0002064
:103E60000B2C00D3002070BD0B6002E01AB1980249
:103E700007E0012015E06D2C01D04D2C03D112B1CB
:103E800018050860F5E7A4F13006092E08D803EB01
:103E9000830305EB4303521C23440B2AB3D3E1E70E
:103EA00000200B2ADED270BDFDF71ABA30B593B0F0
:103EB00030216846FCF7D8F914210CA8FCF7D4F996
:103EC0001C480025016841F080510160006800F045
:103ED000805011901848016841F440410160006829
:103EE000022400F440401190012000900004019051
:103EF0008001CDE9064019200890C020CDE90904D1
:103F000004200B906846FEF77DF908B172B6FEE713
:103F10000CA90F2081E831004FF48050CDE90F0546
:103F200003210CA8FDF7F2FF002801D072B6FEE7CE
:103F300013B030BD403802400070004002480168B4
:103F400041F470010160704788ED00E0F0B502684F
:103F5000204B214C9F03214D214E984207D0B8425F
:103F600005D0A04203D0A84201D0B04204D122F033
:103F7000700C4A6842EA0C02984210D0B8420ED047
:103F8000A0420CD0A8420AD0B04208D0154CA042A2
:103F900005D0154CA04202D0144CA04203D122F40B
:103FA0004074CA6822434C6922F0800222430260B6
:103FB0008A68C2620A688262984201D10969016313
:103FC000012141610169C90703D0016921F00101A3
:103FD0000161F0BD00000140000400400008004005
:103FE000000C0040004001400044014000480140F6
:103FF00010B501F01F030121046A99408C4304624B
:10400000016A9A401143016210BD000030B5036A95
:10401000026A22F0010202624268846924F0730598
:104020000C682C4323F002058B682B430A4DA842F1
:104030000BD123F00805CB6822F440722B434D6965
:1040400023F0040315438A692A4342608461496866
:104050004163036230BD00000000014030B5026AD8
:10406000036A23F010030362436884690D6824F433
:10407000E64444EA05248D6822F0200242EA051253
:104080000B4DA8420ED1CD6822F0800242EA051203
:104090004D6923F4406343EA85038D6922F04002B1
:1040A00043EA85034360846149688163026230BDED
:1040B0000000014030B5036A026A22F48072026295
:1040C0004268C46923F4007324F073050C682C4320
:1040D0008D6843EA05230C4DA8420ED1CD6823F428
:1040E000006343EA05234D6922F4405242EA051277
:1040F0008D6923F4806342EA05124260C461496815
:10410000C163036230BD00000000014030B5046AA5
:10411000026A22F4805202624268C3690D6823F485
:10412000E64343EA05238D6824F4005444EA053449
:10413000064DA84204D14D6922F4804242EA85121C
:104140004260C36149680164046230BD00000140FF
:104150002DE9F0410C46D0F8D412D0F8C82200EB7B
:104160008101D1F8C01229B304F00F0606EB8603D3
:1041700000EB83050027AB694BB106EBC60602EBEB
:104180008602D269B3FBF2F602FB1632A2B1C1F885
:104190001472D0F8D42200EB8200D0F8C402036974
:1041A0002BB1D1F80802224601F50471984700208E
:1041B000BDE8F0810320FBE700231A462146AF61EA
:1041C00000F011FEF3E770B50546D0F8D40205EB18
:1041D0008000D0F8C04294B1284600F0DAFCC4F860
:1041E0000C02D5F8D412D4F8040205EB8101D1F801
:1041F000C412CA6804F503719047002070BD032003
:1042000070BD000070B5224D0446297800F0FCFB1B
:104210002878002600F00F0000EB800004EB8000FF
:1042200086846978204600F0EFFB687800F00F0084
:1042300000EB800004EB8000A0F86461A9782046C0
:1042400000F0E2FBA87800F00F0000EB800004EB28
:1042500080008684C684D4F8D40204EB8000D0F8B1
:10426000C01299B1D0F8C40240688047D4F8D40293
:1042700004EB8000D0F8C00200F0E6FFD4F8D402CE
:1042800004EB8000C0F8C062C4F8BC62002070BDBE
:104290009400002010B5D0F8D41200EB8100D0F8C3
:1042A000C04284B1D0F8C41259B194F80002FF287A
:1042B00007D08B6894F8012221469847FF2084F8A4
:1042C0000002002010BD032010BD00000A21018063
:1042D000004870479800002070B5064682210C48BF
:1042E00000F015FB05460121094800F010FB0446CB
:1042F0008121074800F00BFB0DB11021A97140216D
:1043000004B1A18000B1818043203080004870BD9D
:10431000A400002070B5064682210D4800F0F7FA8F
:10432000054601210A4800F0F2FA044681210848B6
:1043300000F0EDFA0DB11021A9714FF4007104B134
:10434000A18000B1818043203080014870BD000011
:10435000A400002070B5064682210C4800F0D7FA70
:1043600005460121094800F0D2FA04468121074898
:1043700000F0CDFA0DB11021A971402104B1A18046
:1043800000B1818043203080004870BDA40000202F
:104390002DE9F04704464FF40775284600F056FF14
:1043A00006004FF0000863D02946FBF75DFFD4F804
:1043B000D4023C4D04EB80004FF01009C0F8C062FD
:1043C000C4F8BC62207C4FF4007A0127F0B340238C
:1043D00002222978204600F048FC2878402300F08B
:1043E0000F0000EB800004EB8000878402226978D4
:1043F000204600F03AFC6878082300F00F0000EB3C
:10440000800004EB80000322A0F86471A9782046A4
:1044100001F00F0101EB810104EB8101A1F826906D
:10442000A97800F022FCA87800F00F0000EB8000D3
:1044300004EB80008784C6F80482D4F8D40247468F
:1044400004EB8000D0F8C402006800E018E006F534
:10445000017680473761776132687AB1207CF8B1A4
:1044600040236978204600F00CFC0020BDE8F0876E
:10447000D4F8D41204EB8101C1F8C0820220F5E720
:10448000534602222978204600F0EFFB2878534655
:1044900000F00F0000EB800004EB80008784A5E7AC
:1044A0005346DEE79400002010B5D0F8D41200EB9C
:1044B0008101D1F8C01259B1027C084C002AD1F810
:1044C000042207D04023617800F0DBFB002010BD00
:1044D000032010BD4FF40073F5E7000094000020A6
:1044E00039B1D0F8D42200EB8200C0F8C412002009
:1044F000704703207047D0F8D42200EB8200D0F838
:10450000C00218B1C0F804120020704703207047A1
:10451000D0F8D43200EB8300D0F8C00228B1C0F844
:104520001022C0F8081200207047032070472DE9C0
:10453000FC410646D0F8D4020C4606EB8000002170
:10454000D0F8C0728DF80010ADF804100D4637B1E8
:10455000217811F060022FD0202A4BD102E00320F5
:10456000BDE8FC81E288F2B109060DD5D0F8C4029D
:1045700063783946D0F808C01846E047E288072A31
:1045800000D9072239462DE0607887F80002E088DC
:10459000402800D34020C2B287F801223946304675
:1045A00000F081F82BE0D0F8C4026378002286681E
:1045B00021461846B04722E0607830B101281ED06D
:1045C0000A2809D00B2815D110E096F89C02032880
:1045D00010D1022201A905E096F89C02032809D116
:1045E00001226946304600F078F808E096F89C020F
:1045F000032804D02146304600F04AF80325284617
:10460000AEE7000010B5D0F8D41200EB8101D1F86C
:10461000C02201211AB1D2F8143213B116E00320DE
:1046200010BD0121C2F814120949D2F810320978DC
:1046300001F00F0404EB840400EB8404A361D2F8BE
:104640001032D2F8082200F0CEFB0021084610BD3F
:104650009400002010B5D0F8B8220024526890478A
:1046600000B10324204610BD002070470020704791
:10467000134610B50A46002100F003FB002010BDD0
:10468000134610B50A46002100F0ADFB002010BD16
:1046900010B50446802100F07EFB2046BDE81040A6
:1046A000002100F078BB10B50323C0F89432C0F8A5
:1046B00058211346C0F85C210A46002100F0E1FAB7
:1046C000002010BD10B50521C0F8941200231A4631
:1046D000194600F0D6FA002010BD10B50223C0F82C
:1046E000943282611346C2610A46002100F07BFBCE
:1046F000002010BD10B50421C0F8941200231A4602
:10470000194600F070FB002010BD10B5044600F003
:1047100054FB012084F89C02D4F8B80218B1426816
:104720002179204690470020C4F8C402C4F8B4029E
:10473000C4F8D0022046BDE8104000F010BA0000D6
:1047400010B50A46024903A000F00FF9004810BD59
:10475000100A002043444320436F6E6669670000DF
:1047600012200880004870474800002010B50A4613
:10477000024903A000F0F9F8004810BD100A00201B
:1047800043444320496E74657266616365000000AE
:1047900004200880004870474400002010B50A46F5
:1047A000024903A000F0E1F8004810BD100A002003
:1047B00053544D6963726F656C656374726F6E6993
:1047C0006373000010B50A46024903A000F0CDF85B
:1047D000004810BD100A002053544D333220566952
:1047E000727475616C20436F6D506F7274000000BD
:1047F00010B51A2008800A480168001D0468001DD1
:104800000068081809D008220649FEF7EBFB0549A5
:10481000042210312046FEF7E5FB0248801E10BD41
:10482000107AFF1F5E000020F8B504460020ADF8A6
:10483000000048880D46010A08295FD2DFE801F030
:104840005E0409175E5E3C45D4F8B412207C0A6809
:1048500019E0207C02260028D4F8B80205D0C16AED
:10486000684688470146467039E0816AF8E7C0B279
:10487000062843D2DFE800F0030A1014181CD4F80D
:10488000B402426805E0694690471CE0D4F8B402DF
:10489000826892B3207CF6E7D4F8B402C268F8E7E5
:1048A000D4F8B4020269F4E7D4F8B4024269F0E73C
:1048B000D4F8B4028269ECE7207CF0B9D4F8B802ED
:1048C000416B68468847014609E0207CA8B9D4F8C6
:1048D000B802016B68468847014607204870EA889D
:1048E0008AB1BDF8000040B1824200D90246ADF85D
:1048F00000202046FFF7F1FEF8BDFFE729462046DD
:10490000FFF7C6FEF8E72046FFF7F4FEF4E778B5B8
:104910000E4642880178002504468A4212D9ADF835
:1049200000100AE0694600F019F84178052904D121
:1049300081780546B14205D000256188BDF8002088
:104940009142EFD8284678BD0146002002E0401C85
:10495000C0B2491C0A78002AF9D170470A88037846
:104960001A440A8001780844704770B516460D460F
:10497000002820D00446FFF7E7FF022101EB4001A9
:104980004FF40070814204D82046FFF7DDFF40005D
:10499000801C30803078287003206870022000224C
:1049A00006E02954401CC0B22A54401CC0B2641C0A
:1049B00021780029F5D170BD01004FF0000004D02E
:1049C000012901D0022901D003207047012070473E
:1049D00078B10023C0F8B832C0F8C432C0F8D03281
:1049E00009B1C0F8B412012180F89C12027000F0E5
:1049F000D5B80320704710B5D0F8C802FCF7A5FD64
:104A0000BDE81040FFF7D8BF10B5D0F8C802FCF7DA
:104A100077FDBDE81040FFF7CFBF2DE9F041174605
:104A20000446002521B194F89C02032842D04CE0B2
:104A3000D4F8941204F11400022935D1D0E90263AC
:104A40009E4206D9F21A826039462046FFF718FEC8
:104A50000FE0B34214D14068984211D3D4F89812B1
:104A600088420DD2002211462046FFF709FEC4F805
:104A7000985200231A461946204600F002F913E026
:104A800094F89C02032808D1D4F8B802C16821B177
:104A9000C4F8D452C168204688478021204600F0DF
:104AA0007AF92046FFF70EFE94F8A00268B184F868
:104AB000A0520AE0D4F8B802426932B1C4F8D45224
:104AC000426920469047002800D10020BDE8F081CF
:104AD00070B513460446002221B194F89C020328C5
:104AE00030D03AE0D4F8941204F5AA70032934D1F6
:104AF000D0E902518D420AD96A1A82600846824280
:104B000000D3024619462046FFF7B2FD25E094F88F
:104B1000AA0210F01F0003D0012802D0022800D002
:104B2000002294F89C02032808D1D4F8B802016945
:104B300021B1C4F8D4220169204688472046FFF7F6
:104B4000D9FD0AE0D4F8B802836933B1C4F8D4229D
:104B5000826920469047002800D1002070BD10B522
:104B6000D0F8C802FCF7A6FCBDE81040FFF724BF50
:104B70000020704710B50024012180F89C12D0F865
:104B8000B82222B152680179904700B1032420462F
:104B900010BDD0F8C802FCF705BD000010B50178C3
:104BA00039BB15490222C1F8E004C0F8C8124FF021
:104BB000A040086004200871CA71002088714A7200
:104BC0008872C87208738873C8730846FDF748F87E
:104BD00008B1FBF7B3FC80210748FCF72EFC40220C
:104BE00000210548FCF72DFC802201210248FCF73A
:104BF00028FC002010BD0000302600200A0601F02D
:104C00007F01D0F8C80201EBC10100EB810001D5A2
:104C1000807D704790F85602704710B5D0F8D422C6
:104C200000EB8202D2F8B82222B190F89C32032B1A
:104C300002D004E0032010BD126A02B190470020A8
:104C400010BD10B5D0F8D42200EB8202D2F8B82201
:104C500022B190F89C32032B02D004E0032010BD57
:104C6000526A02B19047002010BD10B51C46134691
:104C7000D0F8C8022246FCF79EFCBDE81040FFF7C2
:104C80009BBE10B5D0F8C802FCF7C6FCBDE81040CA
:104C9000FFF792BE2DE9F04100260125044680F879
:104CA0009C52C4F894626660C4F8A46280F8A06262
:104CB000D0F8B80230B1426822B1002120469047B6
:104CC00000B103260022402311462046FFF7CDFF06
:104CD0004027A4F864513B46002280212046C4F8B6
:104CE0006071FFF7C2FFA58430462762BDE8F081FE
:104CF00090F89C12042903D190F89D1280F89C1220
:104D00000020704710B590F89C12032905D1D0F807
:104D1000B81211B1C96901B18847002010BD0174F2
:104D20000020704710B5D0F8C802FDF776F8BDE84E
:104D30001040FFF741BE70B5044600F2AA200546B8
:104D400000F05AF80120C4F89402B4F8B002C4F894
:104D5000980294F8AA0210F01F010AD001290ED07F
:104D6000022912D000F080012046BDE8704000F01A
:104D700012B829462046BDE8704000F0D9B829464F
:104D80002046BDE8704000F019BA29462046BDE82B
:104D9000704000F063B910B5D0F8C802FCF758FCB9
:104DA000BDE81040FFF708BE10B5D0F8C802FDF707
:104DB0004EF8BDE81040FFF7FFBD10B5D0F8C802AF
:104DC000FDF766F8BDE81040FFF7F6BD90F89C12BD
:104DD000042903D090F89C1280F89D12042180F8D9
:104DE0009C120020704710B5D0F8C802FCF769FC8F
:104DF000BDE81040FFF7E0BD70B5054611F8010BA6
:104E00002870087868704C1C2046FEF7EAFF68801E
:104E1000A41C2046FEF7E5FFA880A01CFEF7E1FFDA
:104E2000E88070BD38B504460020ADF80000A1B19F
:104E3000C4F8B812D4F8D40204EB8000D0F8B80259
:104E4000C16A19B168468847C4F8D002D4F8D802BC
:104E5000401CC4F8D802002038BD032038BD0246EB
:104E60000020D2F8B832002B02D01B681046184739
:104E7000704700002DE9F04188462B4E89780025C7
:104E800004463170012906D941462046FFF700FC4F
:104E90000320BDE8F08194F89C02022702280CD080
:104EA00003281DD041462046FFF7F2FB317820460B
:104EB000FFF7D0FB03252846EBE789B32046616066
:104EC000FFF7CDFF050004D041462046FFF7E0FB89
:104ED0001DE02046FFF70EFC032084F89C02EAE761
:104EE000C1B1606888421BD0C1B22046FFF7B2FB57
:104EF000317820466160FFF7B2FF050010D04146CF
:104F00002046FFF7C5FB21792046FFF7A3FB84F875
:104F10009C72D0E784F89C7220466160FFF79AFB90
:104F20002046FFF7E7FBC6E790000020FFF73CBFF5
:104F30002DE9F0410A78002512F060020CD0202AF9
:104F400001D0402A7DD1D0F8D42200EB8202D2F8E1
:104F5000B8229268904731E04B78002201260A2B54
:104F60006FD2DFE803F041666E586E08056E2D299A
:104F7000FFF75AFC67E004468888D8B9C888C8B9E2
:104F80004888802816D200F07F0794F89C020328F6
:104F900010D084F89E7239462046FFF7C3FE2046A3
:104FA000FFF7A8FB1FB1022084F89C024BE084F8B5
:104FB0009C6248E0204644E0FFF75CFF054642E083
:104FC000CB88012B3DD190F89C32012B04D0022BD1
:104FD00002D0032B35D104E08260012200F10801E8
:104FE00016E00122011D13E090F89C22012A03D053
:104FF000022A01D0032A24D1CA88022A21D1C660FC
:10500000D0F8A41209B10321C160022200F10C0101
:10501000FFF763FB17E04A88012A02D0022A03D077
:105020000FE0C0F8A46216E08988090A80F8A0128F
:1050300011E090F89C32012B08D0022B06D0032BF4
:1050400004D0FFF725FB2846BDE8F08149880129F7
:10505000F9D1C0F8A422FFF74DFBF4E72DE9F041A8
:10506000054608780C790E464FF0000810F06000F5
:105070000BD0202801D040286AD121462846FFF7CE
:10508000F3FAFF2800D0D8B395E07078C8B30128B0
:1050900024D003285CD195F89C02022802D0032872
:1050A00056D10CE0002C53D0802C51D021462846FC
:1050B000FFF771FE80212846FFF76DFE7BE07088C8
:1050C00040B93CB1802C05D0C88818B92146284683
:1050D000FFF761FE2846FFF70DFB6CE095F89C0298
:1050E0000228DFD0032863D1708880BB600603D01C
:1050F00021462846FFF77FFC2846FFF7FBFABCE76E
:1051000000E00AE0C5F8D402D5F8B8028268F2B12E
:1051100031462846904780464DE095F89C0200278E
:10512000022802D0032843D113E00CB1802C3FD1D8
:10513000200604F07F0000EB800005EB800101D524
:10514000143101E001F5AA7102220F602CE032E077
:105150002EE0200604F00F0000EB800005EB80003D
:1051600009D5808C20B304F07F0000EB800005EBB4
:10517000800614360AE0B0F86401C8B104F07F007C
:1051800000EB800005EB800606F5AA764CB1802C7A
:1051900007D021462846FFF731FD10B101203060CD
:1051A00000E03760022231462846FFF796FA02E017
:1051B0002846FFF76DFA4046BDE8F08170B5054618
:1051C000087800240E4610F0600003D0202801D09B
:1051D000402827D195F89C02012803D0022801D04D
:1051E00003281FD1B088C1B201291AD8C1B22846FC
:1051F000FFF73CFAFF280CD058B9D5F8B8128A68E6
:105200003AB1C5F8D4028A68314628469047044628
:1052100000E00324F088204307D12846FFF76AFA0C
:1052200003E031462846FFF733FA204670BD10B53B
:105230000446FFF7C2FDD4F8B80218B142682179DC
:1052400020469047002010BD70470000004870477E
:105250001024002070B50A78012302F00F054E7863
:10526000AB401B4CD0F81C58012E17D045EA034325
:10527000C0F81C3800EB4210D0F8002B12040BD4FD
:10528000D0F8002B0B890979C3F30A031A4344EAC7
:1052900081410A43C0F8002B002070BD9BB21D4322
:1052A000C0F81C5800EB4210D0F800391B04F3D4AE
:1052B000D0F800390D890979C5F30A0589042B4313
:1052C00041EA82510B432343C0F80039E4E7000070
:1052D00000800010D0F800196FF30A01C0F800191F
:1052E000D0F8041841F48071C0F804180020704709
:1052F00070B50D460446C2F3072104981E460129E5
:105300001BD0E06840F04000E060204600F032F83A
:10531000C6F307210029A16B26D021F48031A163B7
:10532000C5F30741012907D1A16841F00601A16039
:10533000A16841F02001A16070BDA16B21F4803112
:10534000A163E1680A4A1140E160E16821F440117B
:10535000E160C0B2012803D1E06840F48010E06051
:10536000204600F007F8DBE741F48031D7E7000082
:10537000BFFFBDFF08B500214FF070620091009B98
:105380005B1C009393420CD80369002BF7DA009161
:10539000016941F0010101610099491C00919142AC
:1053A00001D9032008BD0169C907F5D1002008BD56
:1053B00030B54C780A78012300EB4212012C2CD036
:1053C000D2F8004B002C0BDAD2F8004B44F000640A
:1053D000C2F8004BD2F8004B44F08044C2F8004BB6
:1053E000D0F83C580C7804F00F0403FA04F425EAD2
:1053F0000444C0F83C48D0F81C48097801F00F017B
:105400008B4024EA0341C0F81C18D2F8000B19495C
:105410000840C2F8000B002030BDD2F80049002C33
:105420000BDAD2F8004944F00064C2F80049D2F81F
:10543000004944F08044C2F80049D0F83C480D7857
:1054400005F00F0503FA05F5ADB2AC43C0F83C48D2
:10545000D0F81C48097801F00F018B4099B28C43B9
:10546000C0F81C48D2F8000903490840C2F80009F6
:10547000D1E700000078F3EF007833ECD0F8001E9D
:1054800021F00301C0F8001ED0F8041821F0020139
:10549000C0F8041800207047D0F8001E21F0030166
:1054A000C0F8001ED0F8041841F00201C0F804183A
:1054B000002070472DE9F04F00250E4604461746A0
:1054C0002846294604EB8002C2F80411401C0F282C
:1054D000F8D3C3F307405FEA0009204616D0806B7B
:1054E00020F40012A263A06B40F40022A2630846DD
:1054F00088462146C4F8000EC7F30720012817D0BC
:105500000846D1F8001841F0030118E0D0F804086B
:1055100040F00202C4F80428A06B40F40012A26319
:10552000A06B20F40022A263A06B20F48022DDE7B0
:10553000300E0846D1F8001801D041F00101C0F842
:105540000018102100F047FC00B10125204600F0B2
:1055500026FC00B101254046C4F81088C4F8148820
:10556000C4F81C8800214FF0006B4FF0904E4FF6AE
:105570007F3AF2B215E000BF04EB4113D3F800C943
:10558000BCF1000F06DA11B1C3F800E904E0C4F879
:1055900000B901E0C3F80009C3F81009C3F808A96D
:1055A000491C8A42E8D8002115E000BF04EB4113F2
:1055B000D3F800CBBCF1000F06DA11B1C3F800EB51
:1055C00004E0C4F800BB01E0C3F8000BC3F8100B03
:1055D000C3F808AB491C8A42E8D8D4F8101821F463
:1055E0008072C4F81028A0616FF080406061C6F33B
:1055F000074018B9A06940F01000A061A0690A49ED
:105600000843A061C7F3074018B1A06940F0080043
:10561000A061B9F1010F03D1A06904490843A06159
:105620002846BDE8F08F000000383C8004000040B0
:10563000816821F0010181600020704770B542A2AD
:1056400092B007CA06AB83E8070042A000F024FC32
:105650004FA000F021FC564D2846FAF7DFFF08B1B5
:1056600054A068E05EA000F017FC62A000F014FCFB
:10567000674800F06DFD041E4EDD66A000F00CFCD6
:1056800021462846FAF7D0FE05466D48029003A948
:105690004FF05A3081E8310002AE0320FAF7DCFF08
:1056A00068480C90042231460CA8FBF707F866A066
:1056B00000F0F2FB6EA000F0EFFB784800F0ECFB8E
:1056C000214606A8FDF76EFC75A000F0E5FB06A8D4
:1056D00000F0E2FB75A000F0DFFB77A000F0DCFB40
:1056E00009AC142277A10CA8FAF7A5FD00200CA99B
:1056F00005F00F02C0F107038A5C2D09401CE2543B
:105700000828F5DB0020207209A800F0C5FB72A074
:1057100000F0C2FB76A00EE00320FAF79DFF7BA00D
:1057200000F0BAFB601C05D0A01C08D0E41C08D017
:105730007BA000E082A000F0AFFB12B070BD90A093
:10574000F9E796A0F7E70000202020202020202065
:105750002020000057616974696E6720666F7220AF
:105760007468652066696C6520746F2062652073BB
:10577000656E74202E2E2E2028707265737320277C
:10578000612720746F2061626F7274290A0D000016
:1057900045726173696E67204170706C69636174F2
:1057A000696F6E20417265612E2E2E0D0A00000079
:1057B000000001084572726F723A204661696C659B
:1057C0006420746F206572617365206170706C690C
:1057D000636174696F6E2061726561210D0A00005A
:1057E000457261736520436F6D706C6574652E0D35
:1057F0000A0000005374617274696E6720596D6FFE
:1058000064656D20526563656976650A0D00000068
:10581000340200200A0A0D2046696C652072656317
:10582000657074696F6E20636F6D706C6574652E42
:1058300020566572696679696E672E2E2E0A0D00F4
:10584000EFBEADDE00C0000856657269666963612F
:1058500074696F6E20616E6420466C6167205365C9
:1058600074207375636365737366756C210D0A002C
:105870002D2D2D2D2D2D2D2D2D2D2D2D2D2D2D2D58
:105880002D2D2D2D2D2D2D2D2D2D2D2D2D2D2D2D48
:105890000D0A204E616D653A20000000340600209C
:1058A0000A0D2053697A653A20000000204279747D
:1058B00065730D0A000000002043524333323A2042
:1058C00030780000303132333435363738394142A0
:1058D00043444546000000000D0A2D2D2D2D2D2D91
:1058E0002D2D2D2D2D2D2D2D2D2D2D2D2D0A000065
:1058F000506C65617365207265626F6F74207468A7
:1059000065206465766963652E0D0A000A0D557081
:105910006772616465206661696C6564210D0A00C7
:105920000A0D4661696C656420746F207265636559
:10593000697665207468652066696C65210A0D00CA
:105940000A0A0D54686520696D6167652073697A7C
:105950006520697320686967686572207468616E84
:105960002074686520616C6C6F776564207370616A
:105970006365206D656D6F7279210A0D000000006E
:105980000A0A0D566572696669636174696F6E20F3
:105990006661696C6564210A0D0000000D0A0A4108
:1059A000626F7274656420627920757365722E0A65
:1059B0000D00000010B5036C134CA34203D9D0F8BE
:1059C000003B002B1EDB0023C0F8103BD0F8103B3F
:1059D00043F40023C0F8103BD0F8103B43F0180309
:1059E000C0F8103BD0F8103B43F0C043C0F8103B68
:1059F000012907D1C0F8142BD0F8001B41F08021F9
:105A0000C0F8001B002010BD0A30544F4A780B78B4
:105A1000012A00EB43100BD0D0F8002B22F4001227
:105A2000C0F8002B0979032914D0022912D017E0FD
:105A3000D0F8002922F40012C0F8002909790329BE
:105A400001D002290CD1D0F8001941F08051C0F8E2
:105A5000001905E0D0F8001B41F08051C0F8001B90
:105A6000002070470A784B78D1B200EB4110012B2F
:105A700012D0D0F8001B002906DB2AB1D0F8001B99
:105A800021F08041C0F8001BD0F8001B41F4001148
:105A9000C0F8001B00207047D0F80019002906DB71
:105AA0002AB1D0F8001921F08041C0F80019D0F8CF
:105AB000001941F40011C0F80019EBE7F8B50C78B3
:105AC0004F788B4DE3B26FF0604600EB4313012F2C
:105AD00029D0D3F8107B6FF31207C3F8107BD3F8EB
